{
  "_format": "hh-sol-artifact-1",
  "contractName": "ItemsFacet",
  "sourceName": "contracts/Tokenatxor/facets/ItemsFacet.sol",
  "abi": [
    {
      "anonymous": false,
      "inputs": [
        {
          "indexed": true,
          "internalType": "uint256",
          "name": "_tokenId",
          "type": "uint256"
        },
        {
          "indexed": false,
          "internalType": "uint16[16]",
          "name": "_oldEquippables",
          "type": "uint16[16]"
        },
        {
          "indexed": false,
          "internalType": "uint16[16]",
          "name": "_newEquippables",
          "type": "uint16[16]"
        }
      ],
      "name": "EquipEquippables",
      "type": "event"
    },
    {
      "anonymous": false,
      "inputs": [
        {
          "indexed": true,
          "internalType": "address",
          "name": "_toContract",
          "type": "address"
        },
        {
          "indexed": true,
          "internalType": "uint256",
          "name": "_toTokenId",
          "type": "uint256"
        },
        {
          "indexed": true,
          "internalType": "uint256",
          "name": "_tokenTypeId",
          "type": "uint256"
        },
        {
          "indexed": false,
          "internalType": "uint256",
          "name": "_value",
          "type": "uint256"
        }
      ],
      "name": "TransferToParent",
      "type": "event"
    },
    {
      "anonymous": false,
      "inputs": [
        {
          "indexed": true,
          "internalType": "uint256",
          "name": "_tokenId",
          "type": "uint256"
        },
        {
          "indexed": false,
          "internalType": "uint256[]",
          "name": "_itemIds",
          "type": "uint256[]"
        },
        {
          "indexed": false,
          "internalType": "uint256[]",
          "name": "_quantities",
          "type": "uint256[]"
        }
      ],
      "name": "UseConsumables",
      "type": "event"
    },
    {
      "inputs": [
        {
          "internalType": "address",
          "name": "_owner",
          "type": "address"
        },
        {
          "internalType": "uint256",
          "name": "_id",
          "type": "uint256"
        }
      ],
      "name": "balanceOf",
      "outputs": [
        {
          "internalType": "uint256",
          "name": "bal_",
          "type": "uint256"
        }
      ],
      "stateMutability": "view",
      "type": "function"
    },
    {
      "inputs": [
        {
          "internalType": "address[]",
          "name": "_owners",
          "type": "address[]"
        },
        {
          "internalType": "uint256[]",
          "name": "_ids",
          "type": "uint256[]"
        }
      ],
      "name": "balanceOfBatch",
      "outputs": [
        {
          "internalType": "uint256[]",
          "name": "bals",
          "type": "uint256[]"
        }
      ],
      "stateMutability": "view",
      "type": "function"
    },
    {
      "inputs": [
        {
          "internalType": "address",
          "name": "_tokenContract",
          "type": "address"
        },
        {
          "internalType": "uint256",
          "name": "_tokenId",
          "type": "uint256"
        },
        {
          "internalType": "uint256",
          "name": "_id",
          "type": "uint256"
        }
      ],
      "name": "balanceOfToken",
      "outputs": [
        {
          "internalType": "uint256",
          "name": "value",
          "type": "uint256"
        }
      ],
      "stateMutability": "view",
      "type": "function"
    },
    {
      "inputs": [
        {
          "internalType": "uint256",
          "name": "_tokenId",
          "type": "uint256"
        },
        {
          "internalType": "uint16[16]",
          "name": "_equippablesToEquip",
          "type": "uint16[16]"
        }
      ],
      "name": "equippedEquippables",
      "outputs": [],
      "stateMutability": "nonpayable",
      "type": "function"
    },
    {
      "inputs": [
        {
          "internalType": "uint256",
          "name": "_tokenId",
          "type": "uint256"
        }
      ],
      "name": "equippedEquippables",
      "outputs": [
        {
          "internalType": "uint16[16]",
          "name": "equippableIds_",
          "type": "uint16[16]"
        }
      ],
      "stateMutability": "view",
      "type": "function"
    },
    {
      "inputs": [
        {
          "internalType": "uint256[]",
          "name": "_equippableIds",
          "type": "uint256[]"
        }
      ],
      "name": "findEquippableSets",
      "outputs": [
        {
          "internalType": "uint256[]",
          "name": "equippableSetIds_",
          "type": "uint256[]"
        }
      ],
      "stateMutability": "view",
      "type": "function"
    },
    {
      "inputs": [
        {
          "internalType": "uint256",
          "name": "_index",
          "type": "uint256"
        }
      ],
      "name": "getEquippableSet",
      "outputs": [
        {
          "components": [
            {
              "internalType": "string",
              "name": "name",
              "type": "string"
            },
            {
              "internalType": "uint8[]",
              "name": "allowedCollaterals",
              "type": "uint8[]"
            },
            {
              "internalType": "uint16[]",
              "name": "equippableIds",
              "type": "uint16[]"
            },
            {
              "internalType": "int8[5]",
              "name": "traitsBonuses",
              "type": "int8[5]"
            }
          ],
          "internalType": "struct EquippableSet",
          "name": "equippableSet_",
          "type": "tuple"
        }
      ],
      "stateMutability": "view",
      "type": "function"
    },
    {
      "inputs": [],
      "name": "getEquippableSets",
      "outputs": [
        {
          "components": [
            {
              "internalType": "string",
              "name": "name",
              "type": "string"
            },
            {
              "internalType": "uint8[]",
              "name": "allowedCollaterals",
              "type": "uint8[]"
            },
            {
              "internalType": "uint16[]",
              "name": "equippableIds",
              "type": "uint16[]"
            },
            {
              "internalType": "int8[5]",
              "name": "traitsBonuses",
              "type": "int8[5]"
            }
          ],
          "internalType": "struct EquippableSet[]",
          "name": "equippableSets_",
          "type": "tuple[]"
        }
      ],
      "stateMutability": "view",
      "type": "function"
    },
    {
      "inputs": [
        {
          "internalType": "uint256",
          "name": "_itemId",
          "type": "uint256"
        }
      ],
      "name": "getItemType",
      "outputs": [
        {
          "components": [
            {
              "internalType": "string",
              "name": "name",
              "type": "string"
            },
            {
              "internalType": "string",
              "name": "description",
              "type": "string"
            },
            {
              "internalType": "string",
              "name": "author",
              "type": "string"
            },
            {
              "internalType": "int8[6]",
              "name": "traitModifiers",
              "type": "int8[6]"
            },
            {
              "internalType": "bool[16]",
              "name": "slotPositions",
              "type": "bool[16]"
            },
            {
              "internalType": "uint8[]",
              "name": "allowedCollaterals",
              "type": "uint8[]"
            },
            {
              "components": [
                {
                  "internalType": "uint8",
                  "name": "x",
                  "type": "uint8"
                },
                {
                  "internalType": "uint8",
                  "name": "y",
                  "type": "uint8"
                },
                {
                  "internalType": "uint8",
                  "name": "width",
                  "type": "uint8"
                },
                {
                  "internalType": "uint8",
                  "name": "height",
                  "type": "uint8"
                }
              ],
              "internalType": "struct Dimensions",
              "name": "dimensions",
              "type": "tuple"
            },
            {
              "internalType": "uint256",
              "name": "tktrPrice",
              "type": "uint256"
            },
            {
              "internalType": "uint256",
              "name": "maxQuantity",
              "type": "uint256"
            },
            {
              "internalType": "uint256",
              "name": "totalQuantity",
              "type": "uint256"
            },
            {
              "internalType": "uint32",
              "name": "svgId",
              "type": "uint32"
            },
            {
              "internalType": "uint8",
              "name": "rarityScoreModifier",
              "type": "uint8"
            },
            {
              "internalType": "bool",
              "name": "canPurchaseWithTktr",
              "type": "bool"
            },
            {
              "internalType": "uint16",
              "name": "minLevel",
              "type": "uint16"
            },
            {
              "internalType": "bool",
              "name": "canBeTransferred",
              "type": "bool"
            },
            {
              "internalType": "uint8",
              "name": "category",
              "type": "uint8"
            },
            {
              "internalType": "int16",
              "name": "wisdomBonus",
              "type": "int16"
            },
            {
              "internalType": "uint32",
              "name": "experienceBonus",
              "type": "uint32"
            }
          ],
          "internalType": "struct ItemType",
          "name": "itemType_",
          "type": "tuple"
        }
      ],
      "stateMutability": "view",
      "type": "function"
    },
    {
      "inputs": [
        {
          "internalType": "uint256[]",
          "name": "_itemIds",
          "type": "uint256[]"
        }
      ],
      "name": "getItemTypes",
      "outputs": [
        {
          "components": [
            {
              "internalType": "string",
              "name": "name",
              "type": "string"
            },
            {
              "internalType": "string",
              "name": "description",
              "type": "string"
            },
            {
              "internalType": "string",
              "name": "author",
              "type": "string"
            },
            {
              "internalType": "int8[6]",
              "name": "traitModifiers",
              "type": "int8[6]"
            },
            {
              "internalType": "bool[16]",
              "name": "slotPositions",
              "type": "bool[16]"
            },
            {
              "internalType": "uint8[]",
              "name": "allowedCollaterals",
              "type": "uint8[]"
            },
            {
              "components": [
                {
                  "internalType": "uint8",
                  "name": "x",
                  "type": "uint8"
                },
                {
                  "internalType": "uint8",
                  "name": "y",
                  "type": "uint8"
                },
                {
                  "internalType": "uint8",
                  "name": "width",
                  "type": "uint8"
                },
                {
                  "internalType": "uint8",
                  "name": "height",
                  "type": "uint8"
                }
              ],
              "internalType": "struct Dimensions",
              "name": "dimensions",
              "type": "tuple"
            },
            {
              "internalType": "uint256",
              "name": "tktrPrice",
              "type": "uint256"
            },
            {
              "internalType": "uint256",
              "name": "maxQuantity",
              "type": "uint256"
            },
            {
              "internalType": "uint256",
              "name": "totalQuantity",
              "type": "uint256"
            },
            {
              "internalType": "uint32",
              "name": "svgId",
              "type": "uint32"
            },
            {
              "internalType": "uint8",
              "name": "rarityScoreModifier",
              "type": "uint8"
            },
            {
              "internalType": "bool",
              "name": "canPurchaseWithTktr",
              "type": "bool"
            },
            {
              "internalType": "uint16",
              "name": "minLevel",
              "type": "uint16"
            },
            {
              "internalType": "bool",
              "name": "canBeTransferred",
              "type": "bool"
            },
            {
              "internalType": "uint8",
              "name": "category",
              "type": "uint8"
            },
            {
              "internalType": "int16",
              "name": "wisdomBonus",
              "type": "int16"
            },
            {
              "internalType": "uint32",
              "name": "experienceBonus",
              "type": "uint32"
            }
          ],
          "internalType": "struct ItemType[]",
          "name": "itemTypes_",
          "type": "tuple[]"
        }
      ],
      "stateMutability": "view",
      "type": "function"
    },
    {
      "inputs": [
        {
          "internalType": "address",
          "name": "_account",
          "type": "address"
        }
      ],
      "name": "itemBalances",
      "outputs": [
        {
          "components": [
            {
              "internalType": "uint256",
              "name": "itemId",
              "type": "uint256"
            },
            {
              "internalType": "uint256",
              "name": "balance",
              "type": "uint256"
            }
          ],
          "internalType": "struct ItemsFacet.ItemIdIO[]",
          "name": "bals_",
          "type": "tuple[]"
        }
      ],
      "stateMutability": "view",
      "type": "function"
    },
    {
      "inputs": [
        {
          "internalType": "address",
          "name": "_tokenContract",
          "type": "address"
        },
        {
          "internalType": "uint256",
          "name": "_tokenId",
          "type": "uint256"
        }
      ],
      "name": "itemBalancesOfToken",
      "outputs": [
        {
          "components": [
            {
              "internalType": "uint256",
              "name": "itemId",
              "type": "uint256"
            },
            {
              "internalType": "uint256",
              "name": "balance",
              "type": "uint256"
            }
          ],
          "internalType": "struct ItemsFacet.ItemIdIO[]",
          "name": "bals_",
          "type": "tuple[]"
        }
      ],
      "stateMutability": "view",
      "type": "function"
    },
    {
      "inputs": [
        {
          "internalType": "address",
          "name": "_tokenContract",
          "type": "address"
        },
        {
          "internalType": "uint256",
          "name": "_tokenId",
          "type": "uint256"
        }
      ],
      "name": "itemBalancesOfTokenWithTypes",
      "outputs": [
        {
          "components": [
            {
              "internalType": "uint256",
              "name": "balance",
              "type": "uint256"
            },
            {
              "internalType": "uint256",
              "name": "itemId",
              "type": "uint256"
            },
            {
              "components": [
                {
                  "internalType": "string",
                  "name": "name",
                  "type": "string"
                },
                {
                  "internalType": "string",
                  "name": "description",
                  "type": "string"
                },
                {
                  "internalType": "string",
                  "name": "author",
                  "type": "string"
                },
                {
                  "internalType": "int8[6]",
                  "name": "traitModifiers",
                  "type": "int8[6]"
                },
                {
                  "internalType": "bool[16]",
                  "name": "slotPositions",
                  "type": "bool[16]"
                },
                {
                  "internalType": "uint8[]",
                  "name": "allowedCollaterals",
                  "type": "uint8[]"
                },
                {
                  "components": [
                    {
                      "internalType": "uint8",
                      "name": "x",
                      "type": "uint8"
                    },
                    {
                      "internalType": "uint8",
                      "name": "y",
                      "type": "uint8"
                    },
                    {
                      "internalType": "uint8",
                      "name": "width",
                      "type": "uint8"
                    },
                    {
                      "internalType": "uint8",
                      "name": "height",
                      "type": "uint8"
                    }
                  ],
                  "internalType": "struct Dimensions",
                  "name": "dimensions",
                  "type": "tuple"
                },
                {
                  "internalType": "uint256",
                  "name": "tktrPrice",
                  "type": "uint256"
                },
                {
                  "internalType": "uint256",
                  "name": "maxQuantity",
                  "type": "uint256"
                },
                {
                  "internalType": "uint256",
                  "name": "totalQuantity",
                  "type": "uint256"
                },
                {
                  "internalType": "uint32",
                  "name": "svgId",
                  "type": "uint32"
                },
                {
                  "internalType": "uint8",
                  "name": "rarityScoreModifier",
                  "type": "uint8"
                },
                {
                  "internalType": "bool",
                  "name": "canPurchaseWithTktr",
                  "type": "bool"
                },
                {
                  "internalType": "uint16",
                  "name": "minLevel",
                  "type": "uint16"
                },
                {
                  "internalType": "bool",
                  "name": "canBeTransferred",
                  "type": "bool"
                },
                {
                  "internalType": "uint8",
                  "name": "category",
                  "type": "uint8"
                },
                {
                  "internalType": "int16",
                  "name": "wisdomBonus",
                  "type": "int16"
                },
                {
                  "internalType": "uint32",
                  "name": "experienceBonus",
                  "type": "uint32"
                }
              ],
              "internalType": "struct ItemType",
              "name": "itemType",
              "type": "tuple"
            }
          ],
          "internalType": "struct ItemTypeIO[]",
          "name": "itemBalancesOfTokenWithTypes_",
          "type": "tuple[]"
        }
      ],
      "stateMutability": "view",
      "type": "function"
    },
    {
      "inputs": [
        {
          "internalType": "address",
          "name": "_owner",
          "type": "address"
        }
      ],
      "name": "itemBalancesWithTypes",
      "outputs": [
        {
          "components": [
            {
              "internalType": "uint256",
              "name": "balance",
              "type": "uint256"
            },
            {
              "internalType": "uint256",
              "name": "itemId",
              "type": "uint256"
            },
            {
              "components": [
                {
                  "internalType": "string",
                  "name": "name",
                  "type": "string"
                },
                {
                  "internalType": "string",
                  "name": "description",
                  "type": "string"
                },
                {
                  "internalType": "string",
                  "name": "author",
                  "type": "string"
                },
                {
                  "internalType": "int8[6]",
                  "name": "traitModifiers",
                  "type": "int8[6]"
                },
                {
                  "internalType": "bool[16]",
                  "name": "slotPositions",
                  "type": "bool[16]"
                },
                {
                  "internalType": "uint8[]",
                  "name": "allowedCollaterals",
                  "type": "uint8[]"
                },
                {
                  "components": [
                    {
                      "internalType": "uint8",
                      "name": "x",
                      "type": "uint8"
                    },
                    {
                      "internalType": "uint8",
                      "name": "y",
                      "type": "uint8"
                    },
                    {
                      "internalType": "uint8",
                      "name": "width",
                      "type": "uint8"
                    },
                    {
                      "internalType": "uint8",
                      "name": "height",
                      "type": "uint8"
                    }
                  ],
                  "internalType": "struct Dimensions",
                  "name": "dimensions",
                  "type": "tuple"
                },
                {
                  "internalType": "uint256",
                  "name": "tktrPrice",
                  "type": "uint256"
                },
                {
                  "internalType": "uint256",
                  "name": "maxQuantity",
                  "type": "uint256"
                },
                {
                  "internalType": "uint256",
                  "name": "totalQuantity",
                  "type": "uint256"
                },
                {
                  "internalType": "uint32",
                  "name": "svgId",
                  "type": "uint32"
                },
                {
                  "internalType": "uint8",
                  "name": "rarityScoreModifier",
                  "type": "uint8"
                },
                {
                  "internalType": "bool",
                  "name": "canPurchaseWithTktr",
                  "type": "bool"
                },
                {
                  "internalType": "uint16",
                  "name": "minLevel",
                  "type": "uint16"
                },
                {
                  "internalType": "bool",
                  "name": "canBeTransferred",
                  "type": "bool"
                },
                {
                  "internalType": "uint8",
                  "name": "category",
                  "type": "uint8"
                },
                {
                  "internalType": "int16",
                  "name": "wisdomBonus",
                  "type": "int16"
                },
                {
                  "internalType": "uint32",
                  "name": "experienceBonus",
                  "type": "uint32"
                }
              ],
              "internalType": "struct ItemType",
              "name": "itemType",
              "type": "tuple"
            }
          ],
          "internalType": "struct ItemTypeIO[]",
          "name": "output_",
          "type": "tuple[]"
        }
      ],
      "stateMutability": "view",
      "type": "function"
    },
    {
      "inputs": [
        {
          "internalType": "string",
          "name": "_value",
          "type": "string"
        }
      ],
      "name": "setBaseURI",
      "outputs": [],
      "stateMutability": "nonpayable",
      "type": "function"
    },
    {
      "inputs": [],
      "name": "totalEquippableSets",
      "outputs": [
        {
          "internalType": "uint256",
          "name": "",
          "type": "uint256"
        }
      ],
      "stateMutability": "view",
      "type": "function"
    },
    {
      "inputs": [
        {
          "internalType": "uint256",
          "name": "_id",
          "type": "uint256"
        }
      ],
      "name": "uri",
      "outputs": [
        {
          "internalType": "string",
          "name": "",
          "type": "string"
        }
      ],
      "stateMutability": "view",
      "type": "function"
    },
    {
      "inputs": [
        {
          "internalType": "uint256",
          "name": "_tokenId",
          "type": "uint256"
        },
        {
          "internalType": "uint256[]",
          "name": "_itemIds",
          "type": "uint256[]"
        },
        {
          "internalType": "uint256[]",
          "name": "_quantities",
          "type": "uint256[]"
        }
      ],
      "name": "useConsumables",
      "outputs": [],
      "stateMutability": "nonpayable",
      "type": "function"
    }
  ],
  "bytecode": "0x608060405234801561001057600080fd5b50616e1b80620000216000396000f3fe608060405234801561001057600080fd5b50600436106101355760003560e01c8063ac34cea1116100b2578063ea316ab211610081578063ed44660111610066578063ed44660114610327578063f31689901461033a578063fcdbbe1d1461035a57610135565b8063ea316ab2146102e7578063ea9784321461030757610135565b8063ac34cea114610281578063c19a4ef514610294578063c99b8bf0146102b4578063d72fecea146102d457610135565b806355f804b311610109578063853d131a116100ee578063853d131a1461025157806397abfb2d146102595780639f5fe9e51461026c57610135565b806355f804b31461021c5780637e2cd18d1461023157610135565b8062fdd58e1461013a5780630e89341c1461018f57806339a209df146101af5780634e1273f4146101fc575b600080fd5b61017c61014836600461615d565b73ffffffffffffffffffffffffffffffffffffffff9091166000908152600960209081526040808320938352929052205490565b6040519081526020015b60405180910390f35b6101a261019d366004616343565b61036d565b6040516101869190616be9565b61017c6101bd366004616186565b73ffffffffffffffffffffffffffffffffffffffff90921660009081526003602090815260408083209383529281528282209382529290925290205490565b61020f61020a3660046161b8565b61047f565b6040516101869190616ba5565b61022f61022a366004616261565b6106b5565b005b61024461023f36600461615d565b610829565b6040516101869190616879565b61017c610a49565b61020f610267366004616221565b610a50565b610274610cd7565b60405161018691906167fb565b61022f61028f366004616373565b610f1f565b6102a76102a2366004616343565b6119b7565b6040516101869190616c0f565b6102c76102c2366004616343565b611ea4565b6040516101869190616bfc565b6102446102e2366004616143565b612180565b6102fa6102f5366004616221565b612382565b6040516101869190616962565b61031a61031536600461615d565b612d5b565b60405161018691906168c8565b61022f6103353660046163a7565b612d6e565b61034d610348366004616343565b6138f4565b60405161018691906169d3565b61031a610368366004616143565b613963565b60065460609082106103e0576040517f08c379a000000000000000000000000000000000000000000000000000000000815260206004820152601e60248201527f4974656d7346616365743a204974656d205f6964206e6f7420666f756e64000060448201526064015b60405180910390fd5b610477600060210180546103f390616cf3565b80601f016020809104026020016040519081016040528092919081815260200182805461041f90616cf3565b801561046c5780601f106104415761010080835404028352916020019161046c565b820191906000526020600020905b81548152906001019060200180831161044f57829003601f168201915b505050505083613fed565b90505b919050565b6060838214610510576040517f08c379a000000000000000000000000000000000000000000000000000000000815260206004820152603260248201527f4974656d7346616365743a205f6f776e657273206c656e677468206e6f74207360448201527f616d65206173205f696473206c656e677468000000000000000000000000000060648201526084016103d7565b8367ffffffffffffffff811115610550577f4e487b7100000000000000000000000000000000000000000000000000000000600052604160045260246000fd5b604051908082528060200260200182016040528015610579578160200160208202803683370190505b50905060005b848110156106ac5760008484838181106105c2577f4e487b7100000000000000000000000000000000000000000000000000000000600052603260045260246000fd5b9050602002013590506000878784818110610606577f4e487b7100000000000000000000000000000000000000000000000000000000600052603260045260246000fd5b905060200201602081019061061b9190616143565b73ffffffffffffffffffffffffffffffffffffffff8116600090815260096020908152604080832086845290915290205485519192509085908590811061068b577f4e487b7100000000000000000000000000000000000000000000000000000000600052603260045260246000fd5b602002602001018181525050505080806106a490616d41565b91505061057f565b50949350505050565b60006106bf614181565b601d5490915073ffffffffffffffffffffffffffffffffffffffff8083169116148061072457507fc8fcad8db84d3cc18b4c41d551ea0ee66dd599cde068d998e57d5e09332c13205473ffffffffffffffffffffffffffffffffffffffff8281169116145b6107b0576040517f08c379a000000000000000000000000000000000000000000000000000000000815260206004820152602160248201527f4c696241707053746f726167653a20446f206e6f74206861766520616363657360448201527f730000000000000000000000000000000000000000000000000000000000000060648201526084016103d7565b81516107c3906021906020850190615e25565b5060005b60065481101561082457807f6bb7ff708619ba0610cba295a58592e0451dee2622938c8755667688daf3529b6107fd8584613fed565b60405161080a9190616be9565b60405180910390a28061081c81616d41565b9150506107c7565b505050565b73ffffffffffffffffffffffffffffffffffffffff821660009081526004602090815260408083208484529091529020546060908067ffffffffffffffff81111561089d577f4e487b7100000000000000000000000000000000000000000000000000000000600052604160045260246000fd5b6040519080825280602002602001820160405280156108e257816020015b60408051808201909152600080825260208201528152602001906001900390816108bb5790505b50915060005b81811015610a415773ffffffffffffffffffffffffffffffffffffffff851660009081526004602090815260408083208784529091528120805483908110610959577f4e487b7100000000000000000000000000000000000000000000000000000000600052603260045260246000fd5b90600052602060002001549050808483815181106109a0577f4e487b7100000000000000000000000000000000000000000000000000000000600052603260045260246000fd5b6020908102919091018101519190915273ffffffffffffffffffffffffffffffffffffffff87166000908152600382526040808220888352835280822084835290925220548451859084908110610a20577f4e487b7100000000000000000000000000000000000000000000000000000000600052603260045260246000fd5b60209081029190910181015101525080610a3981616d41565b9150506108e8565b505092915050565b6007545b90565b6007546060908067ffffffffffffffff811115610a96577f4e487b7100000000000000000000000000000000000000000000000000000000600052604160045260246000fd5b604051908082528060200260200182016040528015610abf578160200160208202803683370190505b5091506000805b82811015610ccd576000806007018281548110610b0c577f4e487b7100000000000000000000000000000000000000000000000000000000600052603260045260246000fd5b9060005260206000209060040201600201805480602002602001604051908101604052809291908181526020018280548015610b8f57602002820191906000526020600020906000905b82829054906101000a900461ffff1661ffff1681526020019060020190602082600101049283019260010382029150808411610b565790505b5050505050905060006001905060005b8251811015610c70576000838281518110610be3577f4e487b7100000000000000000000000000000000000000000000000000000000600052603260045260246000fd5b602002602001015161ffff1690506000805b8a811015610c5557828c8c83818110610c37577f4e487b7100000000000000000000000000000000000000000000000000000000600052603260045260246000fd5b905060200201351415610c4d5760019150610c55565b600101610bf5565b5080610c6657600093505050610c70565b5050600101610b9f565b508015610cc35782868581518110610cb1577f4e487b7100000000000000000000000000000000000000000000000000000000600052603260045260246000fd5b60209081029190910101526001909301925b5050600101610ac6565b5082525092915050565b60606000600701805480602002602001604051908101604052809291908181526020016000905b82821015610f165783829060005260206000209060040201604051806080016040529081600082018054610d3190616cf3565b80601f0160208091040260200160405190810160405280929190818152602001828054610d5d90616cf3565b8015610daa5780601f10610d7f57610100808354040283529160200191610daa565b820191906000526020600020905b815481529060010190602001808311610d8d57829003601f168201915b5050505050815260200160018201805480602002602001604051908101604052809291908181526020018280548015610e2057602002820191906000526020600020906000905b825461010083900a900460ff16815260206001928301818104948501949093039092029101808411610df15790505b5050505050815260200160028201805480602002602001604051908101604052809291908181526020018280548015610ea057602002820191906000526020600020906000905b82829054906101000a900461ffff1661ffff1681526020019060020190602082600101049283019260010382029150808411610e675790505b50505091835250506040805160a0810191829052602090920191906003840190600590826000855b82829054906101000a900460000b60000b81526020019060010190602082600001049283019260010382029150808411610ec857905050505050508152505081526020019060010190610cfe565b50505050905090565b6000828152600d60205260409020600b0154829073ffffffffffffffffffffffffffffffffffffffff16610f51614181565b73ffffffffffffffffffffffffffffffffffffffff1614610ff4576040517f08c379a000000000000000000000000000000000000000000000000000000000815260206004820152603b60248201527f4c696241707053746f726167653a204f6e6c7920746f6b656e6174786f72206f60448201527f776e65722063616e2063616c6c20746869732066756e6374696f6e000000000060648201526084016103d7565b6000838152600d60205260409020600b81015474010000000000000000000000000000000000000000900460ff1660031461108b576040517f08c379a000000000000000000000000000000000000000000000000000000000815260206004820181905260248201527f4c6962546f6b656e6174786f723a204f6e6c792076616c696420666f7220545260448201526064016103d7565b837f971e8cb69475987c3887625edbc5154a812a6094e97fa2e844eef6e905ca66e482600001856040516110c0929190616a00565b60405180910390a260006110d2614181565b905060006110e383600501546141ea565b905060005b60108110156119a457600086826010811061112c577f4e487b7100000000000000000000000000000000000000000000000000000000600052603260045260246000fd5b60200201602081019061113f9190616329565b61ffff1690506000858360108110611180577f4e487b7100000000000000000000000000000000000000000000000000000000600052603260045260246000fd5b601091828204019190066002029054906101000a900461ffff1661ffff169050808214156111af575050611992565b818684601081106111e9577f4e487b7100000000000000000000000000000000000000000000000000000000600052603260045260246000fd5b601091828204019190066002026101000a81548161ffff021916908361ffff1602179055508060001415801561127557506006805482908110611255577f4e487b7100000000000000000000000000000000000000000000000000000000600052603260045260246000fd5b90600052602060002090600b0201600a0160089054906101000a900460ff165b1561133c57611287308a83600161422b565b61129385826001614701565b604080518281526001602082015273ffffffffffffffffffffffffffffffffffffffff871691309183917fc3d58168c5ae7397731d063d5bbf3d657854427343f4c083240f7aacaa2d0f62910160405180910390a480893073ffffffffffffffffffffffffffffffffffffffff167f4b287e36a0531da8ccee303de127c778302f48d8fc9569b1fe1dcb9d64465c6d600160405161133391815260200190565b60405180910390a45b811561198f576000806006018381548110611380577f4e487b7100000000000000000000000000000000000000000000000000000000600052603260045260246000fd5b90600052602060002090600b0201905080600a0160069054906101000a900461ffff1661ffff16851015611436576040517f08c379a000000000000000000000000000000000000000000000000000000000815260206004820152602860248201527f4974656d7346616365743a205452206c6576656c206c6f776572207468616e2060448201527f6d696e4c6576656c00000000000000000000000000000000000000000000000060648201526084016103d7565b600a8101546901000000000000000000900460ff16156114d8576040517f08c379a000000000000000000000000000000000000000000000000000000000815260206004820152602d60248201527f4974656d7346616365743a204f6e6c792065717569707061626c65732063616e60448201527f206265206571756970707065640000000000000000000000000000000000000060648201526084016103d7565b806004018460108110611514577f4e487b7100000000000000000000000000000000000000000000000000000000600052603260045260246000fd5b602091828204019190069054906101000a900460ff16151560011515146115bd576040517f08c379a000000000000000000000000000000000000000000000000000000000815260206004820152603060248201527f4974656d7346616365743a2045717569707061626c652063616e27742062652060448201527f657175697070656420696e20736c6f740000000000000000000000000000000060648201526084016103d7565b6000808260050180548060200260200160405190810160405280929190818152602001828054801561162c57602002820191906000526020600020906000905b825461010083900a900460ff168152602060019283018181049485019490930390920291018084116115fd5790505b5050505050905060008151111561176857600989015473ffffffffffffffffffffffffffffffffffffffff16600090815260016020526040812054905b82518110156116d8578281815181106116ab577f4e487b7100000000000000000000000000000000000000000000000000000000600052603260045260246000fd5b602002602001015160ff168214156116c657600193506116d8565b806116d081616d41565b915050611669565b5082611766576040517f08c379a000000000000000000000000000000000000000000000000000000000815260206004820152603860248201527f4974656d7346616365743a2045717569707061626c652063616e27742062652060448201527f7573656420666f72207468697320636f6c6c61746572616c000000000000000060648201526084016103d7565b505b50503060009081526003602090815260408083208d84528252808320868452909152902054600160048614156117b757846117a960c08d0160a08e01616329565b61ffff1614156117b7575060025b60058614156117df57846117d160a08d0160808e01616329565b61ffff1614156117df575060025b8082101561198b5773ffffffffffffffffffffffffffffffffffffffff88166000908152600960209081526040808320888452909152902054816118238285616c22565b10156118b1576040517f08c379a000000000000000000000000000000000000000000000000000000000815260206004820152602960248201527f4974656d7346616365743a2045717569707061626c652069736e277420696e2060448201527f696e76656e746f7279000000000000000000000000000000000000000000000060648201526084016103d7565b60006118bd8484616cb0565b90506118ca8a88836147de565b6118d6308f8984614b6a565b868e3073ffffffffffffffffffffffffffffffffffffffff167fe82810099d182b25e23e895715954d6e7b41867a02e2c693cce68a8f250e43d38460405161192091815260200190565b60405180910390a46040805188815260208101839052309173ffffffffffffffffffffffffffffffffffffffff8d169182917fc3d58168c5ae7397731d063d5bbf3d657854427343f4c083240f7aacaa2d0f62910160405180910390a461198830888c614c65565b50505b5050505b50505b8061199c81616d41565b9150506110e8565b506119ae86614e47565b50505050505050565b6119bf615ea5565b6006548210611a50576040517f08c379a000000000000000000000000000000000000000000000000000000000815260206004820152602360248201527f4974656d7346616365743a204974656d207479706520646f65736e277420657860448201527f697374000000000000000000000000000000000000000000000000000000000060648201526084016103d7565b6006805483908110611a8b577f4e487b7100000000000000000000000000000000000000000000000000000000600052603260045260246000fd5b90600052602060002090600b020160405180610240016040529081600082018054611ab590616cf3565b80601f0160208091040260200160405190810160405280929190818152602001828054611ae190616cf3565b8015611b2e5780601f10611b0357610100808354040283529160200191611b2e565b820191906000526020600020905b815481529060010190602001808311611b1157829003601f168201915b50505050508152602001600182018054611b4790616cf3565b80601f0160208091040260200160405190810160405280929190818152602001828054611b7390616cf3565b8015611bc05780601f10611b9557610100808354040283529160200191611bc0565b820191906000526020600020905b815481529060010190602001808311611ba357829003601f168201915b50505050508152602001600282018054611bd990616cf3565b80601f0160208091040260200160405190810160405280929190818152602001828054611c0590616cf3565b8015611c525780601f10611c2757610100808354040283529160200191611c52565b820191906000526020600020905b815481529060010190602001808311611c3557829003601f168201915b50505091835250506040805160c0810191829052602090920191906003840190600690826000855b82829054906101000a900460000b60000b81526020019060010190602082600001049283019260010382029150808411611c7a5750505092845250506040805161020081019182905260209093019291506004840190601090826000855b825461010083900a900460ff161515815260206001928301818104948501949093039092029101808411611cd85790505050505050815260200160058201805480602002602001604051908101604052809291908181526020018280548015611d7e57602002820191906000526020600020906000905b825461010083900a900460ff16815260206001928301818104948501949093039092029101808411611d4f5790505b50505091835250506040805160808082018352600685015460ff808216845261010080830482166020868101919091526201000084048316868801526301000000909304821660608087019190915292870194909452600787015494860194909452600886015490850152600985015490840152600a9093015463ffffffff80821660a08501526401000000008204831660c08501526501000000000082048316151560e085015261ffff66010000000000008304169484019490945268010000000000000000810482161515610120840152690100000000000000000081049091166101408301526a01000000000000000000008104600190810b810b900b6101608301526c0100000000000000000000000090049091166101809091015292915050565b611eac615f75565b600754808310611f3e576040517f08c379a000000000000000000000000000000000000000000000000000000000815260206004820152602960248201527f4974656d7346616365743a2045717569707061626c652073657420646f65732060448201527f6e6f74206578697374000000000000000000000000000000000000000000000060648201526084016103d7565b6007805484908110611f79577f4e487b7100000000000000000000000000000000000000000000000000000000600052603260045260246000fd5b9060005260206000209060040201604051806080016040529081600082018054611fa290616cf3565b80601f0160208091040260200160405190810160405280929190818152602001828054611fce90616cf3565b801561201b5780601f10611ff05761010080835404028352916020019161201b565b820191906000526020600020905b815481529060010190602001808311611ffe57829003601f168201915b505050505081526020016001820180548060200260200160405190810160405280929190818152602001828054801561209157602002820191906000526020600020906000905b825461010083900a900460ff168152602060019283018181049485019490930390920291018084116120625790505b505050505081526020016002820180548060200260200160405190810160405280929190818152602001828054801561211157602002820191906000526020600020906000905b82829054906101000a900461ffff1661ffff16815260200190600201906020826001010492830192600103820291508084116120d85790505b50505091835250506040805160a0810191829052602090920191906003840190600590826000855b82829054906101000a900460000b60000b81526020019060010190602082600001049283019260010382029150808411612139579050505050505081525050915050919050565b73ffffffffffffffffffffffffffffffffffffffff81166000908152600a60205260409020546060908067ffffffffffffffff8111156121e9577f4e487b7100000000000000000000000000000000000000000000000000000000600052604160045260246000fd5b60405190808252806020026020018201604052801561222e57816020015b60408051808201909152600080825260208201528152602001906001900390816122075790505b50915060005b8181101561237b5773ffffffffffffffffffffffffffffffffffffffff84166000908152600a6020526040812080548390811061229a577f4e487b7100000000000000000000000000000000000000000000000000000000600052603260045260246000fd5b600091825260208083209091015473ffffffffffffffffffffffffffffffffffffffff88168352600982526040808420828552909252912054855191925090859084908110612312577f4e487b7100000000000000000000000000000000000000000000000000000000600052603260045260246000fd5b602002602001015160200181815250508084838151811061235c577f4e487b7100000000000000000000000000000000000000000000000000000000600052603260045260246000fd5b602090810291909101015152508061237381616d41565b915050612234565b5050919050565b6060816127e757600680546040805160208084028201810190925282815292919060009084015b828210156127dc57838290600052602060002090600b0201604051806102400160405290816000820180546123dd90616cf3565b80601f016020809104026020016040519081016040528092919081815260200182805461240990616cf3565b80156124565780601f1061242b57610100808354040283529160200191612456565b820191906000526020600020905b81548152906001019060200180831161243957829003601f168201915b5050505050815260200160018201805461246f90616cf3565b80601f016020809104026020016040519081016040528092919081815260200182805461249b90616cf3565b80156124e85780601f106124bd576101008083540402835291602001916124e8565b820191906000526020600020905b8154815290600101906020018083116124cb57829003601f168201915b5050505050815260200160028201805461250190616cf3565b80601f016020809104026020016040519081016040528092919081815260200182805461252d90616cf3565b801561257a5780601f1061254f5761010080835404028352916020019161257a565b820191906000526020600020905b81548152906001019060200180831161255d57829003601f168201915b50505091835250506040805160c0810191829052602090920191906003840190600690826000855b82829054906101000a900460000b60000b815260200190600101906020826000010492830192600103820291508084116125a25750505092845250506040805161020081019182905260209093019291506004840190601090826000855b825461010083900a900460ff16151581526020600192830181810494850194909303909202910180841161260057905050505050508152602001600582018054806020026020016040519081016040528092919081815260200182805480156126a657602002820191906000526020600020906000905b825461010083900a900460ff168152602060019283018181049485019490930390920291018084116126775790505b50505091835250506040805160808082018352600685015460ff808216845261010080830482166020868101919091526201000084048316868801526301000000909304821660608087019190915283880195909552600788015495870195909552600887015493860193909352600986015491850191909152600a9094015463ffffffff80821660a08601526401000000008204831660c08601526501000000000082048316151560e086015261ffff66010000000000008304169385019390935268010000000000000000810482161515610120850152690100000000000000000081049091166101408401526a01000000000000000000008104600190810b810b810b6101608501526c0100000000000000000000000090910490911661018090920191909152918352920191016123a9565b505050509050612d55565b8167ffffffffffffffff811115612827577f4e487b7100000000000000000000000000000000000000000000000000000000600052604160045260246000fd5b60405190808252806020026020018201604052801561286057816020015b61284d615ea5565b8152602001906001900390816128455790505b50905060005b82811015612d535760068484838181106128a9577f4e487b7100000000000000000000000000000000000000000000000000000000600052603260045260246000fd5b90506020020135815481106128e7577f4e487b7100000000000000000000000000000000000000000000000000000000600052603260045260246000fd5b90600052602060002090600b02016040518061024001604052908160008201805461291190616cf3565b80601f016020809104026020016040519081016040528092919081815260200182805461293d90616cf3565b801561298a5780601f1061295f5761010080835404028352916020019161298a565b820191906000526020600020905b81548152906001019060200180831161296d57829003601f168201915b505050505081526020016001820180546129a390616cf3565b80601f01602080910402602001604051908101604052809291908181526020018280546129cf90616cf3565b8015612a1c5780601f106129f157610100808354040283529160200191612a1c565b820191906000526020600020905b8154815290600101906020018083116129ff57829003601f168201915b50505050508152602001600282018054612a3590616cf3565b80601f0160208091040260200160405190810160405280929190818152602001828054612a6190616cf3565b8015612aae5780601f10612a8357610100808354040283529160200191612aae565b820191906000526020600020905b815481529060010190602001808311612a9157829003601f168201915b50505091835250506040805160c0810191829052602090920191906003840190600690826000855b82829054906101000a900460000b60000b81526020019060010190602082600001049283019260010382029150808411612ad65750505092845250506040805161020081019182905260209093019291506004840190601090826000855b825461010083900a900460ff161515815260206001928301818104948501949093039092029101808411612b345790505050505050815260200160058201805480602002602001604051908101604052809291908181526020018280548015612bda57602002820191906000526020600020906000905b825461010083900a900460ff16815260206001928301818104948501949093039092029101808411612bab5790505b50505091835250506040805160808082018352600685015460ff808216845261010080830482166020868101919091526201000084048316868801526301000000909304821660608087019190915292870194909452600787015494860194909452600886015490850152600985015490840152600a9093015463ffffffff80821660a08501526401000000008204831660c08501526501000000000082048316151560e085015261ffff66010000000000008304169484019490945268010000000000000000810482161515610120840152690100000000000000000081049091166101408301526a01000000000000000000008104600190810b810b900b6101608301526c010000000000000000000000009004909116610180909101528251839083908110612d35577f4e487b7100000000000000000000000000000000000000000000000000000000600052603260045260246000fd5b60200260200101819052508080612d4b90616d41565b915050612866565b505b92915050565b6060612d678383614faf565b9392505050565b6000858152600d60205260409020600b015485907a010000000000000000000000000000000000000000000000000000900460ff1615612e30576040517f08c379a000000000000000000000000000000000000000000000000000000000815260206004820152603460248201527f4c696241707053746f726167653a204f6e6c792063616c6c61626c65206f6e2060448201527f756e6c6f636b656420746f6b656e6174786f727300000000000000000000000060648201526084016103d7565b6000868152600d60205260409020600b0154869073ffffffffffffffffffffffffffffffffffffffff16612e62614181565b73ffffffffffffffffffffffffffffffffffffffff1614612f05576040517f08c379a000000000000000000000000000000000000000000000000000000000815260206004820152603b60248201527f4c696241707053746f726167653a204f6e6c7920746f6b656e6174786f72206f60448201527f776e65722063616e2063616c6c20746869732066756e6374696f6e000000000060648201526084016103d7565b848314612f94576040517f08c379a000000000000000000000000000000000000000000000000000000000815260206004820152603160248201527f4974656d7346616365743a205f6974656d496473206c656e67746820213d205f60448201527f7175616e746974696573206c656e67746800000000000000000000000000000060648201526084016103d7565b6000878152600d60205260409020600b015474010000000000000000000000000000000000000000900460ff1660031461302a576040517f08c379a000000000000000000000000000000000000000000000000000000000815260206004820181905260248201527f4c6962546f6b656e6174786f723a204f6e6c792076616c696420666f7220414760448201526064016103d7565b6000613034614181565b905060005b8681101561382857600088888381811061307c577f4e487b7100000000000000000000000000000000000000000000000000000000600052603260045260246000fd5b90506020020135905060008787848181106130c0577f4e487b7100000000000000000000000000000000000000000000000000000000600052603260045260246000fd5b9050602002013590506000806006018381548110613107577f4e487b7100000000000000000000000000000000000000000000000000000000600052603260045260246000fd5b90600052602060002090600b02016040518061024001604052908160008201805461313190616cf3565b80601f016020809104026020016040519081016040528092919081815260200182805461315d90616cf3565b80156131aa5780601f1061317f576101008083540402835291602001916131aa565b820191906000526020600020905b81548152906001019060200180831161318d57829003601f168201915b505050505081526020016001820180546131c390616cf3565b80601f01602080910402602001604051908101604052809291908181526020018280546131ef90616cf3565b801561323c5780601f106132115761010080835404028352916020019161323c565b820191906000526020600020905b81548152906001019060200180831161321f57829003601f168201915b5050505050815260200160028201805461325590616cf3565b80601f016020809104026020016040519081016040528092919081815260200182805461328190616cf3565b80156132ce5780601f106132a3576101008083540402835291602001916132ce565b820191906000526020600020905b8154815290600101906020018083116132b157829003601f168201915b50505091835250506040805160c0810191829052602090920191906003840190600690826000855b82829054906101000a900460000b60000b815260200190600101906020826000010492830192600103820291508084116132f65750505092845250506040805161020081019182905260209093019291506004840190601090826000855b825461010083900a900460ff16151581526020600192830181810494850194909303909202910180841161335457905050505050508152602001600582018054806020026020016040519081016040528092919081815260200182805480156133fa57602002820191906000526020600020906000905b825461010083900a900460ff168152602060019283018181049485019490930390920291018084116133cb5790505b50505091835250506040805160808082018352600685015460ff808216845261010080830482166020868101919091526201000084048316868801526301000000909304821660608087019190915292870194909452600787015494860194909452600886015490850152600985015490840152600a9093015463ffffffff80821660a08501526401000000008204831660c08501526501000000000082048316151560e085015261ffff660100000000000083041694840194909452680100000000000000008104821615156101208401526901000000000000000000810482166101408401526a01000000000000000000008104600190810b810b900b6101608401526c010000000000000000000000009004909216610180909101526101e0820151919250166002146135b2576040517f08c379a000000000000000000000000000000000000000000000000000000000815260206004820152602160248201527f4974656d7346616365743a204974656d2069736e277420636f6e73756d61626c60448201527f650000000000000000000000000000000000000000000000000000000000000060648201526084016103d7565b6135bd8584846147de565b600081610200015160010b13156136165760008c8152600d60205260408120600801546102008301516135f490859060010b616c73565b6135fe9190616c22565b60008e8152600d6020526040902060080155506136a2565b600081610200015160010b12156136a25760008261363b83610200015160010b615668565b6136459190616c73565b60008e8152600d602052604090206008015490915081101561368d5760008d8152600d602052604081206008018054839290613682908490616cb0565b909155506136a09050565b60008d8152600d60205260408120600801555b505b6000805b600681101561371457826060015181600681106136ec577f4e487b7100000000000000000000000000000000000000000000000000000000600052603260045260246000fd5b602002015160000b156137025760019150613714565b8061370c81616d41565b9150506136a6565b50801561378e5760008d8152600d602052604090206009810180547fffff0000000000ffffffffffffffffffffffffffffffffffffffffffffffffff167901000000000000000000000000000000000000000000000000004264ffffffffff1602179055606083015161378c91600101906006615fa2565b505b5061022081015163ffffffff16156137e75760008c8152600d60205260408120600501546102208301516137c990859063ffffffff16616c73565b6137d39190616c22565b60008e8152600d6020526040902060050155505b8181610120018181516137fa9190616cb0565b9052506138068c614e47565b50613812308487614c65565b505050808061382090616d41565b915050613039565b50877fca6e8d05db81d475410e91783892397c1513d9e22b1b4dc905efd1856a8d1c258888888860405161385f9493929190616b73565b60405180910390a2600073ffffffffffffffffffffffffffffffffffffffff168173ffffffffffffffffffffffffffffffffffffffff168273ffffffffffffffffffffffffffffffffffffffff167f4a39dc06d4c0dbc64b70af90fd698a233a518aa5d07e595d983b8c0526c8f7fb8a8a8a8a6040516138e29493929190616b73565b60405180910390a45050505050505050565b6138fc616033565b6000828152600d602052604080822081516102008101928390529290916010918390855b82829054906101000a900461ffff1661ffff1681526020019060020190602082600101049283019260010382029150808411613920575094979650505050505050565b73ffffffffffffffffffffffffffffffffffffffff81166000908152600a60205260409020546060908067ffffffffffffffff8111156139cc577f4e487b7100000000000000000000000000000000000000000000000000000000600052604160045260246000fd5b604051908082528060200260200182016040528015613a0557816020015b6139f2616052565b8152602001906001900390816139ea5790505b50915060005b8181101561237b5773ffffffffffffffffffffffffffffffffffffffff84166000908152600a60205260408120805483908110613a71577f4e487b7100000000000000000000000000000000000000000000000000000000600052603260045260246000fd5b600091825260208083209091015473ffffffffffffffffffffffffffffffffffffffff88168352600982526040808420828552909252912054855191925090859084908110613ae9577f4e487b7100000000000000000000000000000000000000000000000000000000600052603260045260246000fd5b6020026020010151600001818152505080848381518110613b33577f4e487b7100000000000000000000000000000000000000000000000000000000600052603260045260246000fd5b60209081029190910181015101526006805482908110613b7c577f4e487b7100000000000000000000000000000000000000000000000000000000600052603260045260246000fd5b90600052602060002090600b020160405180610240016040529081600082018054613ba690616cf3565b80601f0160208091040260200160405190810160405280929190818152602001828054613bd290616cf3565b8015613c1f5780601f10613bf457610100808354040283529160200191613c1f565b820191906000526020600020905b815481529060010190602001808311613c0257829003601f168201915b50505050508152602001600182018054613c3890616cf3565b80601f0160208091040260200160405190810160405280929190818152602001828054613c6490616cf3565b8015613cb15780601f10613c8657610100808354040283529160200191613cb1565b820191906000526020600020905b815481529060010190602001808311613c9457829003601f168201915b50505050508152602001600282018054613cca90616cf3565b80601f0160208091040260200160405190810160405280929190818152602001828054613cf690616cf3565b8015613d435780601f10613d1857610100808354040283529160200191613d43565b820191906000526020600020905b815481529060010190602001808311613d2657829003601f168201915b50505091835250506040805160c0810191829052602090920191906003840190600690826000855b82829054906101000a900460000b60000b81526020019060010190602082600001049283019260010382029150808411613d6b5750505092845250506040805161020081019182905260209093019291506004840190601090826000855b825461010083900a900460ff161515815260206001928301818104948501949093039092029101808411613dc95790505050505050815260200160058201805480602002602001604051908101604052809291908181526020018280548015613e6f57602002820191906000526020600020906000905b825461010083900a900460ff16815260206001928301818104948501949093039092029101808411613e405790505b50505091835250506040805160808082018352600685015460ff808216845261010080830482166020868101919091526201000084048316868801526301000000909304821660608087019190915292870194909452600787015494860194909452600886015490850152600985015490840152600a9093015463ffffffff80821660a08501526401000000008204831660c08501526501000000000082048316151560e085015261ffff66010000000000008304169484019490945268010000000000000000810482161515610120840152690100000000000000000081049091166101408301526a01000000000000000000008104600190810b810b900b6101608301526c010000000000000000000000009004909116610180909101528451859084908110613fca577f4e487b7100000000000000000000000000000000000000000000000000000000600052603260045260246000fd5b602002602001015160400181905250508080613fe590616d41565b915050613a0b565b6060808261401d578360405160200161400691906167ba565b604051602081830303815290604052915050612d55565b8260005b811561403557600101600a82049150614021565b8067ffffffffffffffff811115614075577f4e487b7100000000000000000000000000000000000000000000000000000000600052604160045260246000fd5b6040519080825280601f01601f19166020018201604052801561409f576020820181803683370190505b5092508491507fffffffffffffffffffffffffffffffffffffffffffffffffffffffffffffffff81015b821561415357600a830660300160f81b84828060019003935081518110614119577f4e487b7100000000000000000000000000000000000000000000000000000000600052603260045260246000fd5b60200101907effffffffffffffffffffffffffffffffffffffffffffffffffffffffffffff1916908160001a905350600a830492506140c9565b505050838160405160200161416992919061678b565b60405160208183030381529060405291505092915050565b6000333014156141e557600080368080601f01602080910402602001604051908101604052809392919081815260200183838082843760009201919091525050505036015173ffffffffffffffffffffffffffffffffffffffff169150610a4d9050565b503390565b600062077a428211156141ff5750606361047a565b600a61421461420f846002616c73565b615684565b61421e9190616c3a565b9050610477816001616c22565b73ffffffffffffffffffffffffffffffffffffffff841660009081526003602090815260408083208684528252808320858452909152812054808311156142f4576040517f08c379a000000000000000000000000000000000000000000000000000000000815260206004820152602960248201527f4974656d733a20446f65736e277420686176652074686174206d616e7920746f60448201527f207472616e73666572000000000000000000000000000000000000000000000060648201526084016103d7565b6142fe8382616cb0565b73ffffffffffffffffffffffffffffffffffffffff871660009081526003840160209081526040808320898452825280832088845290915290208190559050806146005773ffffffffffffffffffffffffffffffffffffffff861660009081526005830160209081526040808320888452825280832087845290915281205461438990600190616cb0565b73ffffffffffffffffffffffffffffffffffffffff8816600090815260048501602090815260408083208a8452909152812054919250906143cc90600190616cb0565b90508082146145115773ffffffffffffffffffffffffffffffffffffffff8816600090815260048501602090815260408083208a84529091528120805483908110614440577f4e487b7100000000000000000000000000000000000000000000000000000000600052603260045260246000fd5b600091825260208083209091015473ffffffffffffffffffffffffffffffffffffffff8c16835260048801825260408084208c85529092529120805491925061ffff831691859081106144bc577f4e487b7100000000000000000000000000000000000000000000000000000000600052603260045260246000fd5b6000918252602090912001556144d3836001616c22565b73ffffffffffffffffffffffffffffffffffffffff8a16600090815260058701602090815260408083208c8452825280832094835293905291909120555b73ffffffffffffffffffffffffffffffffffffffff8816600090815260048501602090815260408083208a84529091529020805480614579577f4e487b7100000000000000000000000000000000000000000000000000000000600052603160045260246000fd5b6000828152602080822083017fffffffffffffffffffffffffffffffffffffffffffffffffffffffffffffffff90810183905590920190925573ffffffffffffffffffffffffffffffffffffffff8a1680835260058701825260408084208b855283528084208a8552909252908220919091553014156145fd576145fd87876156dd565b50505b73ffffffffffffffffffffffffffffffffffffffff8616301480156146255750806001145b156146f9576000858152600d830160205260409020805468010000000000000000900461ffff168514801561466c575080546a0100000000000000000000900461ffff1685145b156119ae576040517f08c379a000000000000000000000000000000000000000000000000000000000815260206004820152602960248201527f4c69624974656d733a2043616e277420686f6c642031206974656d20696e206260448201527f6f74682068616e6473000000000000000000000000000000000000000000000060648201526084016103d7565b505050505050565b73ffffffffffffffffffffffffffffffffffffffff83166000908152600960209081526040808320858452909152812080548391908390614743908490616c22565b909155505073ffffffffffffffffffffffffffffffffffffffff84166000908152600b8201602090815260408083208684529091529020546147d85773ffffffffffffffffffffffffffffffffffffffff84166000818152600a830160209081526040808320805460018101825581855283852061ffff8a169101559383529254600b85018252838320878452909152919020555b50505050565b73ffffffffffffffffffffffffffffffffffffffff831660009081526009602090815260408083208584529091528120548083111561489f576040517f08c379a000000000000000000000000000000000000000000000000000000000815260206004820152602c60248201527f4c69624974656d733a20446f65736e277420686176652074686174206d616e7960448201527f20746f207472616e73666572000000000000000000000000000000000000000060648201526084016103d7565b6148a98382616cb0565b73ffffffffffffffffffffffffffffffffffffffff8616600090815260098401602090815260408083208884529091529020819055905080614b635773ffffffffffffffffffffffffffffffffffffffff85166000908152600b83016020908152604080832087845290915281205461492490600190616cb0565b73ffffffffffffffffffffffffffffffffffffffff87166000908152600a850160205260408120549192509061495c90600190616cb0565b9050808214614a9d5773ffffffffffffffffffffffffffffffffffffffff87166000908152600a8501602052604081208054839081106149c5577f4e487b7100000000000000000000000000000000000000000000000000000000600052603260045260246000fd5b906000526020600020015490508061ffff1685600a0160008a73ffffffffffffffffffffffffffffffffffffffff1673ffffffffffffffffffffffffffffffffffffffff1681526020019081526020016000208481548110614a50577f4e487b7100000000000000000000000000000000000000000000000000000000600052603260045260246000fd5b600091825260209091200155614a67836001616c22565b73ffffffffffffffffffffffffffffffffffffffff89166000908152600b87016020908152604080832094835293905291909120555b73ffffffffffffffffffffffffffffffffffffffff87166000908152600a850160205260409020805480614afa577f4e487b7100000000000000000000000000000000000000000000000000000000600052603160045260246000fd5b6000828152602080822083017fffffffffffffffffffffffffffffffffffffffffffffffffffffffffffffffff90810183905590920190925573ffffffffffffffffffffffffffffffffffffffff89168252600b86018152604080832089845290915281205550505b5050505050565b73ffffffffffffffffffffffffffffffffffffffff841660009081526003602090815260408083208684528252808320858452909152812080548391908390614bb4908490616c22565b909155505073ffffffffffffffffffffffffffffffffffffffff8516600090815260058201602090815260408083208784528252808320868452909152902054614b635773ffffffffffffffffffffffffffffffffffffffff8516600081815260048301602090815260408083208884528252808320805460018101825581855283852061ffff8a169101555493835260058501825280832088845282528083208784529091529020555050505050565b73ffffffffffffffffffffffffffffffffffffffff8381166000908152602f60209081526040808320868452825280832093851683529290529081205480614cae575050610824565b6000818152602a83016020526040902060078101541580614cde5750600a81015460ff6101009091041615156001145b80614cf25750600a81015460ff1615156001145b15614cff57505050610824565b60058101548015614e1c576002820154600183015460038401546040517efdd58e00000000000000000000000000000000000000000000000000000000815273ffffffffffffffffffffffffffffffffffffffff9283166004820152602481019190915291169062fdd58e9060440160206040518083038186803b158015614d8657600080fd5b505afa158015614d9a573d6000803e3d6000fd5b505050506040513d601f19601f82011682018060405250810190614dbe919061635b565b90508160050154811015614e1c57600582018190556006820154604080518381526020810192909252429082015283907f9a1e053d28c2efc6add1e4a5d1647a99e883b256a54f9ef4a0abf8fcba643a559060600160405180910390a25b806119ae5760018201546119ae90849073ffffffffffffffffffffffffffffffffffffffff166157f2565b6000818152600d60205260408120600b015481907501000000000000000000000000000000000000000000900464ffffffffff16614e878161a8c0616c22565b421015614e995760009250505061047a565b6000848152600d8301602052604081206008015490614eb88342616cb0565b90506000614ec96201518083616c3a565b9050600081841115614ee257614edf8285616cb0565b90505b60006028821015614ef1575060025b614efc816001616c22565b614f069083616c22565b60008a8152600d8901602090815260409182902060088101849055600b0180547fffffffffffff0000000000ffffffffffffffffffffffffffffffffffffffffff1675010000000000000000000000000000000000000000004264ffffffffff160217905590518281529193508a917ff3f2fac7dfcfc2599069f339a0bc0000b8703a06978ef764ef463a98dfdba5ff910160405180910390a250600198975050505050505050565b73ffffffffffffffffffffffffffffffffffffffff82166000908152600460209081526040808320848452909152812054606091908067ffffffffffffffff811115615024577f4e487b7100000000000000000000000000000000000000000000000000000000600052604160045260246000fd5b60405190808252806020026020018201604052801561505d57816020015b61504a616052565b8152602001906001900390816150425790505b50925060005b8181101561565f5773ffffffffffffffffffffffffffffffffffffffff86166000908152600484016020908152604080832088845290915281208054839081106150d6577f4e487b7100000000000000000000000000000000000000000000000000000000600052603260045260246000fd5b600091825260208083209091015473ffffffffffffffffffffffffffffffffffffffff8a16835260038701825260408084208a85528352808420828552909252912054865191925090829087908590811061515a577f4e487b7100000000000000000000000000000000000000000000000000000000600052603260045260246000fd5b60200260200101516020018181525050808684815181106151a4577f4e487b7100000000000000000000000000000000000000000000000000000000600052603260045260246000fd5b602090810291909101015152600685018054839081106151ed577f4e487b7100000000000000000000000000000000000000000000000000000000600052603260045260246000fd5b90600052602060002090600b02016040518061024001604052908160008201805461521790616cf3565b80601f016020809104026020016040519081016040528092919081815260200182805461524390616cf3565b80156152905780601f1061526557610100808354040283529160200191615290565b820191906000526020600020905b81548152906001019060200180831161527357829003601f168201915b505050505081526020016001820180546152a990616cf3565b80601f01602080910402602001604051908101604052809291908181526020018280546152d590616cf3565b80156153225780601f106152f757610100808354040283529160200191615322565b820191906000526020600020905b81548152906001019060200180831161530557829003601f168201915b5050505050815260200160028201805461533b90616cf3565b80601f016020809104026020016040519081016040528092919081815260200182805461536790616cf3565b80156153b45780601f10615389576101008083540402835291602001916153b4565b820191906000526020600020905b81548152906001019060200180831161539757829003601f168201915b50505091835250506040805160c0810191829052602090920191906003840190600690826000855b82829054906101000a900460000b60000b815260200190600101906020826000010492830192600103820291508084116153dc5750505092845250506040805161020081019182905260209093019291506004840190601090826000855b825461010083900a900460ff16151581526020600192830181810494850194909303909202910180841161543a57905050505050508152602001600582018054806020026020016040519081016040528092919081815260200182805480156154e057602002820191906000526020600020906000905b825461010083900a900460ff168152602060019283018181049485019490930390920291018084116154b15790505b50505091835250506040805160808082018352600685015460ff808216845261010080830482166020868101919091526201000084048316868801526301000000909304821660608087019190915292870194909452600787015494860194909452600886015490850152600985015490840152600a9093015463ffffffff80821660a08501526401000000008204831660c08501526501000000000082048316151560e085015261ffff66010000000000008304169484019490945268010000000000000000810482161515610120840152690100000000000000000081049091166101408301526a01000000000000000000008104600190810b810b900b6101608301526c01000000000000000000000000900490911661018090910152865187908590811061563b577f4e487b7100000000000000000000000000000000000000000000000000000000600052603260045260246000fd5b6020026020010151604001819052505050808061565790616d41565b915050615063565b50505092915050565b6000808212156156805761567b82616d7a565b610477565b5090565b6000806002615694846001616c22565b61569e9190616c3a565b90508291505b818110156156d7579050806002816156bc8186616c3a565b6156c69190616c22565b6156d09190616c3a565b90506156a4565b50919050565b6000805b60108110156147d8576000848152600d83016020526040902083908260108110615734577f4e487b7100000000000000000000000000000000000000000000000000000000600052603260045260246000fd5b601091828204019190066002029054906101000a900461ffff1661ffff1614156157e0576040517f08c379a000000000000000000000000000000000000000000000000000000000815260206004820152603260248201527f4974656d733a2043616e6e6f74207472616e736665722045515549505041424c60448201527f452074686174206973206571756970706564000000000000000000000000000060648201526084016103d7565b806157ea81616d41565b9150506156e1565b604080517f6c697374656400000000000000000000000000000000000000000000000000008152602c600682015281519081900360260190206000848152602091909152908120600181015461584957505061598a565b6000848152602a830160205260409020600a81015460ff610100909104161515600114806158805750600a81015460ff1615156001145b1561588d5750505061598a565b600181015473ffffffffffffffffffffffffffffffffffffffff858116911614615913576040517f08c379a000000000000000000000000000000000000000000000000000000000815260206004820152601d60248201527f4d61726b6574706c6163653a206f776e6572206e6f742073656c6c657200000060448201526064016103d7565b600a810180547fffffffffffffffffffffffffffffffffffffffffffffffffffffffffffff00ff1661010017905560048101546040805191825243602083015286917fc1ee70d4dadc0ea8041f31f81b07d0ac9374b6bf41956d9cae562e672f3f8a91910160405180910390a2614b63858561598e565b5050565b604080517f6c697374656400000000000000000000000000000000000000000000000000008152602c60068201528151908190036026019020600084815260209190915290812060018101546159e557505061598a565b80548015615a4857600083602c01604051615a23907f6c69737465640000000000000000000000000000000000000000000000000000815260060190565b9081526040805160209281900383019020600085815292529020600284810154910155505b60028201548015615aa957600084602c01604051615a89907f6c69737465640000000000000000000000000000000000000000000000000000815260060190565b908152604080516020928190038301902060008581529252902084549055505b6000868152602a85016020908152604080832060048101548452602b88019092529182902091517f6c697374656400000000000000000000000000000000000000000000000000008152909188916006019081526020016040518091039020541415615b6457600284015460048201546000908152602b870160205260409081902090517f6c697374656400000000000000000000000000000000000000000000000000008152600601908152604051908190036020019020555b60006001850181905580855560028501556040517f6c697374656400000000000000000000000000000000000000000000000000008152602e860190600601908152604080516020928190038301902060008a815292529020805490945092508215615c2557600085602e01604051615c00907f6c69737465640000000000000000000000000000000000000000000000000000815260060190565b9081526040805160209281900383019020600087815292529020600286810154910155505b600284015491508115615c8857600085602e01604051615c68907f6c69737465640000000000000000000000000000000000000000000000000000815260060190565b908152604080516020928190038301902060008681529252902085549055505b506000868152602a85016020908152604080832073ffffffffffffffffffffffffffffffffffffffff89168452602d88018352818420600482015485529092529182902091517f6c697374656400000000000000000000000000000000000000000000000000008152909188916006019081526020016040518091039020541415615d8357600284015473ffffffffffffffffffffffffffffffffffffffff87166000908152602d870160209081526040808320600486015484529091529081902090517f6c697374656400000000000000000000000000000000000000000000000000008152600601908152604051908190036020019020555b600060018501819055808555600280860182905582015473ffffffffffffffffffffffffffffffffffffffff9081168252602f870160209081526040808420600386015485528252808420928a1684529181528183209290925560048301548151908152429281019290925288917f276ac39b0f98215592b4487434c1618e3e527c57ca2f471ac93eb4eab1694091910160405180910390a250505050505050565b828054615e3190616cf3565b90600052602060002090601f016020900481019282615e535760008555615e99565b82601f10615e6c57805160ff1916838001178555615e99565b82800160010185558215615e99579182015b82811115615e99578251825591602001919060010190615e7e565b50615680929150616073565b604051806102400160405280606081526020016060815260200160608152602001615ece616088565b8152602001615edb616033565b815260200160608152602001615f1e6040518060800160405280600060ff168152602001600060ff168152602001600060ff168152602001600060ff1681525090565b815260006020820181905260408201819052606082018190526080820181905260a0820181905260c0820181905260e082018190526101008201819052610120820181905261014082018190526101609091015290565b6040518060800160405280606081526020016060815260200160608152602001615f9d6160a6565b905290565b600183019183908215615e995791602002820160005b83821115615ff957835183826101000a81548160ff021916908360000b60ff1602179055509260200192600101602081600001049283019260010302615fb8565b80156160265782816101000a81549060ff0219169055600101602081600001049283019260010302615ff9565b5050615680929150616073565b6040518061020001604052806010906020820280368337509192915050565b60405180606001604052806000815260200160008152602001615f9d615ea5565b5b808211156156805760008155600101616074565b6040518060c001604052806006906020820280368337509192915050565b6040518060a001604052806005906020820280368337509192915050565b803573ffffffffffffffffffffffffffffffffffffffff8116811461047a57600080fd5b60008083601f8401126160f9578081fd5b50813567ffffffffffffffff811115616110578182fd5b602083019150836020808302850101111561612a57600080fd5b9250929050565b803561ffff8116811461047a57600080fd5b600060208284031215616154578081fd5b612d67826160c4565b6000806040838503121561616f578081fd5b616178836160c4565b946020939093013593505050565b60008060006060848603121561619a578081fd5b6161a3846160c4565b95602085013595506040909401359392505050565b600080600080604085870312156161cd578081fd5b843567ffffffffffffffff808211156161e4578283fd5b6161f0888389016160e8565b90965094506020870135915080821115616208578283fd5b50616215878288016160e8565b95989497509550505050565b60008060208385031215616233578182fd5b823567ffffffffffffffff811115616249578283fd5b616255858286016160e8565b90969095509350505050565b600060208284031215616272578081fd5b813567ffffffffffffffff80821115616289578283fd5b818401915084601f83011261629c578283fd5b8135818111156162ae576162ae616ddf565b604051601f82017fffffffffffffffffffffffffffffffffffffffffffffffffffffffffffffffe0908116603f011681019083821181831017156162f4576162f4616ddf565b8160405282815287602084870101111561630c578586fd5b826020860160208301379182016020019490945295945050505050565b60006020828403121561633a578081fd5b612d6782616131565b600060208284031215616354578081fd5b5035919050565b60006020828403121561636c578081fd5b5051919050565b600080610220808486031215616387578283fd5b83359250848185011115616399578182fd5b506020830190509250929050565b6000806000806000606086880312156163be578081fd5b85359450602086013567ffffffffffffffff808211156163dc578283fd5b6163e889838a016160e8565b90965094506040880135915080821115616400578283fd5b5061640d888289016160e8565b969995985093965092949392505050565b8060005b60108110156147d85781511515845260209384019390910190600101616422565b806000805b6006811015614b63578251820b855260209485019490920191600101616448565b8060005b60108110156147d85761ffff61648283616131565b168452602093840193919091019060010161646d565b60008284527f07ffffffffffffffffffffffffffffffffffffffffffffffffffffffffffffff8311156164c9578081fd5b6020830280836020870137939093016020019283525090919050565b6000815180845260208085019450808401835b8381101561651757815160ff16875295820195908201906001016164f8565b509495945050505050565b6000815180845261653a816020860160208601616cc7565b601f017fffffffffffffffffffffffffffffffffffffffffffffffffffffffffffffffe0169290920160200192915050565b6000610100825181855261658282860182616522565b9150506020808401518583038287015261659c83826164e5565b6040868101518883039189019190915280518083529084019450859250908301905b808310156165e257845161ffff1682529383019360019290920191908301906165be565b5060608601519350606087019150845b6005811015616611578451860b835293830193918301916001016165f2565b509695505050505050565b6000610520825181855261663282860182616522565b9150506020830151848203602086015261664c8282616522565b915050604083015184820360408601526166668282616522565b915050606083015161667b6060860182616443565b5060808301516101206166908187018361641e565b60a085015191508583036103208701526166aa83836164e5565b60c0860151805160ff9081166103408a0152602082015181166103608a0152604082015181166103808a015260609091015181166103a089015260e08701516103c08901526101008701516103e08901529186015161040088015261014086015163ffffffff908116610420890152610160870151831661044089015261018087015115156104608901526101a087015161ffff166104808901526101c087015115156104a08901526101e08701519092166104c088015261020086015160010b6104e0880152610220909501511661050090950194909452509092915050565b6000835161679d818460208801616cc7565b8351908301906167b1818360208801616cc7565b01949350505050565b600082516167cc818460208701616cc7565b7f3000000000000000000000000000000000000000000000000000000000000000920191825250600101919050565b6000602080830181845280855180835260408601915060408482028701019250838701855b8281101561686c577fffffffffffffffffffffffffffffffffffffffffffffffffffffffffffffffc088860301845261685a85835161656c565b94509285019290850190600101616820565b5092979650505050505050565b602080825282518282018190526000919060409081850190868401855b828110156168bb57815180518552860151868501529284019290850190600101616896565b5091979650505050505050565b60208082528251828201819052600091906040908185019080840286018301878501865b83811015616954578883037fffffffffffffffffffffffffffffffffffffffffffffffffffffffffffffffc0018552815180518452878101518885015286015160608785018190526169408186018361661c565b9689019694505050908601906001016168ec565b509098975050505050505050565b6000602080830181845280855180835260408601915060408482028701019250838701855b8281101561686c577fffffffffffffffffffffffffffffffffffffffffffffffffffffffffffffffc08886030184526169c185835161661c565b94509285019290850190600101616987565b6102008101818360005b601081101561565f57815161ffff168352602092830192909101906001016169dd565b6104008101818460005b601080600f830110616a1c5750616b62565b825461ffff80821686526020616a3b8188018385871c1661ffff169052565b60409350616a528488018385841c1661ffff169052565b506060616a69818801838560301c1661ffff169052565b6080616a7e8189018486881c1661ffff169052565b60a09450616a96858901848660501c1661ffff169052565b60c0616aab818a018587861c1661ffff169052565b60e09250616ac3838a01858760701c1661ffff169052565b61ffff85831c8516166101008a0152616ae86101208a01858760901c1661ffff169052565b61ffff85871c8516166101408a0152616b0d6101608a01858760b01c1661ffff169052565b61ffff85821c8516166101808a01525050616b346101a08801838560d01c1661ffff169052565b82901c1661ffff166101c086015260f01c6101e0850152506102009092019160019190910190601001616a0a565b505050612d67610200830184616469565b600060408252616b87604083018688616498565b8281036020840152616b9a818587616498565b979650505050505050565b6020808252825182820181905260009190848201906040850190845b81811015616bdd57835183529284019291840191600101616bc1565b50909695505050505050565b600060208252612d676020830184616522565b600060208252612d67602083018461656c565b600060208252612d67602083018461661c565b60008219821115616c3557616c35616db0565b500190565b600082616c6e577f4e487b710000000000000000000000000000000000000000000000000000000081526012600452602481fd5b500490565b6000817fffffffffffffffffffffffffffffffffffffffffffffffffffffffffffffffff0483118215151615616cab57616cab616db0565b500290565b600082821015616cc257616cc2616db0565b500390565b60005b83811015616ce2578181015183820152602001616cca565b838111156147d85750506000910152565b600281046001821680616d0757607f821691505b602082108114156156d7577f4e487b7100000000000000000000000000000000000000000000000000000000600052602260045260246000fd5b60007fffffffffffffffffffffffffffffffffffffffffffffffffffffffffffffffff821415616d7357616d73616db0565b5060010190565b60007f8000000000000000000000000000000000000000000000000000000000000000821415616dac57616dac616db0565b0390565b7f4e487b7100000000000000000000000000000000000000000000000000000000600052601160045260246000fd5b7f4e487b7100000000000000000000000000000000000000000000000000000000600052604160045260246000fdfea164736f6c6343000802000a",
  "linkReferences": {},
  "deployedLinkReferences": {}
}