{
  "_format": "hh-sol-artifact-1",
  "contractName": "ItemsTransferFacet",
  "sourceName": "contracts/Tokenatxor/facets/ItemsTransferFacet.sol",
  "abi": [
    {
      "inputs": [
        {
          "internalType": "address",
          "name": "_from",
          "type": "address"
        },
        {
          "internalType": "address",
          "name": "_toContract",
          "type": "address"
        },
        {
          "internalType": "uint256[]",
          "name": "_toTokenIds",
          "type": "uint256[]"
        },
        {
          "internalType": "uint256[][]",
          "name": "_ids",
          "type": "uint256[][]"
        },
        {
          "internalType": "uint256[][]",
          "name": "_values",
          "type": "uint256[][]"
        }
      ],
      "name": "batchBatchTransferToParent",
      "outputs": [],
      "stateMutability": "nonpayable",
      "type": "function"
    },
    {
      "inputs": [
        {
          "internalType": "address",
          "name": "_fromContract",
          "type": "address"
        },
        {
          "internalType": "uint256",
          "name": "_fromTokenId",
          "type": "uint256"
        },
        {
          "internalType": "address",
          "name": "_toContract",
          "type": "address"
        },
        {
          "internalType": "uint256",
          "name": "_toTokenId",
          "type": "uint256"
        },
        {
          "internalType": "uint256[]",
          "name": "_ids",
          "type": "uint256[]"
        },
        {
          "internalType": "uint256[]",
          "name": "_values",
          "type": "uint256[]"
        }
      ],
      "name": "batchTransferAsChild",
      "outputs": [],
      "stateMutability": "nonpayable",
      "type": "function"
    },
    {
      "inputs": [
        {
          "internalType": "address",
          "name": "_fromContract",
          "type": "address"
        },
        {
          "internalType": "uint256",
          "name": "_fromTokenId",
          "type": "uint256"
        },
        {
          "internalType": "address",
          "name": "_to",
          "type": "address"
        },
        {
          "internalType": "uint256[]",
          "name": "_ids",
          "type": "uint256[]"
        },
        {
          "internalType": "uint256[]",
          "name": "_values",
          "type": "uint256[]"
        }
      ],
      "name": "batchTransferFromParent",
      "outputs": [],
      "stateMutability": "nonpayable",
      "type": "function"
    },
    {
      "inputs": [
        {
          "internalType": "address",
          "name": "_from",
          "type": "address"
        },
        {
          "internalType": "address",
          "name": "_toContract",
          "type": "address"
        },
        {
          "internalType": "uint256",
          "name": "_toTokenId",
          "type": "uint256"
        },
        {
          "internalType": "uint256[]",
          "name": "_ids",
          "type": "uint256[]"
        },
        {
          "internalType": "uint256[]",
          "name": "_values",
          "type": "uint256[]"
        }
      ],
      "name": "batchTransferToParent",
      "outputs": [],
      "stateMutability": "nonpayable",
      "type": "function"
    },
    {
      "inputs": [
        {
          "internalType": "address",
          "name": "_to",
          "type": "address"
        },
        {
          "internalType": "uint256[]",
          "name": "_itemIds",
          "type": "uint256[]"
        },
        {
          "internalType": "uint256[]",
          "name": "_values",
          "type": "uint256[]"
        }
      ],
      "name": "extractItemsFromDiamond",
      "outputs": [],
      "stateMutability": "nonpayable",
      "type": "function"
    },
    {
      "inputs": [
        {
          "internalType": "address",
          "name": "_to",
          "type": "address"
        },
        {
          "internalType": "uint256",
          "name": "_tokenId",
          "type": "uint256"
        },
        {
          "internalType": "uint256[]",
          "name": "_itemIds",
          "type": "uint256[]"
        },
        {
          "internalType": "uint256[]",
          "name": "_values",
          "type": "uint256[]"
        }
      ],
      "name": "extractItemsFromSacrificedTokenatxor",
      "outputs": [],
      "stateMutability": "nonpayable",
      "type": "function"
    },
    {
      "inputs": [
        {
          "internalType": "address",
          "name": "",
          "type": "address"
        },
        {
          "internalType": "address",
          "name": "",
          "type": "address"
        },
        {
          "internalType": "uint256[]",
          "name": "",
          "type": "uint256[]"
        },
        {
          "internalType": "uint256[]",
          "name": "",
          "type": "uint256[]"
        },
        {
          "internalType": "bytes",
          "name": "",
          "type": "bytes"
        }
      ],
      "name": "onERC1155BatchReceived",
      "outputs": [
        {
          "internalType": "bytes4",
          "name": "",
          "type": "bytes4"
        }
      ],
      "stateMutability": "pure",
      "type": "function"
    },
    {
      "inputs": [
        {
          "internalType": "address",
          "name": "",
          "type": "address"
        },
        {
          "internalType": "address",
          "name": "",
          "type": "address"
        },
        {
          "internalType": "uint256",
          "name": "",
          "type": "uint256"
        },
        {
          "internalType": "uint256",
          "name": "",
          "type": "uint256"
        },
        {
          "internalType": "bytes",
          "name": "",
          "type": "bytes"
        }
      ],
      "name": "onERC1155Received",
      "outputs": [
        {
          "internalType": "bytes4",
          "name": "",
          "type": "bytes4"
        }
      ],
      "stateMutability": "pure",
      "type": "function"
    },
    {
      "inputs": [
        {
          "internalType": "address",
          "name": "_from",
          "type": "address"
        },
        {
          "internalType": "address",
          "name": "_to",
          "type": "address"
        },
        {
          "internalType": "uint256[]",
          "name": "_ids",
          "type": "uint256[]"
        },
        {
          "internalType": "uint256[]",
          "name": "_values",
          "type": "uint256[]"
        },
        {
          "internalType": "bytes",
          "name": "_data",
          "type": "bytes"
        }
      ],
      "name": "safeBatchTransferFrom",
      "outputs": [],
      "stateMutability": "nonpayable",
      "type": "function"
    },
    {
      "inputs": [
        {
          "internalType": "address",
          "name": "_from",
          "type": "address"
        },
        {
          "internalType": "address",
          "name": "_to",
          "type": "address"
        },
        {
          "internalType": "uint256",
          "name": "_id",
          "type": "uint256"
        },
        {
          "internalType": "uint256",
          "name": "_value",
          "type": "uint256"
        },
        {
          "internalType": "bytes",
          "name": "_data",
          "type": "bytes"
        }
      ],
      "name": "safeTransferFrom",
      "outputs": [],
      "stateMutability": "nonpayable",
      "type": "function"
    },
    {
      "inputs": [
        {
          "internalType": "address",
          "name": "_fromContract",
          "type": "address"
        },
        {
          "internalType": "uint256",
          "name": "_fromTokenId",
          "type": "uint256"
        },
        {
          "internalType": "address",
          "name": "_toContract",
          "type": "address"
        },
        {
          "internalType": "uint256",
          "name": "_toTokenId",
          "type": "uint256"
        },
        {
          "internalType": "uint256",
          "name": "_id",
          "type": "uint256"
        },
        {
          "internalType": "uint256",
          "name": "_value",
          "type": "uint256"
        }
      ],
      "name": "transferAsChild",
      "outputs": [],
      "stateMutability": "nonpayable",
      "type": "function"
    },
    {
      "inputs": [
        {
          "internalType": "address",
          "name": "_fromContract",
          "type": "address"
        },
        {
          "internalType": "uint256",
          "name": "_fromTokenId",
          "type": "uint256"
        },
        {
          "internalType": "address",
          "name": "_to",
          "type": "address"
        },
        {
          "internalType": "uint256",
          "name": "_id",
          "type": "uint256"
        },
        {
          "internalType": "uint256",
          "name": "_value",
          "type": "uint256"
        }
      ],
      "name": "transferFromParent",
      "outputs": [],
      "stateMutability": "nonpayable",
      "type": "function"
    },
    {
      "inputs": [
        {
          "internalType": "address",
          "name": "_from",
          "type": "address"
        },
        {
          "internalType": "address",
          "name": "_toContract",
          "type": "address"
        },
        {
          "internalType": "uint256",
          "name": "_toTokenId",
          "type": "uint256"
        },
        {
          "internalType": "uint256",
          "name": "_id",
          "type": "uint256"
        },
        {
          "internalType": "uint256",
          "name": "_value",
          "type": "uint256"
        }
      ],
      "name": "transferToParent",
      "outputs": [],
      "stateMutability": "nonpayable",
      "type": "function"
    }
  ],
  "bytecode": "0x608060405234801561001057600080fd5b506149ca806100206000396000f3fe608060405234801561001057600080fd5b50600436106100df5760003560e01c80636c71c40b1161008c578063bc197c8111610066578063bc197c8114610191578063ea69aae214610201578063f23a6e6114610214578063f242432a1461024d576100df565b80636c71c40b146101585780636f5fd0141461016b578063af62ba501461017e576100df565b80633c3b3c00116100bd5780633c3b3c001461011f5780634d11f02e146101325780636a8926e814610145576100df565b8063271a6c59146100e45780632eb2c2d6146100f95780633936b8d21461010c575b600080fd5b6100f76100f2366004614565565b610260565b005b6100f76101073660046141d8565b6104fd565b6100f761011a366004614395565b6108d0565b6100f761012d36600461411d565b610b6a565b6100f76101403660046145b6565b610e45565b6100f76101533660046144e1565b611131565b6100f7610166366004614465565b611554565b6100f76101793660046143e5565b611923565b6100f761018c366004614611565b611b2f565b6101cc61019f3660046141d8565b7fbc197c810000000000000000000000000000000000000000000000000000000098975050505050505050565b6040517fffffffff00000000000000000000000000000000000000000000000000000000909116815260200160405180910390f35b6100f761020f36600461427f565b611e2f565b6101cc61022236600461431b565b7ff23a6e61000000000000000000000000000000000000000000000000000000009695505050505050565b6100f761025b36600461431b565b6121fc565b73ffffffffffffffffffffffffffffffffffffffff8316610308576040517f08c379a000000000000000000000000000000000000000000000000000000000815260206004820152602a60248201527f4974656d735472616e736665723a2043616e2774207472616e7366657220746f60448201527f203020616464726573730000000000000000000000000000000000000000000060648201526084015b60405180910390fd5b6006805483908110610343577f4e487b7100000000000000000000000000000000000000000000000000000000600052603260045260246000fd5b90600052602060002090600b0201600a0160089054906101000a900460ff166103ee576040517f08c379a000000000000000000000000000000000000000000000000000000000815260206004820152602960248201527f4974656d735472616e736665723a204974656d2063616e6e6f7420626520747260448201527f616e73666572726564000000000000000000000000000000000000000000000060648201526084016102ff565b60006103f86124b8565b9050610405818787612522565b61041186868585612a02565b61041c848484612ed8565b8373ffffffffffffffffffffffffffffffffffffffff168673ffffffffffffffffffffffffffffffffffffffff168273ffffffffffffffffffffffffffffffffffffffff167fc3d58168c5ae7397731d063d5bbf3d657854427343f4c083240f7aacaa2d0f62868660405161049b929190918252602082015260400190565b60405180910390a482858773ffffffffffffffffffffffffffffffffffffffff167f4b287e36a0531da8ccee303de127c778302f48d8fc9569b1fe1dcb9d64465c6d856040516104ed91815260200190565b60405180910390a4505050505050565b73ffffffffffffffffffffffffffffffffffffffff87166105a0576040517f08c379a000000000000000000000000000000000000000000000000000000000815260206004820152602a60248201527f4974656d735472616e736665723a2043616e2774207472616e7366657220746f60448201527f203020616464726573730000000000000000000000000000000000000000000060648201526084016102ff565b84831461062f576040517f08c379a000000000000000000000000000000000000000000000000000000000815260206004820152602c60248201527f4974656d735472616e736665723a20696473206e6f742073616d65206c656e6760448201527f74682061732076616c756573000000000000000000000000000000000000000060648201526084016102ff565b60006106396124b8565b90508873ffffffffffffffffffffffffffffffffffffffff168173ffffffffffffffffffffffffffffffffffffffff1614806106a7575073ffffffffffffffffffffffffffffffffffffffff808a1660009081526012602090815260408083209385168352929052205460ff165b610733576040517f08c379a000000000000000000000000000000000000000000000000000000000815260206004820152603560248201527f4974656d735472616e736665723a204e6f74206f776e657220616e64206e6f7460448201527f20617070726f76656420746f207472616e73666572000000000000000000000060648201526084016102ff565b60005b868110156107fc576000888883818110610779577f4e487b7100000000000000000000000000000000000000000000000000000000600052603260045260246000fd5b90506020020135905060008787848181106107bd577f4e487b7100000000000000000000000000000000000000000000000000000000600052603260045260246000fd5b9050602002013590506107d18c8383612fb4565b6107dc8b8383612ed8565b6107e730838e613340565b505080806107f490614930565b915050610736565b508773ffffffffffffffffffffffffffffffffffffffff168973ffffffffffffffffffffffffffffffffffffffff168273ffffffffffffffffffffffffffffffffffffffff167f4a39dc06d4c0dbc64b70af90fd698a233a518aa5d07e595d983b8c0526c8f7fb8a8a8a8a6040516108779493929190614875565b60405180910390a46108c5818a8a8a8a8a8a8a8a8080601f01602080910402602001604051908101604052809392919081815260200183838082843760009201919091525061352292505050565b505050505050505050565b73ffffffffffffffffffffffffffffffffffffffff8416610973576040517f08c379a000000000000000000000000000000000000000000000000000000000815260206004820152602a60248201527f4974656d735472616e736665723a2043616e2774207472616e7366657220746f60448201527f203020616464726573730000000000000000000000000000000000000000000060648201526084016102ff565b600061097d6124b8565b90508573ffffffffffffffffffffffffffffffffffffffff168173ffffffffffffffffffffffffffffffffffffffff1614806109eb575073ffffffffffffffffffffffffffffffffffffffff80871660009081526012602090815260408083209385168352929052205460ff165b610a77576040517f08c379a000000000000000000000000000000000000000000000000000000000815260206004820152603560248201527f4974656d735472616e736665723a204e6f74206f776e657220616e64206e6f7460448201527f20617070726f76656420746f207472616e73666572000000000000000000000060648201526084016102ff565b610a82868484612fb4565b610a8e858585856136aa565b610a99308488613340565b8473ffffffffffffffffffffffffffffffffffffffff168673ffffffffffffffffffffffffffffffffffffffff168273ffffffffffffffffffffffffffffffffffffffff167fc3d58168c5ae7397731d063d5bbf3d657854427343f4c083240f7aacaa2d0f628686604051610b18929190918252602082015260400190565b60405180910390a482848673ffffffffffffffffffffffffffffffffffffffff167fe82810099d182b25e23e895715954d6e7b41867a02e2c693cce68a8f250e43d3856040516104ed91815260200190565b73ffffffffffffffffffffffffffffffffffffffff8716610c0d576040517f08c379a000000000000000000000000000000000000000000000000000000000815260206004820152602a60248201527f4974656d735472616e736665723a2043616e2774207472616e7366657220746f60448201527f203020616464726573730000000000000000000000000000000000000000000060648201526084016102ff565b848314610c9c576040517f08c379a000000000000000000000000000000000000000000000000000000000815260206004820152603b60248201527f4974656d735472616e736665723a206964732e6c656e677468206e6f7420746860448201527f652073616d6520617320746f546f6b656e496473206c656e677468000000000060648201526084016102ff565b828114610d2b576040517f08c379a000000000000000000000000000000000000000000000000000000000815260206004820152603760248201527f4974656d735472616e736665723a206964732e6c656e677468206e6f7420746860448201527f652073616d652061732076616c7565732e6c656e67746800000000000000000060648201526084016102ff565b60005b858110156108c5576000878783818110610d71577f4e487b7100000000000000000000000000000000000000000000000000000000600052603260045260246000fd5b905060200201359050366000878785818110610db6577f4e487b7100000000000000000000000000000000000000000000000000000000600052603260045260246000fd5b9050602002810190610dc8919061489c565b91509150366000878787818110610e08577f4e487b7100000000000000000000000000000000000000000000000000000000600052603260045260246000fd5b9050602002810190610e1a919061489c565b91509150610e2d8e8e8787878787611e2f565b50505050508080610e3d90614930565b915050610d2e565b73ffffffffffffffffffffffffffffffffffffffff8416610ee8576040517f08c379a000000000000000000000000000000000000000000000000000000000815260206004820152602a60248201527f4974656d735472616e736665723a2043616e2774207472616e7366657220746f60448201527f203020616464726573730000000000000000000000000000000000000000000060648201526084016102ff565b6006805483908110610f23577f4e487b7100000000000000000000000000000000000000000000000000000000600052603260045260246000fd5b90600052602060002090600b0201600a0160089054906101000a900460ff16610fce576040517f08c379a000000000000000000000000000000000000000000000000000000000815260206004820152602960248201527f4974656d735472616e736665723a204974656d2063616e6e6f7420626520747260448201527f616e73666572726564000000000000000000000000000000000000000000000060648201526084016102ff565b6000610fd86124b8565b9050610fe5818888612522565b610ff187878585612a02565b610ffd858585856136aa565b8473ffffffffffffffffffffffffffffffffffffffff168773ffffffffffffffffffffffffffffffffffffffff168273ffffffffffffffffffffffffffffffffffffffff167fc3d58168c5ae7397731d063d5bbf3d657854427343f4c083240f7aacaa2d0f62868660405161107c929190918252602082015260400190565b60405180910390a482868873ffffffffffffffffffffffffffffffffffffffff167f4b287e36a0531da8ccee303de127c778302f48d8fc9569b1fe1dcb9d64465c6d856040516110ce91815260200190565b60405180910390a482848673ffffffffffffffffffffffffffffffffffffffff167fe82810099d182b25e23e895715954d6e7b41867a02e2c693cce68a8f250e43d38560405161112091815260200190565b60405180910390a450505050505050565b8281146111c0576040517f08c379a000000000000000000000000000000000000000000000000000000000815260206004820152603760248201527f4974656d735472616e736665723a206964732e6c656e677468206e6f7420746860448201527f652073616d652061732076616c7565732e6c656e67746800000000000000000060648201526084016102ff565b73ffffffffffffffffffffffffffffffffffffffff8616611263576040517f08c379a000000000000000000000000000000000000000000000000000000000815260206004820152602a60248201527f4974656d735472616e736665723a2043616e2774207472616e7366657220746f60448201527f203020616464726573730000000000000000000000000000000000000000000060648201526084016102ff565b600061126d6124b8565b905061127a818a8a612522565b60005b848110156114c65760008686838181106112c0577f4e487b7100000000000000000000000000000000000000000000000000000000600052603260045260246000fd5b9050602002013590506000858584818110611304577f4e487b7100000000000000000000000000000000000000000000000000000000600052603260045260246000fd5b9050602002013590506000600601828154811061134a577f4e487b7100000000000000000000000000000000000000000000000000000000600052603260045260246000fd5b90600052602060002090600b0201600a0160089054906101000a900460ff166113f5576040517f08c379a000000000000000000000000000000000000000000000000000000000815260206004820152602960248201527f4974656d735472616e736665723a204974656d2063616e6e6f7420626520747260448201527f616e73666572726564000000000000000000000000000000000000000000000060648201526084016102ff565b6114018c8c8484612a02565b61140d8a8a84846136aa565b818b8d73ffffffffffffffffffffffffffffffffffffffff167f4b287e36a0531da8ccee303de127c778302f48d8fc9569b1fe1dcb9d64465c6d8460405161145791815260200190565b60405180910390a481898b73ffffffffffffffffffffffffffffffffffffffff167fe82810099d182b25e23e895715954d6e7b41867a02e2c693cce68a8f250e43d3846040516114a991815260200190565b60405180910390a4505080806114be90614930565b91505061127d565b508673ffffffffffffffffffffffffffffffffffffffff168973ffffffffffffffffffffffffffffffffffffffff168273ffffffffffffffffffffffffffffffffffffffff167f4a39dc06d4c0dbc64b70af90fd698a233a518aa5d07e595d983b8c0526c8f7fb888888886040516115419493929190614875565b60405180910390a4505050505050505050565b8281146115e3576040517f08c379a000000000000000000000000000000000000000000000000000000000815260206004820152603760248201527f4974656d735472616e736665723a206964732e6c656e677468206e6f7420746860448201527f652073616d652061732076616c7565732e6c656e67746800000000000000000060648201526084016102ff565b73ffffffffffffffffffffffffffffffffffffffff8516611686576040517f08c379a000000000000000000000000000000000000000000000000000000000815260206004820152602a60248201527f4974656d735472616e736665723a2043616e2774207472616e7366657220746f60448201527f203020616464726573730000000000000000000000000000000000000000000060648201526084016102ff565b60006116906124b8565b905061169d818989612522565b60005b848110156118965760008686838181106116e3577f4e487b7100000000000000000000000000000000000000000000000000000000600052603260045260246000fd5b9050602002013590506000858584818110611727577f4e487b7100000000000000000000000000000000000000000000000000000000600052603260045260246000fd5b9050602002013590506000600601828154811061176d577f4e487b7100000000000000000000000000000000000000000000000000000000600052603260045260246000fd5b90600052602060002090600b0201600a0160089054906101000a900460ff16611818576040517f08c379a000000000000000000000000000000000000000000000000000000000815260206004820152602960248201527f4974656d735472616e736665723a204974656d2063616e6e6f7420626520747260448201527f616e73666572726564000000000000000000000000000000000000000000000060648201526084016102ff565b6118248b8b8484612a02565b61182f898383612ed8565b818a8c73ffffffffffffffffffffffffffffffffffffffff167f4b287e36a0531da8ccee303de127c778302f48d8fc9569b1fe1dcb9d64465c6d8460405161187991815260200190565b60405180910390a45050808061188e90614930565b9150506116a0565b508573ffffffffffffffffffffffffffffffffffffffff168873ffffffffffffffffffffffffffffffffffffffff168273ffffffffffffffffffffffffffffffffffffffff167f4a39dc06d4c0dbc64b70af90fd698a233a518aa5d07e595d983b8c0526c8f7fb888888886040516119119493929190614875565b60405180910390a45050505050505050565b600061192d6124b8565b73ffffffffffffffffffffffffffffffffffffffff81166000908152603b602052604090205490915060ff1615156001146119ea576040517f08c379a000000000000000000000000000000000000000000000000000000000815260206004820152603960248201527f4c696241707053746f726167653a206f6e6c7920616e204974656d4d616e616760448201527f65722063616e2063616c6c20746869732066756e6374696f6e0000000000000060648201526084016102ff565b60006119f46124b8565b905060005b85811015611ab4576000878783818110611a3c577f4e487b7100000000000000000000000000000000000000000000000000000000600052603260045260246000fd5b9050602002013590506000868684818110611a80577f4e487b7100000000000000000000000000000000000000000000000000000000600052603260045260246000fd5b905060200201359050611a94308383612fb4565b611a9f8a8383612ed8565b50508080611aac90614930565b9150506119f9565b508073ffffffffffffffffffffffffffffffffffffffff163073ffffffffffffffffffffffffffffffffffffffff168273ffffffffffffffffffffffffffffffffffffffff167f4a39dc06d4c0dbc64b70af90fd698a233a518aa5d07e595d983b8c0526c8f7fb898989896040516111209493929190614875565b6000611b396124b8565b73ffffffffffffffffffffffffffffffffffffffff81166000908152603b602052604090205490915060ff161515600114611bf6576040517f08c379a000000000000000000000000000000000000000000000000000000000815260206004820152603960248201527f4c696241707053746f726167653a206f6e6c7920616e204974656d4d616e616760448201527f65722063616e2063616c6c20746869732066756e6374696f6e0000000000000060648201526084016102ff565b6000611c006124b8565b6000888152600d60205260409020600b8101549192509073ffffffffffffffffffffffffffffffffffffffff1615611cba576040517f08c379a000000000000000000000000000000000000000000000000000000000815260206004820152602260248201527f546f6b656e6174786f7220686173206e6f74206265656e20736163726966696360448201527f656400000000000000000000000000000000000000000000000000000000000060648201526084016102ff565b60005b86811015611e23576000888883818110611d00577f4e487b7100000000000000000000000000000000000000000000000000000000600052603260045260246000fd5b9050602002013590506000878784818110611d44577f4e487b7100000000000000000000000000000000000000000000000000000000600052603260045260246000fd5b905060200201359050611d59308c8484612a02565b611d648c8383612ed8565b818b8673ffffffffffffffffffffffffffffffffffffffff167f4b287e36a0531da8ccee303de127c778302f48d8fc9569b1fe1dcb9d64465c6d84604051611dae91815260200190565b60405180910390a4604080518381526020810183905273ffffffffffffffffffffffffffffffffffffffff808f16923092918916917fc3d58168c5ae7397731d063d5bbf3d657854427343f4c083240f7aacaa2d0f62910160405180910390a450508080611e1b90614930565b915050611cbd565b50505050505050505050565b73ffffffffffffffffffffffffffffffffffffffff8616611ed2576040517f08c379a000000000000000000000000000000000000000000000000000000000815260206004820152602a60248201527f4974656d735472616e736665723a2043616e2774207472616e7366657220746f60448201527f203020616464726573730000000000000000000000000000000000000000000060648201526084016102ff565b828114611f61576040517f08c379a000000000000000000000000000000000000000000000000000000000815260206004820152603760248201527f4974656d735472616e736665723a206964732e6c656e677468206e6f7420746860448201527f652073616d652061732076616c7565732e6c656e67746800000000000000000060648201526084016102ff565b6000611f6b6124b8565b90508773ffffffffffffffffffffffffffffffffffffffff168173ffffffffffffffffffffffffffffffffffffffff161480611fd9575073ffffffffffffffffffffffffffffffffffffffff80891660009081526012602090815260408083209385168352929052205460ff165b612065576040517f08c379a000000000000000000000000000000000000000000000000000000000815260206004820152603560248201527f4974656d735472616e736665723a204e6f74206f776e657220616e64206e6f7460448201527f20617070726f76656420746f207472616e73666572000000000000000000000060648201526084016102ff565b60005b848110156121815760008686838181106120ab577f4e487b7100000000000000000000000000000000000000000000000000000000600052603260045260246000fd5b90506020020135905060008585848181106120ef577f4e487b7100000000000000000000000000000000000000000000000000000000600052603260045260246000fd5b9050602002013590506121038b8383612fb4565b61210f8a8a84846136aa565b61211a30838d613340565b81898b73ffffffffffffffffffffffffffffffffffffffff167fe82810099d182b25e23e895715954d6e7b41867a02e2c693cce68a8f250e43d38460405161216491815260200190565b60405180910390a45050808061217990614930565b915050612068565b508673ffffffffffffffffffffffffffffffffffffffff168873ffffffffffffffffffffffffffffffffffffffff168273ffffffffffffffffffffffffffffffffffffffff167f4a39dc06d4c0dbc64b70af90fd698a233a518aa5d07e595d983b8c0526c8f7fb888888886040516119119493929190614875565b73ffffffffffffffffffffffffffffffffffffffff851661229f576040517f08c379a000000000000000000000000000000000000000000000000000000000815260206004820152602a60248201527f4974656d735472616e736665723a2043616e2774207472616e7366657220746f60448201527f203020616464726573730000000000000000000000000000000000000000000060648201526084016102ff565b60006122a96124b8565b90508673ffffffffffffffffffffffffffffffffffffffff168173ffffffffffffffffffffffffffffffffffffffff161480612317575073ffffffffffffffffffffffffffffffffffffffff80881660009081526012602090815260408083209385168352929052205460ff165b80612337575073ffffffffffffffffffffffffffffffffffffffff811630145b6123c3576040517f08c379a000000000000000000000000000000000000000000000000000000000815260206004820152603560248201527f4974656d735472616e736665723a204e6f74206f776e657220616e64206e6f7460448201527f20617070726f76656420746f207472616e73666572000000000000000000000060648201526084016102ff565b6123ce878686612fb4565b6123d9868686612ed8565b6123e4308689613340565b8573ffffffffffffffffffffffffffffffffffffffff168773ffffffffffffffffffffffffffffffffffffffff168273ffffffffffffffffffffffffffffffffffffffff167fc3d58168c5ae7397731d063d5bbf3d657854427343f4c083240f7aacaa2d0f628888604051612463929190918252602082015260400190565b60405180910390a46124af818888888888888080601f0160208091040260200160405190810160405280939291908181526020018383808284376000920191909152506137a592505050565b50505050505050565b60003330141561251c57600080368080601f01602080910402602001604051908101604052809392919081815260200183838082843760009201919091525050505036015173ffffffffffffffffffffffffffffffffffffffff16915061251f9050565b50335b90565b73ffffffffffffffffffffffffffffffffffffffff821630141561272f576000818152600d60205260409020600b015473ffffffffffffffffffffffffffffffffffffffff9081169084168114806125ac575073ffffffffffffffffffffffffffffffffffffffff80821660009081526012602090815260408083209388168352929052205460ff165b806125dd575060008281526013602052604090205473ffffffffffffffffffffffffffffffffffffffff8581169116145b612669576040517f08c379a000000000000000000000000000000000000000000000000000000000815260206004820152603560248201527f4974656d735472616e736665723a204e6f74206f776e657220616e64206e6f7460448201527f20617070726f76656420746f207472616e73666572000000000000000000000060648201526084016102ff565b6000828152600d60205260409020600b01547a010000000000000000000000000000000000000000000000000000900460ff1615612729576040517f08c379a000000000000000000000000000000000000000000000000000000000815260206004820152603460248201527f4974656d735472616e736665723a204f6e6c792063616c6c61626c65206f6e2060448201527f756e6c6f636b656420546f6b656e6174786f727300000000000000000000000060648201526084016102ff565b506129fd565b6040517f6352211e0000000000000000000000000000000000000000000000000000000081526004810182905260009073ffffffffffffffffffffffffffffffffffffffff841690636352211e9060240160206040518083038186803b15801561279857600080fd5b505afa1580156127ac573d6000803e3d6000fd5b505050506040513d601f19601f820116820180604052508101906127d091906140fa565b90508373ffffffffffffffffffffffffffffffffffffffff168173ffffffffffffffffffffffffffffffffffffffff1614806128c257506040517f081812fc0000000000000000000000000000000000000000000000000000000081526004810183905273ffffffffffffffffffffffffffffffffffffffff808616919085169063081812fc9060240160206040518083038186803b15801561287257600080fd5b505afa158015612886573d6000803e3d6000fd5b505050506040513d601f19601f820116820180604052508101906128aa91906140fa565b73ffffffffffffffffffffffffffffffffffffffff16145b8061296f57506040517fe985e9c500000000000000000000000000000000000000000000000000000000815273ffffffffffffffffffffffffffffffffffffffff8281166004830152858116602483015284169063e985e9c59060440160206040518083038186803b15801561293757600080fd5b505afa15801561294b573d6000803e3d6000fd5b505050506040513d601f19601f8201168201806040525081019061296f9190614688565b6129fb576040517f08c379a000000000000000000000000000000000000000000000000000000000815260206004820152603560248201527f4974656d735472616e736665723a204e6f74206f776e657220616e64206e6f7460448201527f20617070726f76656420746f207472616e73666572000000000000000000000060648201526084016102ff565b505b505050565b73ffffffffffffffffffffffffffffffffffffffff84166000908152600360209081526040808320868452825280832085845290915281205480831115612acb576040517f08c379a000000000000000000000000000000000000000000000000000000000815260206004820152602960248201527f4974656d733a20446f65736e277420686176652074686174206d616e7920746f60448201527f207472616e73666572000000000000000000000000000000000000000000000060648201526084016102ff565b612ad58382614919565b73ffffffffffffffffffffffffffffffffffffffff87166000908152600384016020908152604080832089845282528083208884529091529020819055905080612dd75773ffffffffffffffffffffffffffffffffffffffff8616600090815260058301602090815260408083208884528252808320878452909152812054612b6090600190614919565b73ffffffffffffffffffffffffffffffffffffffff8816600090815260048501602090815260408083208a845290915281205491925090612ba390600190614919565b9050808214612ce85773ffffffffffffffffffffffffffffffffffffffff8816600090815260048501602090815260408083208a84529091528120805483908110612c17577f4e487b7100000000000000000000000000000000000000000000000000000000600052603260045260246000fd5b600091825260208083209091015473ffffffffffffffffffffffffffffffffffffffff8c16835260048801825260408084208c85529092529120805491925061ffff83169185908110612c93577f4e487b7100000000000000000000000000000000000000000000000000000000600052603260045260246000fd5b600091825260209091200155612caa836001614901565b73ffffffffffffffffffffffffffffffffffffffff8a16600090815260058701602090815260408083208c8452825280832094835293905291909120555b73ffffffffffffffffffffffffffffffffffffffff8816600090815260048501602090815260408083208a84529091529020805480612d50577f4e487b7100000000000000000000000000000000000000000000000000000000600052603160045260246000fd5b6000828152602080822083017fffffffffffffffffffffffffffffffffffffffffffffffffffffffffffffffff90810183905590920190925573ffffffffffffffffffffffffffffffffffffffff8a1680835260058701825260408084208b855283528084208a855290925290822091909155301415612dd457612dd48787613929565b50505b73ffffffffffffffffffffffffffffffffffffffff861630148015612dfc5750806001145b15612ed0576000858152600d830160205260409020805468010000000000000000900461ffff1685148015612e43575080546a0100000000000000000000900461ffff1685145b156124af576040517f08c379a000000000000000000000000000000000000000000000000000000000815260206004820152602960248201527f4c69624974656d733a2043616e277420686f6c642031206974656d20696e206260448201527f6f74682068616e6473000000000000000000000000000000000000000000000060648201526084016102ff565b505050505050565b73ffffffffffffffffffffffffffffffffffffffff83166000908152600960209081526040808320858452909152812080548391908390612f1a908490614901565b909155505073ffffffffffffffffffffffffffffffffffffffff84166000908152600b8201602090815260408083208684529091529020546129fb5773ffffffffffffffffffffffffffffffffffffffff84166000818152600a830160209081526040808320805460018101825581855283852061ffff8a169101559383529254600b850182528383208784529091529190205550505050565b73ffffffffffffffffffffffffffffffffffffffff8316600090815260096020908152604080832085845290915281205480831115613075576040517f08c379a000000000000000000000000000000000000000000000000000000000815260206004820152602c60248201527f4c69624974656d733a20446f65736e277420686176652074686174206d616e7960448201527f20746f207472616e73666572000000000000000000000000000000000000000060648201526084016102ff565b61307f8382614919565b73ffffffffffffffffffffffffffffffffffffffff86166000908152600984016020908152604080832088845290915290208190559050806133395773ffffffffffffffffffffffffffffffffffffffff85166000908152600b8301602090815260408083208784529091528120546130fa90600190614919565b73ffffffffffffffffffffffffffffffffffffffff87166000908152600a850160205260408120549192509061313290600190614919565b90508082146132735773ffffffffffffffffffffffffffffffffffffffff87166000908152600a85016020526040812080548390811061319b577f4e487b7100000000000000000000000000000000000000000000000000000000600052603260045260246000fd5b906000526020600020015490508061ffff1685600a0160008a73ffffffffffffffffffffffffffffffffffffffff1673ffffffffffffffffffffffffffffffffffffffff1681526020019081526020016000208481548110613226577f4e487b7100000000000000000000000000000000000000000000000000000000600052603260045260246000fd5b60009182526020909120015561323d836001614901565b73ffffffffffffffffffffffffffffffffffffffff89166000908152600b87016020908152604080832094835293905291909120555b73ffffffffffffffffffffffffffffffffffffffff87166000908152600a8501602052604090208054806132d0577f4e487b7100000000000000000000000000000000000000000000000000000000600052603160045260246000fd5b6000828152602080822083017fffffffffffffffffffffffffffffffffffffffffffffffffffffffffffffffff90810183905590920190925573ffffffffffffffffffffffffffffffffffffffff89168252600b86018152604080832089845290915281205550505b5050505050565b73ffffffffffffffffffffffffffffffffffffffff8381166000908152602f602090815260408083208684528252808320938516835292905290812054806133895750506129fd565b6000818152602a830160205260409020600781015415806133b95750600a81015460ff6101009091041615156001145b806133cd5750600a81015460ff1615156001145b156133da575050506129fd565b600581015480156134f7576002820154600183015460038401546040517efdd58e00000000000000000000000000000000000000000000000000000000815273ffffffffffffffffffffffffffffffffffffffff9283166004820152602481019190915291169062fdd58e9060440160206040518083038186803b15801561346157600080fd5b505afa158015613475573d6000803e3d6000fd5b505050506040513d601f19601f8201168201806040525081019061349991906146e8565b905081600501548110156134f757600582018190556006820154604080518381526020810192909252429082015283907f9a1e053d28c2efc6add1e4a5d1647a99e883b256a54f9ef4a0abf8fcba643a559060600160405180910390a25b806124af5760018201546124af90849073ffffffffffffffffffffffffffffffffffffffff16613a3e565b853b80156108c5576040517fbc197c8100000000000000000000000000000000000000000000000000000000815273ffffffffffffffffffffffffffffffffffffffff88169063bc197c8190613588908c908c908b908b908b908b908b906004016147b6565b602060405180830381600087803b1580156135a257600080fd5b505af11580156135b6573d6000803e3d6000fd5b505050506040513d601f19601f820116820180604052508101906135da91906146a8565b7fffffffff00000000000000000000000000000000000000000000000000000000167fbc197c8100000000000000000000000000000000000000000000000000000000146108c5576040517f08c379a000000000000000000000000000000000000000000000000000000000815260206004820152602a60248201527f5765617261626c65733a205472616e736665722072656a65637465642f66616960448201527f6c6564206279205f746f0000000000000000000000000000000000000000000060648201526084016102ff565b73ffffffffffffffffffffffffffffffffffffffff8416600090815260036020908152604080832086845282528083208584529091528120805483919083906136f4908490614901565b909155505073ffffffffffffffffffffffffffffffffffffffff85166000908152600582016020908152604080832087845282528083208684529091529020546133395773ffffffffffffffffffffffffffffffffffffffff8516600081815260048301602090815260408083208884528252808320805460018101825581855283852061ffff8a169101555493835260058501825280832088845282528083208784529091529020555050505050565b833b80156124af576040517ff23a6e6100000000000000000000000000000000000000000000000000000000815273ffffffffffffffffffffffffffffffffffffffff86169063f23a6e6190613807908a908a90899089908990600401614825565b602060405180830381600087803b15801561382157600080fd5b505af1158015613835573d6000803e3d6000fd5b505050506040513d601f19601f8201168201806040525081019061385991906146a8565b7fffffffff00000000000000000000000000000000000000000000000000000000167ff23a6e6100000000000000000000000000000000000000000000000000000000146124af576040517f08c379a000000000000000000000000000000000000000000000000000000000815260206004820152602a60248201527f5765617261626c65733a205472616e736665722072656a65637465642f66616960448201527f6c6564206279205f746f0000000000000000000000000000000000000000000060648201526084016102ff565b6000805b60108110156129fb576000848152600d83016020526040902083908260108110613980577f4e487b7100000000000000000000000000000000000000000000000000000000600052603260045260246000fd5b601091828204019190066002029054906101000a900461ffff1661ffff161415613a2c576040517f08c379a000000000000000000000000000000000000000000000000000000000815260206004820152603260248201527f4974656d733a2043616e6e6f74207472616e736665722045515549505041424c60448201527f452074686174206973206571756970706564000000000000000000000000000060648201526084016102ff565b80613a3681614930565b91505061392d565b604080517f6c697374656400000000000000000000000000000000000000000000000000008152602c6006820152815190819003602601902060008481526020919091529081206001810154613a95575050613bd6565b6000848152602a830160205260409020600a81015460ff61010090910416151560011480613acc5750600a81015460ff1615156001145b15613ad957505050613bd6565b600181015473ffffffffffffffffffffffffffffffffffffffff858116911614613b5f576040517f08c379a000000000000000000000000000000000000000000000000000000000815260206004820152601d60248201527f4d61726b6574706c6163653a206f776e6572206e6f742073656c6c657200000060448201526064016102ff565b600a810180547fffffffffffffffffffffffffffffffffffffffffffffffffffffffffffff00ff1661010017905560048101546040805191825243602083015286917fc1ee70d4dadc0ea8041f31f81b07d0ac9374b6bf41956d9cae562e672f3f8a91910160405180910390a26133398585613bda565b5050565b604080517f6c697374656400000000000000000000000000000000000000000000000000008152602c6006820152815190819003602601902060008481526020919091529081206001810154613c31575050613bd6565b80548015613c9457600083602c01604051613c6f907f6c69737465640000000000000000000000000000000000000000000000000000815260060190565b9081526040805160209281900383019020600085815292529020600284810154910155505b60028201548015613cf557600084602c01604051613cd5907f6c69737465640000000000000000000000000000000000000000000000000000815260060190565b908152604080516020928190038301902060008581529252902084549055505b6000868152602a85016020908152604080832060048101548452602b88019092529182902091517f6c697374656400000000000000000000000000000000000000000000000000008152909188916006019081526020016040518091039020541415613db057600284015460048201546000908152602b870160205260409081902090517f6c697374656400000000000000000000000000000000000000000000000000008152600601908152604051908190036020019020555b60006001850181905580855560028501556040517f6c697374656400000000000000000000000000000000000000000000000000008152602e860190600601908152604080516020928190038301902060008a815292529020805490945092508215613e7157600085602e01604051613e4c907f6c69737465640000000000000000000000000000000000000000000000000000815260060190565b9081526040805160209281900383019020600087815292529020600286810154910155505b600284015491508115613ed457600085602e01604051613eb4907f6c69737465640000000000000000000000000000000000000000000000000000815260060190565b908152604080516020928190038301902060008681529252902085549055505b506000868152602a85016020908152604080832073ffffffffffffffffffffffffffffffffffffffff89168452602d88018352818420600482015485529092529182902091517f6c697374656400000000000000000000000000000000000000000000000000008152909188916006019081526020016040518091039020541415613fcf57600284015473ffffffffffffffffffffffffffffffffffffffff87166000908152602d870160209081526040808320600486015484529091529081902090517f6c697374656400000000000000000000000000000000000000000000000000008152600601908152604051908190036020019020555b600060018501819055808555600280860182905582015473ffffffffffffffffffffffffffffffffffffffff9081168252602f870160209081526040808420600386015485528252808420928a1684529181528183209290925560048301548151908152429281019290925288917f276ac39b0f98215592b4487434c1618e3e527c57ca2f471ac93eb4eab1694091910160405180910390a250505050505050565b60008083601f840112614082578182fd5b50813567ffffffffffffffff811115614099578182fd5b60208301915083602080830285010111156140b357600080fd5b9250929050565b60008083601f8401126140cb578182fd5b50813567ffffffffffffffff8111156140e2578182fd5b6020830191508360208285010111156140b357600080fd5b60006020828403121561410b578081fd5b815161411681614998565b9392505050565b60008060008060008060008060a0898b031215614138578384fd5b883561414381614998565b9750602089013561415381614998565b9650604089013567ffffffffffffffff8082111561416f578586fd5b61417b8c838d01614071565b909850965060608b0135915080821115614193578586fd5b61419f8c838d01614071565b909650945060808b01359150808211156141b7578384fd5b506141c48b828c01614071565b999c989b5096995094979396929594505050565b60008060008060008060008060a0898b0312156141f3578384fd5b88356141fe81614998565b9750602089013561420e81614998565b9650604089013567ffffffffffffffff8082111561422a578586fd5b6142368c838d01614071565b909850965060608b013591508082111561424e578586fd5b61425a8c838d01614071565b909650945060808b0135915080821115614272578384fd5b506141c48b828c016140ba565b600080600080600080600060a0888a031215614299578283fd5b87356142a481614998565b965060208801356142b481614998565b955060408801359450606088013567ffffffffffffffff808211156142d7578485fd5b6142e38b838c01614071565b909650945060808a01359150808211156142fb578384fd5b506143088a828b01614071565b989b979a50959850939692959293505050565b60008060008060008060a08789031215614333578182fd5b863561433e81614998565b9550602087013561434e81614998565b94506040870135935060608701359250608087013567ffffffffffffffff811115614377578283fd5b61438389828a016140ba565b979a9699509497509295939492505050565b600080600080600060a086880312156143ac578081fd5b85356143b781614998565b945060208601356143c781614998565b94979496505050506040830135926060810135926080909101359150565b6000806000806000606086880312156143fc578081fd5b853561440781614998565b9450602086013567ffffffffffffffff80821115614423578283fd5b61442f89838a01614071565b90965094506040880135915080821115614447578283fd5b5061445488828901614071565b969995985093965092949392505050565b600080600080600080600060a0888a03121561447f578081fd5b873561448a81614998565b96506020880135955060408801356144a181614998565b9450606088013567ffffffffffffffff808211156144bd578283fd5b6144c98b838c01614071565b909650945060808a01359150808211156142fb578283fd5b60008060008060008060008060c0898b0312156144fc578182fd5b883561450781614998565b975060208901359650604089013561451e81614998565b955060608901359450608089013567ffffffffffffffff80821115614541578384fd5b61454d8c838d01614071565b909650945060a08b01359150808211156141b7578384fd5b600080600080600060a0868803121561457c578283fd5b853561458781614998565b945060208601359350604086013561459e81614998565b94979396509394606081013594506080013592915050565b60008060008060008060c087890312156145ce578384fd5b86356145d981614998565b95506020870135945060408701356145f081614998565b959894975094956060810135955060808101359460a0909101359350915050565b60008060008060008060808789031215614629578384fd5b863561463481614998565b955060208701359450604087013567ffffffffffffffff80821115614657578586fd5b6146638a838b01614071565b9096509450606089013591508082111561467b578384fd5b5061438389828a01614071565b600060208284031215614699578081fd5b81518015158114614116578182fd5b6000602082840312156146b9578081fd5b81517fffffffff0000000000000000000000000000000000000000000000000000000081168114614116578182fd5b6000602082840312156146f9578081fd5b5051919050565b60008284527f07ffffffffffffffffffffffffffffffffffffffffffffffffffffffffffffff831115614731578081fd5b6020830280836020870137939093016020019283525090919050565b60008151808452815b8181101561477257602081850181015186830182015201614756565b818111156147835782602083870101525b50601f017fffffffffffffffffffffffffffffffffffffffffffffffffffffffffffffffe0169290920160200192915050565b600073ffffffffffffffffffffffffffffffffffffffff808a16835280891660208401525060a060408301526147f060a083018789614700565b8281036060840152614803818688614700565b90508281036080840152614817818561474d565b9a9950505050505050505050565b600073ffffffffffffffffffffffffffffffffffffffff808816835280871660208401525084604083015283606083015260a0608083015261486a60a083018461474d565b979650505050505050565b600060408252614889604083018688614700565b828103602084015261486a818587614700565b60008083357fffffffffffffffffffffffffffffffffffffffffffffffffffffffffffffffe18436030181126148d0578283fd5b83018035915067ffffffffffffffff8211156148ea578283fd5b60209081019250810236038213156140b357600080fd5b6000821982111561491457614914614969565b500190565b60008282101561492b5761492b614969565b500390565b60007fffffffffffffffffffffffffffffffffffffffffffffffffffffffffffffffff82141561496257614962614969565b5060010190565b7f4e487b7100000000000000000000000000000000000000000000000000000000600052601160045260246000fd5b73ffffffffffffffffffffffffffffffffffffffff811681146149ba57600080fd5b5056fea164736f6c6343000802000a",
  "linkReferences": {},
  "deployedLinkReferences": {}
}