{
  "_format": "hh-sol-artifact-1",
  "contractName": "InitDiamond",
  "sourceName": "contracts/Tokenatxor/InitDiamond.sol",
  "abi": [
    {
      "inputs": [
        {
          "components": [
            {
              "internalType": "address",
              "name": "dao",
              "type": "address"
            },
            {
              "internalType": "address",
              "name": "daoTreasury",
              "type": "address"
            },
            {
              "internalType": "address",
              "name": "artists",
              "type": "address"
            },
            {
              "internalType": "address",
              "name": "rarityFarming",
              "type": "address"
            },
            {
              "internalType": "address",
              "name": "tktrContract",
              "type": "address"
            },
            {
              "internalType": "bytes32",
              "name": "chainlinkKeyHash",
              "type": "bytes32"
            },
            {
              "internalType": "uint256",
              "name": "chainlinkFee",
              "type": "uint256"
            },
            {
              "internalType": "address",
              "name": "vrfCoordinator",
              "type": "address"
            },
            {
              "internalType": "address",
              "name": "linkAddress",
              "type": "address"
            },
            {
              "internalType": "address",
              "name": "childChainManager",
              "type": "address"
            },
            {
              "internalType": "string",
              "name": "name",
              "type": "string"
            },
            {
              "internalType": "string",
              "name": "symbol",
              "type": "string"
            }
          ],
          "internalType": "struct InitDiamond.Args",
          "name": "_args",
          "type": "tuple"
        }
      ],
      "name": "init",
      "outputs": [],
      "stateMutability": "nonpayable",
      "type": "function"
    }
  ],
  "bytecode": "0x608060405234801561001057600080fd5b5061082b806100206000396000f3fe608060405234801561001057600080fd5b506004361061002b5760003560e01c8063d66736fe14610030575b600080fd5b61004361003e3660046105c7565b610045565b005b8051601d80547fffffffffffffffffffffffff000000000000000000000000000000000000000090811673ffffffffffffffffffffffffffffffffffffffff93841617909155602080840151601e80548416918516919091179055606084015181548316908416178155604080850151601f8054909416941693909317909155815180830190925260078083527f697066733a2f2f00000000000000000000000000000000000000000000000000929091019182526101069160219161047c565b50610120810151601b80547fffffffffffffffffffffffff00000000000000000000000000000000000000001673ffffffffffffffffffffffffffffffffffffffff909216919091179055604080518082018252601181527f546f6b656e6174786f724469616d6f6e640000000000000000000000000000006020808301919091528251808401909352600283527f5631000000000000000000000000000000000000000000000000000000000000908301526101c291610400565b6022557fc8fcad8db84d3cc18b4c41d551ea0ee66dd599cde068d998e57d5e09332c131f60209081527f699d9daa71b280d05a152715774afa0a81a312594b2d731d6b0b2552b7d6f69f805460017fffffffffffffffffffffffffffffffffffffffffffffffffffffffffffffff0091821681179092557ff97e938d8af42f52387bb74b8b526fda8f184cc2aa534340a8d75a88fbecc77580548216831790557f65d510a5d8f7ef134ec444f7f34ee808c8eeb5177cdfd16be0c40fe1ab43369580548216831790557f7f5828d0000000000000000000000000000000000000000000000000000000006000527f5622121b47b8cd0120c4efe45dd5483242f54a3d49bd7679be565d47694918c3805490911690911790556080820151601a80547fffffffffffffffffffffffff000000000000000000000000000000000000000090811673ffffffffffffffffffffffffffffffffffffffff9384161790915560a084015160255560c0840151602680547fffffffffffffffffffffffffffff0000000000000000000000000000000000001671ffffffffffffffffffffffffffffffffffff90921691909117905560e084015160278054831691841691909117905561010084015160288054909216921691909117905567016345785d8a000060305561014082015180517fc8fcad8db84d3cc18b4c41d551ea0ee66dd599cde068d998e57d5e09332c131c926103e09260179291019061047c565b5061016082015180516103fb9160189160209091019061047c565b505050565b60006040518060800160405280604f81526020016107d0604f913980519060200120838051906020012083805190602001206104394690565b604080516020810195909552840192909252606083015260808201523060a082015260c00160405160208183030381529060405280519060200120905092915050565b8280546104889061074c565b90600052602060002090601f0160209004810192826104aa57600085556104f0565b82601f106104c357805160ff19168380011785556104f0565b828001600101855582156104f0579182015b828111156104f05782518255916020019190600101906104d5565b506104fc929150610500565b5090565b5b808211156104fc5760008155600101610501565b803573ffffffffffffffffffffffffffffffffffffffff8116811461053957600080fd5b919050565b600082601f83011261054e578081fd5b813567ffffffffffffffff811115610568576105686107a0565b61059960207fffffffffffffffffffffffffffffffffffffffffffffffffffffffffffffffe0601f840116016106fd565b8181528460208386010111156105ad578283fd5b816020850160208301379081016020019190915292915050565b6000602082840312156105d8578081fd5b813567ffffffffffffffff808211156105ef578283fd5b8184019150610180808387031215610605578384fd5b61060e816106fd565b905061061983610515565b815261062760208401610515565b602082015261063860408401610515565b604082015261064960608401610515565b606082015261065a60808401610515565b608082015260a083013560a082015260c083013560c082015261067f60e08401610515565b60e0820152610100610692818501610515565b908201526101206106a4848201610515565b9082015261014083810135838111156106bb578586fd5b6106c78882870161053e565b82840152505061016080840135838111156106e0578586fd5b6106ec8882870161053e565b918301919091525095945050505050565b604051601f82017fffffffffffffffffffffffffffffffffffffffffffffffffffffffffffffffe016810167ffffffffffffffff81118282101715610744576107446107a0565b604052919050565b60028104600182168061076057607f821691505b6020821081141561079a577f4e487b7100000000000000000000000000000000000000000000000000000000600052602260045260246000fd5b50919050565b7f4e487b7100000000000000000000000000000000000000000000000000000000600052604160045260246000fdfe454950373132446f6d61696e28737472696e67206e616d652c737472696e672076657273696f6e2c75696e743235362073616c742c6164647265737320766572696679696e67436f6e747261637429a164736f6c6343000802000a",
  "linkReferences": {},
  "deployedLinkReferences": {}
}