{
  "_format": "hh-sol-artifact-1",
  "contractName": "TokenatxorFacet",
  "sourceName": "contracts/Tokenatxor/facets/TokenatxorFacet.sol",
  "abi": [
    {
      "anonymous": false,
      "inputs": [
        {
          "indexed": true,
          "internalType": "address",
          "name": "_owner",
          "type": "address"
        },
        {
          "indexed": true,
          "internalType": "address",
          "name": "_operator",
          "type": "address"
        },
        {
          "indexed": false,
          "internalType": "bool",
          "name": "_approved",
          "type": "bool"
        }
      ],
      "name": "PetOperatorApprovalForAll",
      "type": "event"
    },
    {
      "inputs": [
        {
          "internalType": "address",
          "name": "_owner",
          "type": "address"
        }
      ],
      "name": "allTokenatxorsOfOwner",
      "outputs": [
        {
          "components": [
            {
              "internalType": "uint256",
              "name": "tokenId",
              "type": "uint256"
            },
            {
              "internalType": "string",
              "name": "name",
              "type": "string"
            },
            {
              "internalType": "address",
              "name": "owner",
              "type": "address"
            },
            {
              "internalType": "uint256",
              "name": "randomNumber",
              "type": "uint256"
            },
            {
              "internalType": "uint256",
              "name": "status",
              "type": "uint256"
            },
            {
              "internalType": "int16[6]",
              "name": "numericTraits",
              "type": "int16[6]"
            },
            {
              "internalType": "int16[6]",
              "name": "modifiedNumericTraits",
              "type": "int16[6]"
            },
            {
              "internalType": "uint16[16]",
              "name": "equippedEquippables",
              "type": "uint16[16]"
            },
            {
              "internalType": "address",
              "name": "collateral",
              "type": "address"
            },
            {
              "internalType": "address",
              "name": "escrow",
              "type": "address"
            },
            {
              "internalType": "uint256",
              "name": "stakedAmount",
              "type": "uint256"
            },
            {
              "internalType": "uint256",
              "name": "minimumStake",
              "type": "uint256"
            },
            {
              "internalType": "uint256",
              "name": "wisdom",
              "type": "uint256"
            },
            {
              "internalType": "uint256",
              "name": "lastInteracted",
              "type": "uint256"
            },
            {
              "internalType": "uint256",
              "name": "experience",
              "type": "uint256"
            },
            {
              "internalType": "uint256",
              "name": "toNextPowerLevel",
              "type": "uint256"
            },
            {
              "internalType": "uint256",
              "name": "usedSkillPoints",
              "type": "uint256"
            },
            {
              "internalType": "uint256",
              "name": "powerLevel",
              "type": "uint256"
            },
            {
              "internalType": "uint256",
              "name": "productionId",
              "type": "uint256"
            },
            {
              "internalType": "uint256",
              "name": "baseRarityScore",
              "type": "uint256"
            },
            {
              "internalType": "uint256",
              "name": "modifiedRarityScore",
              "type": "uint256"
            },
            {
              "internalType": "bool",
              "name": "locked",
              "type": "bool"
            },
            {
              "components": [
                {
                  "internalType": "uint256",
                  "name": "balance",
                  "type": "uint256"
                },
                {
                  "internalType": "uint256",
                  "name": "itemId",
                  "type": "uint256"
                },
                {
                  "components": [
                    {
                      "internalType": "string",
                      "name": "name",
                      "type": "string"
                    },
                    {
                      "internalType": "string",
                      "name": "description",
                      "type": "string"
                    },
                    {
                      "internalType": "string",
                      "name": "author",
                      "type": "string"
                    },
                    {
                      "internalType": "int8[6]",
                      "name": "traitModifiers",
                      "type": "int8[6]"
                    },
                    {
                      "internalType": "bool[16]",
                      "name": "slotPositions",
                      "type": "bool[16]"
                    },
                    {
                      "internalType": "uint8[]",
                      "name": "allowedCollaterals",
                      "type": "uint8[]"
                    },
                    {
                      "components": [
                        {
                          "internalType": "uint8",
                          "name": "x",
                          "type": "uint8"
                        },
                        {
                          "internalType": "uint8",
                          "name": "y",
                          "type": "uint8"
                        },
                        {
                          "internalType": "uint8",
                          "name": "width",
                          "type": "uint8"
                        },
                        {
                          "internalType": "uint8",
                          "name": "height",
                          "type": "uint8"
                        }
                      ],
                      "internalType": "struct Dimensions",
                      "name": "dimensions",
                      "type": "tuple"
                    },
                    {
                      "internalType": "uint256",
                      "name": "tktrPrice",
                      "type": "uint256"
                    },
                    {
                      "internalType": "uint256",
                      "name": "maxQuantity",
                      "type": "uint256"
                    },
                    {
                      "internalType": "uint256",
                      "name": "totalQuantity",
                      "type": "uint256"
                    },
                    {
                      "internalType": "uint32",
                      "name": "svgId",
                      "type": "uint32"
                    },
                    {
                      "internalType": "uint8",
                      "name": "rarityScoreModifier",
                      "type": "uint8"
                    },
                    {
                      "internalType": "bool",
                      "name": "canPurchaseWithTktr",
                      "type": "bool"
                    },
                    {
                      "internalType": "uint16",
                      "name": "minLevel",
                      "type": "uint16"
                    },
                    {
                      "internalType": "bool",
                      "name": "canBeTransferred",
                      "type": "bool"
                    },
                    {
                      "internalType": "uint8",
                      "name": "category",
                      "type": "uint8"
                    },
                    {
                      "internalType": "int16",
                      "name": "wisdomBonus",
                      "type": "int16"
                    },
                    {
                      "internalType": "uint32",
                      "name": "experienceBonus",
                      "type": "uint32"
                    }
                  ],
                  "internalType": "struct ItemType",
                  "name": "itemType",
                  "type": "tuple"
                }
              ],
              "internalType": "struct ItemTypeIO[]",
              "name": "items",
              "type": "tuple[]"
            }
          ],
          "internalType": "struct TokenatxorInfo[]",
          "name": "tokenatxorInfos_",
          "type": "tuple[]"
        }
      ],
      "stateMutability": "view",
      "type": "function"
    },
    {
      "inputs": [
        {
          "internalType": "address",
          "name": "_approved",
          "type": "address"
        },
        {
          "internalType": "uint256",
          "name": "_tokenId",
          "type": "uint256"
        }
      ],
      "name": "approve",
      "outputs": [],
      "stateMutability": "nonpayable",
      "type": "function"
    },
    {
      "inputs": [
        {
          "internalType": "address",
          "name": "_owner",
          "type": "address"
        }
      ],
      "name": "balanceOf",
      "outputs": [
        {
          "internalType": "uint256",
          "name": "balance_",
          "type": "uint256"
        }
      ],
      "stateMutability": "view",
      "type": "function"
    },
    {
      "inputs": [
        {
          "internalType": "uint256",
          "name": "_tokenId",
          "type": "uint256"
        }
      ],
      "name": "getApproved",
      "outputs": [
        {
          "internalType": "address",
          "name": "approved_",
          "type": "address"
        }
      ],
      "stateMutability": "view",
      "type": "function"
    },
    {
      "inputs": [
        {
          "internalType": "uint256",
          "name": "_tokenId",
          "type": "uint256"
        }
      ],
      "name": "getTokenatxor",
      "outputs": [
        {
          "components": [
            {
              "internalType": "uint256",
              "name": "tokenId",
              "type": "uint256"
            },
            {
              "internalType": "string",
              "name": "name",
              "type": "string"
            },
            {
              "internalType": "address",
              "name": "owner",
              "type": "address"
            },
            {
              "internalType": "uint256",
              "name": "randomNumber",
              "type": "uint256"
            },
            {
              "internalType": "uint256",
              "name": "status",
              "type": "uint256"
            },
            {
              "internalType": "int16[6]",
              "name": "numericTraits",
              "type": "int16[6]"
            },
            {
              "internalType": "int16[6]",
              "name": "modifiedNumericTraits",
              "type": "int16[6]"
            },
            {
              "internalType": "uint16[16]",
              "name": "equippedEquippables",
              "type": "uint16[16]"
            },
            {
              "internalType": "address",
              "name": "collateral",
              "type": "address"
            },
            {
              "internalType": "address",
              "name": "escrow",
              "type": "address"
            },
            {
              "internalType": "uint256",
              "name": "stakedAmount",
              "type": "uint256"
            },
            {
              "internalType": "uint256",
              "name": "minimumStake",
              "type": "uint256"
            },
            {
              "internalType": "uint256",
              "name": "wisdom",
              "type": "uint256"
            },
            {
              "internalType": "uint256",
              "name": "lastInteracted",
              "type": "uint256"
            },
            {
              "internalType": "uint256",
              "name": "experience",
              "type": "uint256"
            },
            {
              "internalType": "uint256",
              "name": "toNextPowerLevel",
              "type": "uint256"
            },
            {
              "internalType": "uint256",
              "name": "usedSkillPoints",
              "type": "uint256"
            },
            {
              "internalType": "uint256",
              "name": "powerLevel",
              "type": "uint256"
            },
            {
              "internalType": "uint256",
              "name": "productionId",
              "type": "uint256"
            },
            {
              "internalType": "uint256",
              "name": "baseRarityScore",
              "type": "uint256"
            },
            {
              "internalType": "uint256",
              "name": "modifiedRarityScore",
              "type": "uint256"
            },
            {
              "internalType": "bool",
              "name": "locked",
              "type": "bool"
            },
            {
              "components": [
                {
                  "internalType": "uint256",
                  "name": "balance",
                  "type": "uint256"
                },
                {
                  "internalType": "uint256",
                  "name": "itemId",
                  "type": "uint256"
                },
                {
                  "components": [
                    {
                      "internalType": "string",
                      "name": "name",
                      "type": "string"
                    },
                    {
                      "internalType": "string",
                      "name": "description",
                      "type": "string"
                    },
                    {
                      "internalType": "string",
                      "name": "author",
                      "type": "string"
                    },
                    {
                      "internalType": "int8[6]",
                      "name": "traitModifiers",
                      "type": "int8[6]"
                    },
                    {
                      "internalType": "bool[16]",
                      "name": "slotPositions",
                      "type": "bool[16]"
                    },
                    {
                      "internalType": "uint8[]",
                      "name": "allowedCollaterals",
                      "type": "uint8[]"
                    },
                    {
                      "components": [
                        {
                          "internalType": "uint8",
                          "name": "x",
                          "type": "uint8"
                        },
                        {
                          "internalType": "uint8",
                          "name": "y",
                          "type": "uint8"
                        },
                        {
                          "internalType": "uint8",
                          "name": "width",
                          "type": "uint8"
                        },
                        {
                          "internalType": "uint8",
                          "name": "height",
                          "type": "uint8"
                        }
                      ],
                      "internalType": "struct Dimensions",
                      "name": "dimensions",
                      "type": "tuple"
                    },
                    {
                      "internalType": "uint256",
                      "name": "tktrPrice",
                      "type": "uint256"
                    },
                    {
                      "internalType": "uint256",
                      "name": "maxQuantity",
                      "type": "uint256"
                    },
                    {
                      "internalType": "uint256",
                      "name": "totalQuantity",
                      "type": "uint256"
                    },
                    {
                      "internalType": "uint32",
                      "name": "svgId",
                      "type": "uint32"
                    },
                    {
                      "internalType": "uint8",
                      "name": "rarityScoreModifier",
                      "type": "uint8"
                    },
                    {
                      "internalType": "bool",
                      "name": "canPurchaseWithTktr",
                      "type": "bool"
                    },
                    {
                      "internalType": "uint16",
                      "name": "minLevel",
                      "type": "uint16"
                    },
                    {
                      "internalType": "bool",
                      "name": "canBeTransferred",
                      "type": "bool"
                    },
                    {
                      "internalType": "uint8",
                      "name": "category",
                      "type": "uint8"
                    },
                    {
                      "internalType": "int16",
                      "name": "wisdomBonus",
                      "type": "int16"
                    },
                    {
                      "internalType": "uint32",
                      "name": "experienceBonus",
                      "type": "uint32"
                    }
                  ],
                  "internalType": "struct ItemType",
                  "name": "itemType",
                  "type": "tuple"
                }
              ],
              "internalType": "struct ItemTypeIO[]",
              "name": "items",
              "type": "tuple[]"
            }
          ],
          "internalType": "struct TokenatxorInfo",
          "name": "tokenatxorInfo_",
          "type": "tuple"
        }
      ],
      "stateMutability": "view",
      "type": "function"
    },
    {
      "inputs": [
        {
          "internalType": "address",
          "name": "_owner",
          "type": "address"
        },
        {
          "internalType": "address",
          "name": "_operator",
          "type": "address"
        }
      ],
      "name": "isApprovedForAll",
      "outputs": [
        {
          "internalType": "bool",
          "name": "approved_",
          "type": "bool"
        }
      ],
      "stateMutability": "view",
      "type": "function"
    },
    {
      "inputs": [
        {
          "internalType": "address",
          "name": "_owner",
          "type": "address"
        },
        {
          "internalType": "address",
          "name": "_operator",
          "type": "address"
        }
      ],
      "name": "isPetOperatorForAll",
      "outputs": [
        {
          "internalType": "bool",
          "name": "approved_",
          "type": "bool"
        }
      ],
      "stateMutability": "view",
      "type": "function"
    },
    {
      "inputs": [],
      "name": "name",
      "outputs": [
        {
          "internalType": "string",
          "name": "",
          "type": "string"
        }
      ],
      "stateMutability": "view",
      "type": "function"
    },
    {
      "inputs": [
        {
          "internalType": "uint256",
          "name": "_tokenId",
          "type": "uint256"
        }
      ],
      "name": "ownerOf",
      "outputs": [
        {
          "internalType": "address",
          "name": "owner_",
          "type": "address"
        }
      ],
      "stateMutability": "view",
      "type": "function"
    },
    {
      "inputs": [
        {
          "internalType": "address",
          "name": "_from",
          "type": "address"
        },
        {
          "internalType": "address",
          "name": "_to",
          "type": "address"
        },
        {
          "internalType": "uint256[]",
          "name": "_tokenIds",
          "type": "uint256[]"
        },
        {
          "internalType": "bytes",
          "name": "_data",
          "type": "bytes"
        }
      ],
      "name": "safeBatchTransferFrom",
      "outputs": [],
      "stateMutability": "nonpayable",
      "type": "function"
    },
    {
      "inputs": [
        {
          "internalType": "address",
          "name": "_from",
          "type": "address"
        },
        {
          "internalType": "address",
          "name": "_to",
          "type": "address"
        },
        {
          "internalType": "uint256",
          "name": "_tokenId",
          "type": "uint256"
        }
      ],
      "name": "safeTransferFrom",
      "outputs": [],
      "stateMutability": "nonpayable",
      "type": "function"
    },
    {
      "inputs": [
        {
          "internalType": "address",
          "name": "_from",
          "type": "address"
        },
        {
          "internalType": "address",
          "name": "_to",
          "type": "address"
        },
        {
          "internalType": "uint256",
          "name": "_tokenId",
          "type": "uint256"
        },
        {
          "internalType": "bytes",
          "name": "_data",
          "type": "bytes"
        }
      ],
      "name": "safeTransferFrom",
      "outputs": [],
      "stateMutability": "nonpayable",
      "type": "function"
    },
    {
      "inputs": [
        {
          "internalType": "address",
          "name": "_operator",
          "type": "address"
        },
        {
          "internalType": "bool",
          "name": "_approved",
          "type": "bool"
        }
      ],
      "name": "setApprovalForAll",
      "outputs": [],
      "stateMutability": "nonpayable",
      "type": "function"
    },
    {
      "inputs": [
        {
          "internalType": "address",
          "name": "_operator",
          "type": "address"
        },
        {
          "internalType": "bool",
          "name": "_approved",
          "type": "bool"
        }
      ],
      "name": "setPetOperatorForAll",
      "outputs": [],
      "stateMutability": "nonpayable",
      "type": "function"
    },
    {
      "inputs": [],
      "name": "symbol",
      "outputs": [
        {
          "internalType": "string",
          "name": "",
          "type": "string"
        }
      ],
      "stateMutability": "view",
      "type": "function"
    },
    {
      "inputs": [
        {
          "internalType": "uint256",
          "name": "_index",
          "type": "uint256"
        }
      ],
      "name": "tokenByIndex",
      "outputs": [
        {
          "internalType": "uint256",
          "name": "tokenId_",
          "type": "uint256"
        }
      ],
      "stateMutability": "view",
      "type": "function"
    },
    {
      "inputs": [
        {
          "internalType": "address",
          "name": "_owner",
          "type": "address"
        }
      ],
      "name": "tokenIdsOfOwner",
      "outputs": [
        {
          "internalType": "uint32[]",
          "name": "tokenIds_",
          "type": "uint32[]"
        }
      ],
      "stateMutability": "view",
      "type": "function"
    },
    {
      "inputs": [
        {
          "internalType": "address",
          "name": "_owner",
          "type": "address"
        },
        {
          "internalType": "uint256",
          "name": "_index",
          "type": "uint256"
        }
      ],
      "name": "tokenOfOwnerByIndex",
      "outputs": [
        {
          "internalType": "uint256",
          "name": "tokenId_",
          "type": "uint256"
        }
      ],
      "stateMutability": "view",
      "type": "function"
    },
    {
      "inputs": [
        {
          "internalType": "uint256",
          "name": "_tokenId",
          "type": "uint256"
        }
      ],
      "name": "tokenURI",
      "outputs": [
        {
          "internalType": "string",
          "name": "",
          "type": "string"
        }
      ],
      "stateMutability": "pure",
      "type": "function"
    },
    {
      "inputs": [
        {
          "internalType": "uint256",
          "name": "_tokenId",
          "type": "uint256"
        }
      ],
      "name": "tokenatxorClaimTime",
      "outputs": [
        {
          "internalType": "uint256",
          "name": "claimTime_",
          "type": "uint256"
        }
      ],
      "stateMutability": "view",
      "type": "function"
    },
    {
      "inputs": [],
      "name": "totalSupply",
      "outputs": [
        {
          "internalType": "uint256",
          "name": "totalSupply_",
          "type": "uint256"
        }
      ],
      "stateMutability": "view",
      "type": "function"
    },
    {
      "inputs": [
        {
          "internalType": "address",
          "name": "_from",
          "type": "address"
        },
        {
          "internalType": "address",
          "name": "_to",
          "type": "address"
        },
        {
          "internalType": "uint256",
          "name": "_tokenId",
          "type": "uint256"
        }
      ],
      "name": "transferFrom",
      "outputs": [],
      "stateMutability": "nonpayable",
      "type": "function"
    }
  ],
  "bytecode": "0x608060405234801561001057600080fd5b50614329806100206000396000f3fe608060405234801561001057600080fd5b50600436106101825760003560e01c806370a08231116100d8578063a22cb4651161008c578063cd675d5711610066578063cd675d571461036c578063d7358fea1461037f578063e985e9c5146103d857610182565b8063a22cb46514610333578063b88d4fde14610346578063c87b56dd1461035957610182565b80637e040267116100bd5780637e040267146102c957806395d89b411461030b5780639e59e5981461031357610182565b806370a08231146102965780637c7f70ff146102a957610182565b806323b872dd1161013a57806342842e0e1161011457806342842e0e1461025d5780634f6ccce7146102705780636352211e1461028357610182565b806323b872dd1461022457806328cfbd46146102375780632f745c591461024a57610182565b8063095ea7b31161016b578063095ea7b3146101dd57806313604085146101f257806318160ddd1461021257610182565b806306fdde0314610187578063081812fc146101a5575b600080fd5b61018f610421565b60405161019c9190613e14565b60405180910390f35b6101b86101b33660046137ba565b6104b7565b60405173ffffffffffffffffffffffffffffffffffffffff909116815260200161019c565b6101f06101eb36600461374f565b610553565b005b61020561020036600461353e565b61071d565b60405161019c9190613d4c565b6010545b60405190815260200161019c565b6101f061023236600461366d565b6108b7565b6101f06102453660046135ae565b6108cf565b61021661025836600461374f565b610996565b6101f061026b36600461366d565b610ad3565b61021661027e3660046137ba565b610b0d565b6101b86102913660046137ba565b610c06565b6102166102a436600461353e565b610cc0565b6102bc6102b73660046137ba565b610d8e565b60405161019c9190613e27565b6102166102d73660046137ba565b6000908152600d602052604090206009015474010000000000000000000000000000000000000000900464ffffffffff1690565b61018f610da5565b61032661032136600461353e565b610db7565b60405161019c9190613dca565b6101f061034136600461371e565b610e5c565b6101f06103543660046136ad565b610f2d565b61018f6103673660046137ba565b610f90565b6101f061037a36600461371e565b610fd1565b6103c861038d366004613576565b73ffffffffffffffffffffffffffffffffffffffff9182166000908152603f6020908152604080832093909416825291909152205460ff1690565b604051901515815260200161019c565b6103c86103e6366004613576565b73ffffffffffffffffffffffffffffffffffffffff918216600090815260126020908152604080832093909416825291909152205460ff1690565b60606000601701805461043390614241565b80601f016020809104026020016040519081016040528092919081815260200182805461045f90614241565b80156104ac5780601f10610481576101008083540402835291602001916104ac565b820191906000526020600020905b81548152906001019060200180831161048f57829003601f168201915b505050505090505b90565b601054600090821061052a576040517f08c379a000000000000000000000000000000000000000000000000000000000815260206004820152601a60248201527f4552433732313a20746f6b656e496420697320696e76616c696400000000000060448201526064015b60405180910390fd5b5060009081526013602052604090205473ffffffffffffffffffffffffffffffffffffffff1690565b6000818152600d60205260409020600b015473ffffffffffffffffffffffffffffffffffffffff16610583611096565b73ffffffffffffffffffffffffffffffffffffffff168173ffffffffffffffffffffffffffffffffffffffff161480610610575073ffffffffffffffffffffffffffffffffffffffff81166000908152601260205260408120906105e5611096565b73ffffffffffffffffffffffffffffffffffffffff16815260208101919091526040016000205460ff165b61069c576040517f08c379a000000000000000000000000000000000000000000000000000000000815260206004820152602760248201527f4552433732313a204e6f74206f776e6572206f72206f70657261746f72206f6660448201527f20746f6b656e2e000000000000000000000000000000000000000000000000006064820152608401610521565b60008281526013602052604080822080547fffffffffffffffffffffffff00000000000000000000000000000000000000001673ffffffffffffffffffffffffffffffffffffffff87811691821790925591518593918516917f8c5be1e5ebec7d5bd14f71427d1e84f3dd0314c0f7b2291e5b200ac8c7c3b92591a4505050565b73ffffffffffffffffffffffffffffffffffffffff81166000908152600e60205260409020546060908067ffffffffffffffff811115610786577f4e487b7100000000000000000000000000000000000000000000000000000000600052604160045260246000fd5b6040519080825280602002602001820160405280156107bf57816020015b6107ac6132c0565b8152602001906001900390816107a45790505b50915060005b818110156108b05773ffffffffffffffffffffffffffffffffffffffff84166000908152600e602052604090208054610859919083908110610830577f4e487b7100000000000000000000000000000000000000000000000000000000600052603260045260246000fd5b6000918252602090912060088204015460079091166004026101000a900463ffffffff166110ff565b838281518110610892577f4e487b7100000000000000000000000000000000000000000000000000000000600052603260045260246000fd5b602002602001018190525080806108a89061428f565b9150506107c5565b5050919050565b6108ca6108c2611096565b848484611513565b505050565b60006108d9611096565b905060005b8481101561098c576000868683818110610921577f4e487b7100000000000000000000000000000000000000000000000000000000600052603260045260246000fd5b905060200201359050610936838a8a84611513565b610979838a8a8489898080601f01602080910402602001604051908101604052809392919081815260200183838082843760009201919091525061185192505050565b50806109848161428f565b9150506108de565b5050505050505050565b73ffffffffffffffffffffffffffffffffffffffff82166000908152600e60205260408120548210610a4a576040517f08c379a000000000000000000000000000000000000000000000000000000000815260206004820152602b60248201527f546f6b656e6174786f7246616365743a20696e646578206265796f6e64206f7760448201527f6e65722062616c616e63650000000000000000000000000000000000000000006064820152608401610521565b73ffffffffffffffffffffffffffffffffffffffff83166000908152600e60205260409020805483908110610aa8577f4e487b7100000000000000000000000000000000000000000000000000000000600052603260045260246000fd5b6000918252602090912060088204015460079091166004026101000a900463ffffffff169392505050565b6000610add611096565b9050610aeb81858585611513565b610b078185858560405180602001604052806000815250611851565b50505050565b6010546000908210610ba1576040517f08c379a000000000000000000000000000000000000000000000000000000000815260206004820152602560248201527f546f6b656e746174786f7246616365743a20696e646578206265796f6e64207360448201527f7570706c790000000000000000000000000000000000000000000000000000006064820152608401610521565b6010805483908110610bdc577f4e487b7100000000000000000000000000000000000000000000000000000000600052603260045260246000fd5b6000918252602090912060088204015460079091166004026101000a900463ffffffff1692915050565b6000818152600d60205260409020600b015473ffffffffffffffffffffffffffffffffffffffff1680610cbb576040517f08c379a000000000000000000000000000000000000000000000000000000000815260206004820152602160248201527f546f6b656e6174786f7246616365743a20696e76616c6964205f746f6b656e4960448201527f64000000000000000000000000000000000000000000000000000000000000006064820152608401610521565b919050565b600073ffffffffffffffffffffffffffffffffffffffff8216610d65576040517f08c379a000000000000000000000000000000000000000000000000000000000815260206004820152602a60248201527f546f6b656e6174786f7246616365743a205f6f776e65722063616e277420626560448201527f20616464726573732830000000000000000000000000000000000000000000006064820152608401610521565b5073ffffffffffffffffffffffffffffffffffffffff166000908152600e602052604090205490565b610d966132c0565b610d9f826110ff565b92915050565b60606000601801805461043390614241565b73ffffffffffffffffffffffffffffffffffffffff81166000908152600e6020908152604091829020805483518184028101840190945280845260609392830182828015610e5057602002820191906000526020600020906000905b82829054906101000a900463ffffffff1663ffffffff1681526020019060040190602082600301049283019260010382029150808411610e135790505b50505050509050919050565b8060126000610e69611096565b73ffffffffffffffffffffffffffffffffffffffff90811682526020808301939093526040918201600090812091871680825291909352912080547fffffffffffffffffffffffffffffffffffffffffffffffffffffffffffffff001692151592909217909155610ed8611096565b73ffffffffffffffffffffffffffffffffffffffff167f17307eab39ab6107e8899845ad3d59bd9653f200f220920489ca2b5937696c3183604051610f21911515815260200190565b60405180910390a35050565b6000610f37611096565b9050610f4581878787611513565b610f888187878787878080601f01602080910402602001604051908101604052809392919081815260200183838082843760009201919091525061185192505050565b505050505050565b6060610d9f6040518060400160405280600781526020017f697066733a2f2f00000000000000000000000000000000000000000000000000815250836119d3565b80603f6000610fde611096565b73ffffffffffffffffffffffffffffffffffffffff90811682526020808301939093526040918201600090812091871680825291909352912080547fffffffffffffffffffffffffffffffffffffffffffffffffffffffffffffff00169215159290921790915561104d611096565b73ffffffffffffffffffffffffffffffffffffffff167f1903b4167d090b4c506fb1403a5ae9f9b403bd3e8a3feb33c8082d1a0a90530383604051610f21911515815260200190565b6000333014156110fa57600080368080601f01602080910402602001604051908101604052809392919081815260200183838082843760009201919091525050505036015173ffffffffffffffffffffffffffffffffffffffff1691506104b49050565b503390565b6111076132c0565b8181526000828152600d60208181526040808420600b81015473ffffffffffffffffffffffffffffffffffffffff811692870192909252600481015460608701527401000000000000000000000000000000000000000090910460ff166080860190815286855292909152600a0154610240840152516003141561150d576000838152600d82016020526040902060030180546111a390614241565b80601f01602080910402602001604051908101604052809291908181526020018280546111cf90614241565b801561121c5780601f106111f15761010080835404028352916020019161121c565b820191906000526020600020905b8154815290600101906020018083116111ff57829003601f168201915b50505050506020838101919091526000848152600d8301909152604080822081516102008101928390529290916010918390855b82829054906101000a900461ffff1661ffff168152602001906002019060208260010104928301926001038202915080841161125057505050505060e0840191909152506000838152600d820160208181526040808420600981015473ffffffffffffffffffffffffffffffffffffffff90811661010089019081529589905293909252600c9091015482166101208601819052925190517f70a08231000000000000000000000000000000000000000000000000000000008152600481019390935216906370a082319060240160206040518083038186803b15801561133657600080fd5b505afa15801561134a573d6000803e3d6000fd5b505050506040513d601f19601f8201168201806040525081019061136e91906137d2565b6101408301526000838152600d8201602052604090206006015461016083015261139783611b67565b6101808301526000838152600d8201602081815260408320600b8101547501000000000000000000000000000000000000000000900464ffffffffff166101a0870152600501546101c0860181905292869052526113f490611be1565b6101e08301526000838152600d8201602052604090206005015461141790611c17565b6102208301526000838152600d820160208181526040808420600781015461020088015287855292909152805160c081019182905292600290920191600691908390855b82829054906101000a900460010b60010b8152602001906002019060208260010104928301926001038202915080841161145b57505050505060a08401829052506114a590611c58565b6102608301526114b483611cf9565b61028084015260c08301526000838152600d820160205260409020600b01547a010000000000000000000000000000000000000000000000000000900460ff1615156102a08301526115063084611f8e565b6102c08301525b50919050565b73ffffffffffffffffffffffffffffffffffffffff82166115b6576040517f08c379a000000000000000000000000000000000000000000000000000000000815260206004820152602c60248201527f41617665676f7463686946616365743a2043616e2774207472616e736665722060448201527f746f2030206164647265737300000000000000000000000000000000000000006064820152608401610521565b73ffffffffffffffffffffffffffffffffffffffff8316611659576040517f08c379a000000000000000000000000000000000000000000000000000000000815260206004820152602960248201527f41617665676f7463686946616365743a205f66726f6d2063616e27742062652060448201527f30206164647265737300000000000000000000000000000000000000000000006064820152608401610521565b6000818152600d60205260409020600b015473ffffffffffffffffffffffffffffffffffffffff848116911614611712576040517f08c379a000000000000000000000000000000000000000000000000000000000815260206004820152603460248201527f546f6b656e6174786f7246616365743a205f66726f6d206973206e6f74206f7760448201527f6e65722c207472616e73666572206661696c65640000000000000000000000006064820152608401610521565b8273ffffffffffffffffffffffffffffffffffffffff168473ffffffffffffffffffffffffffffffffffffffff16148061177e575073ffffffffffffffffffffffffffffffffffffffff80841660009081526012602090815260408083209388168352929052205460ff165b806117af575060008181526013602052604090205473ffffffffffffffffffffffffffffffffffffffff8581169116145b61183b576040517f08c379a000000000000000000000000000000000000000000000000000000000815260206004820152603260248201527f546f6b656e6174786f7246616365743a204e6f74206f776e6572206f7220617060448201527f70726f76656420746f207472616e7366657200000000000000000000000000006064820152608401610521565b611846838383612647565b610b07308285612a51565b823b8015610f88576040517f150b7a0200000000000000000000000000000000000000000000000000000000815273ffffffffffffffffffffffffffffffffffffffff85169063150b7a02906118b1908990899088908890600401613d03565b602060405180830381600087803b1580156118cb57600080fd5b505af11580156118df573d6000803e3d6000fd5b505050506040513d601f19601f82011682018060405250810190611903919061377a565b7fffffffff00000000000000000000000000000000000000000000000000000000167f150b7a020000000000000000000000000000000000000000000000000000000014610f88576040517f08c379a000000000000000000000000000000000000000000000000000000000815260206004820152603060248201527f41617665676f7463686946616365743a205472616e736665722072656a65637460448201527f65642f6661696c6564206279205f746f000000000000000000000000000000006064820152608401610521565b60608082611a0357836040516020016119ec9190613cc2565b604051602081830303815290604052915050610d9f565b8260005b8115611a1b57600101600a82049150611a07565b8067ffffffffffffffff811115611a5b577f4e487b7100000000000000000000000000000000000000000000000000000000600052604160045260246000fd5b6040519080825280601f01601f191660200182016040528015611a85576020820181803683370190505b5092508491507fffffffffffffffffffffffffffffffffffffffffffffffffffffffffffffffff81015b8215611b3957600a830660300160f81b84828060019003935081518110611aff577f4e487b7100000000000000000000000000000000000000000000000000000000600052603260045260246000fd5b60200101907effffffffffffffffffffffffffffffffffffffffffffffffffffffffffffff1916908160001a905350600a83049250611aaf565b5050508381604051602001611b4f929190613c93565b60405160208183030381529060405291505092915050565b6000818152600d60205260408120600b81015460088201548392917501000000000000000000000000000000000000000000900464ffffffffff169083611bae83426141fe565b90506000611bbf6201518083613f27565b905080831115611bd657611bd381846141fe565b96505b505050505050919050565b600080611bed83611c17565b905082611bfb600283613fa6565b611c0690603261414d565b611c1091906141fe565b9392505050565b600062077a42821115611c2c57506063610cbb565b600a611c41611c3c84600261414d565b612bd3565b611c4b9190613f27565b9050610d9f816001613f0f565b6000805b600681101561150d576000838260068110611ca0577f4e487b7100000000000000000000000000000000000000000000000000000000600052603260045260246000fd5b602002015160010b905060328112611cce57611cbd816001613f0f565b611cc79084613f0f565b9250611ce6565b611cd981606461418a565b611ce39084613f0f565b92505b5080611cf18161428f565b915050611c5c565b611d016133c4565b6000828152600d60205260408120600b0154819074010000000000000000000000000000000000000000900460ff16600314611d99576040517f08c379a000000000000000000000000000000000000000000000000000000000815260206004820181905260248201527f546f6b656e6174786f7246616365743a204d75737420626520636c61696d65646044820152606401610521565b6000848152600d820160205260409020611db285612c26565b93506000805b6010811015611f6b576000838260108110611dfc577f4e487b7100000000000000000000000000000000000000000000000000000000600052603260045260246000fd5b601081049190910154600f9091166002026101000a900461ffff16905080611e245750611f59565b6000856006018281548110611e62577f4e487b7100000000000000000000000000000000000000000000000000000000600052603260045260246000fd5b90600052602060002090600b0201905060005b6006811015611f3957816003018160068110611eba577f4e487b7100000000000000000000000000000000000000000000000000000000600052603260045260246000fd5b602091828204019190069054906101000a900460000b60000b898260068110611f0c577f4e487b7100000000000000000000000000000000000000000000000000000000600052603260045260246000fd5b60200201818151611f1d9190613e3a565b600190810b900b90525080611f318161428f565b915050611e75565b50600a810154611f5490640100000000900460ff1685613f0f565b935050505b80611f638161428f565b915050611db8565b506000611f7786611c58565b9050611f838282613f0f565b945050505050915091565b73ffffffffffffffffffffffffffffffffffffffff82166000908152600460209081526040808320848452909152812054606091908067ffffffffffffffff811115612003577f4e487b7100000000000000000000000000000000000000000000000000000000600052604160045260246000fd5b60405190808252806020026020018201604052801561203c57816020015b6120296133e2565b8152602001906001900390816120215790505b50925060005b8181101561263e5773ffffffffffffffffffffffffffffffffffffffff86166000908152600484016020908152604080832088845290915281208054839081106120b5577f4e487b7100000000000000000000000000000000000000000000000000000000600052603260045260246000fd5b600091825260208083209091015473ffffffffffffffffffffffffffffffffffffffff8a16835260038701825260408084208a855283528084208285529092529120548651919250908290879085908110612139577f4e487b7100000000000000000000000000000000000000000000000000000000600052603260045260246000fd5b6020026020010151602001818152505080868481518110612183577f4e487b7100000000000000000000000000000000000000000000000000000000600052603260045260246000fd5b602090810291909101015152600685018054839081106121cc577f4e487b7100000000000000000000000000000000000000000000000000000000600052603260045260246000fd5b90600052602060002090600b0201604051806102400160405290816000820180546121f690614241565b80601f016020809104026020016040519081016040528092919081815260200182805461222290614241565b801561226f5780601f106122445761010080835404028352916020019161226f565b820191906000526020600020905b81548152906001019060200180831161225257829003601f168201915b5050505050815260200160018201805461228890614241565b80601f01602080910402602001604051908101604052809291908181526020018280546122b490614241565b80156123015780601f106122d657610100808354040283529160200191612301565b820191906000526020600020905b8154815290600101906020018083116122e457829003601f168201915b5050505050815260200160028201805461231a90614241565b80601f016020809104026020016040519081016040528092919081815260200182805461234690614241565b80156123935780601f1061236857610100808354040283529160200191612393565b820191906000526020600020905b81548152906001019060200180831161237657829003601f168201915b50505091835250506040805160c0810191829052602090920191906003840190600690826000855b82829054906101000a900460000b60000b815260200190600101906020826000010492830192600103820291508084116123bb5750505092845250506040805161020081019182905260209093019291506004840190601090826000855b825461010083900a900460ff16151581526020600192830181810494850194909303909202910180841161241957905050505050508152602001600582018054806020026020016040519081016040528092919081815260200182805480156124bf57602002820191906000526020600020906000905b825461010083900a900460ff168152602060019283018181049485019490930390920291018084116124905790505b50505091835250506040805160808082018352600685015460ff808216845261010080830482166020868101919091526201000084048316868801526301000000909304821660608087019190915292870194909452600787015494860194909452600886015490850152600985015490840152600a9093015463ffffffff80821660a08501526401000000008204831660c08501526501000000000082048316151560e085015261ffff66010000000000008304169484019490945268010000000000000000810482161515610120840152690100000000000000000081049091166101408301526a01000000000000000000008104600190810b810b900b6101608301526c01000000000000000000000000900490911661018090910152865187908590811061261a577f4e487b7100000000000000000000000000000000000000000000000000000000600052603260045260246000fd5b602002602001015160400181905250505080806126369061428f565b915050612042565b50505092915050565b73ffffffffffffffffffffffffffffffffffffffff83166000818152600f60209081526040808320858452825280832054938352600e9091528120549091908290612694906001906141fe565b90508082146128065773ffffffffffffffffffffffffffffffffffffffff86166000908152600e8401602052604081208054839081106126fd577f4e487b7100000000000000000000000000000000000000000000000000000000600052603260045260246000fd5b90600052602060002090600891828204019190066004029054906101000a900463ffffffff1690508084600e0160008973ffffffffffffffffffffffffffffffffffffffff1673ffffffffffffffffffffffffffffffffffffffff168152602001908152602001600020848154811061279f577f4e487b7100000000000000000000000000000000000000000000000000000000600052603260045260246000fd5b600091825260208083206008830401805460079093166004026101000a63ffffffff81810219909416958416029490941790935573ffffffffffffffffffffffffffffffffffffffff8a168252600f87018352604080832094909116825292909152208290555b73ffffffffffffffffffffffffffffffffffffffff86166000908152600e840160205260409020805480612863577f4e487b7100000000000000000000000000000000000000000000000000000000600052603160045260246000fd5b6000828152602080822060087fffffffffffffffffffffffffffffffffffffffffffffffffffffffffffffffff90940193840401805463ffffffff600460078716026101000a02191690559190925573ffffffffffffffffffffffffffffffffffffffff8089168352600f860182526040808420888552835280842084905560138701909252912054161561296b57600084815260138401602052604080822080547fffffffffffffffffffffffff00000000000000000000000000000000000000001690555185919073ffffffffffffffffffffffffffffffffffffffff8916907f8c5be1e5ebec7d5bd14f71427d1e84f3dd0314c0f7b2291e5b200ac8c7c3b925908390a45b6000848152600d840160209081526040808320600b0180547fffffffffffffffffffffffff00000000000000000000000000000000000000001673ffffffffffffffffffffffffffffffffffffffff8a8116918217909255808552600e88018085528386208054600f8b0187528588208c8952875285882081905591865260018201815586529385206008850401805460079095166004026101000a63ffffffff81810219909616958b16029490941790935590518793918a16917fddf252ad1be2c89b69c2b068fc378daa952ba7f163c4a11628f55a4df523b3ef91a4505050505050565b73ffffffffffffffffffffffffffffffffffffffff8381166000908152603960209081526040808320868452825280832093851683529290529081205480612a9a5750506108ca565b600081815260338301602052604090206007810154151580612ac55750600881015460ff1615156001145b15612ad2575050506108ca565b600281015460038201546040517f6352211e000000000000000000000000000000000000000000000000000000008152600481019190915260009173ffffffffffffffffffffffffffffffffffffffff1690636352211e9060240160206040518083038186803b158015612b4557600080fd5b505afa158015612b59573d6000803e3d6000fd5b505050506040513d601f19601f82011682018060405250810190612b7d919061355a565b600183015490915073ffffffffffffffffffffffffffffffffffffffff808316911614612bca576001820154612bca90849073ffffffffffffffffffffffffffffffffffffffff16612e42565b50505050505050565b6000806002612be3846001613f0f565b612bed9190613f27565b90508291505b8181101561150d57905080600281612c0b8186613f27565b612c159190613f0f565b612c1f9190613f27565b9050612bf3565b612c2e6133c4565b6000828152600d602052604081206009015481906201518090612c7590790100000000000000000000000000000000000000000000000000900464ffffffffff16426141fe565b612c7f9190613f27565b905060005b6006811015612e3a576000858152600d8401602052604081206002018260068110612cd8577f4e487b7100000000000000000000000000000000000000000000000000000000600052603260045260246000fd5b601091828204019190066002029054906101000a900460010b60010b9050600084600d0160008881526020019081526020016000206001018360068110612d48577f4e487b7100000000000000000000000000000000000000000000000000000000600052603260045260246000fd5b602091828204019190069054906101000a900460000b60000b9050600081138015612d7257508381135b15612d9257612d81848261418a565b612d8b9083613e9b565b9150612dda565b83612dbd827fffffffffffffffffffffffffffffffffffffffffffffffffffffffffffffffff614095565b1315612dda57612dcd8482613e9b565b612dd79083613e9b565b91505b81868460068110612e14577f4e487b7100000000000000000000000000000000000000000000000000000000600052603260045260246000fd5b602002019060010b908160010b8152505050508080612e329061428f565b915050612c84565b505050919050565b60008281526034602052604081206001810154612e60575050612fe1565b60008481526033830160205260409020600881015460ff16151560011480612e8b5750600781015415155b15612e9857505050612fe1565b600181015473ffffffffffffffffffffffffffffffffffffffff858116911614612f1e576040517f08c379a000000000000000000000000000000000000000000000000000000000815260206004820152601d60248201527f4d61726b6574706c6163653a206f776e6572206e6f742073656c6c65720000006044820152606401610521565b6008810180547fffffffffffffffffffffffffffffffffffffffffffffffffffffffffffffff0016600117905560038101546000908152600d8401602052604090819020600b0180547fffffffffff00ffffffffffffffffffffffffffffffffffffffffffffffffffff1690556004820154905186917f10e53bca620314e794d61e37932062e81c48e88233765d09da42aeb00ae4dba091612fcb91904390918252602082015260400190565b60405180910390a2612fdd8585612fe5565b5050505b5050565b60008281526034602052604081206001810154613003575050612fe1565b8054801561302557600081815260348401602052604090206002808401549101555b600282015480156130455760008181526034850160205260409020835490555b6000868152603385016020908152604080832060048101548452603588019092529182902091517f6c697374656400000000000000000000000000000000000000000000000000008152909188916006019081526020016040518091039020541415613100576002840154600482015460009081526035870160205260409081902090517f6c697374656400000000000000000000000000000000000000000000000000008152600601908152604051908190036020019020555b600060018501819055808555600290940184905586845260368501602052604090932080549093909250821561314a57600083815260368601602052604090206002808601549101555b60028401549150811561316c5760008281526036860160205260409020845490555b506000868152603385016020908152604080832073ffffffffffffffffffffffffffffffffffffffff89168452603788018352818420600482015485529092529182902091517f6c69737465640000000000000000000000000000000000000000000000000000815290918891600601908152602001604051809103902054141561326757600284015473ffffffffffffffffffffffffffffffffffffffff871660009081526037870160209081526040808320600486015484529091529081902090517f6c697374656400000000000000000000000000000000000000000000000000008152600601908152604051908190036020019020555b600060018501819055808555600285015560048101546040805191825242602083015288917fd309bba073dd463d9d78e92766d06da7cde7d0e6e83149168a7bc913c9ecc442910160405180910390a250505050505050565b604051806102e001604052806000815260200160608152602001600073ffffffffffffffffffffffffffffffffffffffff168152602001600081526020016000815260200161330d6133c4565b815260200161331a6133c4565b8152602001613327613408565b8152602001600073ffffffffffffffffffffffffffffffffffffffff168152602001600073ffffffffffffffffffffffffffffffffffffffff1681526020016000815260200160008152602001600081526020016000815260200160008152602001600081526020016000815260200160008152602001600081526020016000815260200160008152602001600015158152602001606081525090565b6040518060c001604052806006906020820280368337509192915050565b60405180606001604052806000815260200160008152602001613403613427565b905290565b6040518061020001604052806010906020820280368337509192915050565b6040518061024001604052806060815260200160608152602001606081526020016134506133c4565b815260200161345d613408565b8152602001606081526020016134a06040518060800160405280600060ff168152602001600060ff168152602001600060ff168152602001600060ff1681525090565b815260006020820181905260408201819052606082018190526080820181905260a0820181905260c0820181905260e082018190526101008201819052610120820181905261014082018190526101609091015290565b60008083601f840112613508578182fd5b50813567ffffffffffffffff81111561351f578182fd5b60208301915083602082850101111561353757600080fd5b9250929050565b60006020828403121561354f578081fd5b8135611c10816142f7565b60006020828403121561356b578081fd5b8151611c10816142f7565b60008060408385031215613588578081fd5b8235613593816142f7565b915060208301356135a3816142f7565b809150509250929050565b600080600080600080608087890312156135c6578182fd5b86356135d1816142f7565b955060208701356135e1816142f7565b9450604087013567ffffffffffffffff808211156135fd578384fd5b818901915089601f830112613610578384fd5b81358181111561361e578485fd5b8a60208083028501011115613631578485fd5b60208301965080955050606089013591508082111561364e578384fd5b5061365b89828a016134f7565b979a9699509497509295939492505050565b600080600060608486031215613681578283fd5b833561368c816142f7565b9250602084013561369c816142f7565b929592945050506040919091013590565b6000806000806000608086880312156136c4578081fd5b85356136cf816142f7565b945060208601356136df816142f7565b935060408601359250606086013567ffffffffffffffff811115613701578182fd5b61370d888289016134f7565b969995985093965092949392505050565b60008060408385031215613730578182fd5b823561373b816142f7565b9150602083013580151581146135a3578182fd5b60008060408385031215613761578182fd5b823561376c816142f7565b946020939093013593505050565b60006020828403121561378b578081fd5b81517fffffffff0000000000000000000000000000000000000000000000000000000081168114611c10578182fd5b6000602082840312156137cb578081fd5b5035919050565b6000602082840312156137e3578081fd5b5051919050565b8060005b6010811015610b0757815115158452602093840193909101906001016137ee565b8060005b6006811015610b07578151600190810b85526020948501949092019101613813565b806000805b6006811015612fdd578251820b85526020948501949092019160010161383a565b6000815180845260208085018081965082840281019150828601855b85811015613a5b5782840389528151606081518652868201518787015260408083015192508181880152825161052080848a01526138b96105808a0183613acc565b9150898501517fffffffffffffffffffffffffffffffffffffffffffffffffffffffffffffffa06080818c860301818d01526138f58584613acc565b945085880151955060a09250818c860301838d01526139148587613acc565b9688015196955060c0945061392b8c860188613835565b870151955061018061393f8c8201886137ea565b828801519650818c8703016103808d015261395a8688613a8f565b965084880151955061399d6103a08d018760ff815116825260ff602082015116602083015260ff604082015116604083015260ff60608201511660608301525050565b60e08801516104208d01526101008801516104408d01526101208801516104608d015261014088015163ffffffff166104808d015261016088015160ff166104a08d01528701518015156104c08d015294506139f7915050565b6101a085015161ffff166104e08a01526101c085015115156105008a01526101e085015160ff1690890152505061020082015160010b6105408701526102209091015163ffffffff8116610560870152909986019994505090840190600101613877565b5091979650505050505050565b8060005b6010811015610b0757815161ffff16845260209384019390910190600101613a6c565b6000815180845260208085019450808401835b83811015613ac157815160ff1687529582019590820190600101613aa2565b509495945050505050565b60008151808452613ae4816020860160208601614215565b601f017fffffffffffffffffffffffffffffffffffffffffffffffffffffffffffffffe0169290920160200192915050565b6000610600825184526020830151816020860152613b3682860182613acc565b9150506040830151613b60604086018273ffffffffffffffffffffffffffffffffffffffff169052565b50606083015160608501526080830151608085015260a0830151613b8760a086018261380f565b5060c0830151610160613b9c8187018361380f565b60e08501519150610220613bb281880184613a68565b61010086015173ffffffffffffffffffffffffffffffffffffffff90811661042089015261012087015116610440880152610140860151610460880152908501516104808701526101808501516104a08701526101a08501516104c08701526101c08501516104e08701526101e0850151610500870152610200850151610520870152840151610540860152506102408301516105608501526102608301516105808501526102808301516105a08501526102a083015115156105c08501526102c08301518482036105e0860152613c8a828261385b565b95945050505050565b60008351613ca5818460208801614215565b835190830190613cb9818360208801614215565b01949350505050565b60008251613cd4818460208701614215565b7f3000000000000000000000000000000000000000000000000000000000000000920191825250600101919050565b600073ffffffffffffffffffffffffffffffffffffffff808716835280861660208401525083604083015260806060830152613d426080830184613acc565b9695505050505050565b6000602080830181845280855180835260408601915060408482028701019250838701855b82811015613dbd577fffffffffffffffffffffffffffffffffffffffffffffffffffffffffffffffc0888603018452613dab858351613b16565b94509285019290850190600101613d71565b5092979650505050505050565b6020808252825182820181905260009190848201906040850190845b81811015613e0857835163ffffffff1683529284019291840191600101613de6565b50909695505050505050565b600060208252611c106020830184613acc565b600060208252611c106020830184613b16565b60008160010b8360010b82821282617fff03821381151615613e5e57613e5e6142c8565b827fffffffffffffffffffffffffffffffffffffffffffffffffffffffffffff8000038212811615613e9257613e926142c8565b50019392505050565b6000808212827f7fffffffffffffffffffffffffffffffffffffffffffffffffffffffffffffff03841381151615613ed557613ed56142c8565b827f8000000000000000000000000000000000000000000000000000000000000000038412811615613f0957613f096142c8565b50500190565b60008219821115613f2257613f226142c8565b500190565b600082613f5b577f4e487b710000000000000000000000000000000000000000000000000000000081526012600452602481fd5b500490565b80825b6001808611613f725750613f9d565b818704821115613f8457613f846142c8565b80861615613f9157918102915b9490941c938002613f63565b94509492505050565b6000611c107fffffffffffffffffffffffffffffffffffffffffffffffffffffffffffffffff60ff851684600082613fe057506001611c10565b81613fed57506000611c10565b8160018114614003576002811461400d5761403a565b6001915050611c10565b60ff84111561401e5761401e6142c8565b6001841b915084821115614034576140346142c8565b50611c10565b5060208310610133831016604e8410600b841016171561406d575081810a83811115614068576140686142c8565b611c10565b61407a8484846001613f60565b80860482111561408c5761408c6142c8565b02949350505050565b60007f7fffffffffffffffffffffffffffffffffffffffffffffffffffffffffffffff818413828413858304851182821616156140d4576140d46142c8565b7f80000000000000000000000000000000000000000000000000000000000000008487128682058812818416161561410e5761410e6142c8565b858712925087820587128484161615614129576141296142c8565b8785058712818416161561413f5761413f6142c8565b505050929093029392505050565b6000817fffffffffffffffffffffffffffffffffffffffffffffffffffffffffffffffff0483118215151615614185576141856142c8565b500290565b6000808312837f8000000000000000000000000000000000000000000000000000000000000000018312811516156141c4576141c46142c8565b837f7fffffffffffffffffffffffffffffffffffffffffffffffffffffffffffffff0183138116156141f8576141f86142c8565b50500390565b600082821015614210576142106142c8565b500390565b60005b83811015614230578181015183820152602001614218565b83811115610b075750506000910152565b60028104600182168061425557607f821691505b6020821081141561150d577f4e487b7100000000000000000000000000000000000000000000000000000000600052602260045260246000fd5b60007fffffffffffffffffffffffffffffffffffffffffffffffffffffffffffffffff8214156142c1576142c16142c8565b5060010190565b7f4e487b7100000000000000000000000000000000000000000000000000000000600052601160045260246000fd5b73ffffffffffffffffffffffffffffffffffffffff8116811461431957600080fd5b5056fea164736f6c6343000802000a",
  "linkReferences": {},
  "deployedLinkReferences": {}
}