{
  "_format": "hh-sol-artifact-1",
  "contractName": "DAOFacet",
  "sourceName": "contracts/Tokenatxor/facets/DAOFacet.sol",
  "abi": [
    {
      "anonymous": false,
      "inputs": [
        {
          "components": [
            {
              "internalType": "address",
              "name": "collateralType",
              "type": "address"
            },
            {
              "components": [
                {
                  "internalType": "int16[6]",
                  "name": "modifiers",
                  "type": "int16[6]"
                },
                {
                  "internalType": "bytes3",
                  "name": "primaryColor",
                  "type": "bytes3"
                },
                {
                  "internalType": "bytes3",
                  "name": "secondaryColor",
                  "type": "bytes3"
                },
                {
                  "internalType": "bytes3",
                  "name": "cheekColor",
                  "type": "bytes3"
                },
                {
                  "internalType": "uint8",
                  "name": "svgId",
                  "type": "uint8"
                },
                {
                  "internalType": "uint8",
                  "name": "expressionSvgId",
                  "type": "uint8"
                },
                {
                  "internalType": "uint16",
                  "name": "conversionRate",
                  "type": "uint16"
                },
                {
                  "internalType": "bool",
                  "name": "delisted",
                  "type": "bool"
                }
              ],
              "internalType": "struct TokenatxorCollateralTypeInfo",
              "name": "collateralTypeInfo",
              "type": "tuple"
            }
          ],
          "indexed": false,
          "internalType": "struct TokenatxorCollateralTypeIO",
          "name": "_collateralType",
          "type": "tuple"
        }
      ],
      "name": "AddCollateralType",
      "type": "event"
    },
    {
      "anonymous": false,
      "inputs": [
        {
          "components": [
            {
              "internalType": "string",
              "name": "name",
              "type": "string"
            },
            {
              "internalType": "uint8[]",
              "name": "allowedCollaterals",
              "type": "uint8[]"
            },
            {
              "internalType": "uint16[]",
              "name": "equippableIds",
              "type": "uint16[]"
            },
            {
              "internalType": "int8[5]",
              "name": "traitsBonuses",
              "type": "int8[5]"
            }
          ],
          "indexed": false,
          "internalType": "struct EquippableSet",
          "name": "_equippableSet",
          "type": "tuple"
        }
      ],
      "name": "AddEquippableSet",
      "type": "event"
    },
    {
      "anonymous": false,
      "inputs": [
        {
          "components": [
            {
              "internalType": "string",
              "name": "name",
              "type": "string"
            },
            {
              "internalType": "string",
              "name": "description",
              "type": "string"
            },
            {
              "internalType": "string",
              "name": "author",
              "type": "string"
            },
            {
              "internalType": "int8[6]",
              "name": "traitModifiers",
              "type": "int8[6]"
            },
            {
              "internalType": "bool[16]",
              "name": "slotPositions",
              "type": "bool[16]"
            },
            {
              "internalType": "uint8[]",
              "name": "allowedCollaterals",
              "type": "uint8[]"
            },
            {
              "components": [
                {
                  "internalType": "uint8",
                  "name": "x",
                  "type": "uint8"
                },
                {
                  "internalType": "uint8",
                  "name": "y",
                  "type": "uint8"
                },
                {
                  "internalType": "uint8",
                  "name": "width",
                  "type": "uint8"
                },
                {
                  "internalType": "uint8",
                  "name": "height",
                  "type": "uint8"
                }
              ],
              "internalType": "struct Dimensions",
              "name": "dimensions",
              "type": "tuple"
            },
            {
              "internalType": "uint256",
              "name": "tktrPrice",
              "type": "uint256"
            },
            {
              "internalType": "uint256",
              "name": "maxQuantity",
              "type": "uint256"
            },
            {
              "internalType": "uint256",
              "name": "totalQuantity",
              "type": "uint256"
            },
            {
              "internalType": "uint32",
              "name": "svgId",
              "type": "uint32"
            },
            {
              "internalType": "uint8",
              "name": "rarityScoreModifier",
              "type": "uint8"
            },
            {
              "internalType": "bool",
              "name": "canPurchaseWithTktr",
              "type": "bool"
            },
            {
              "internalType": "uint16",
              "name": "minLevel",
              "type": "uint16"
            },
            {
              "internalType": "bool",
              "name": "canBeTransferred",
              "type": "bool"
            },
            {
              "internalType": "uint8",
              "name": "category",
              "type": "uint8"
            },
            {
              "internalType": "int16",
              "name": "wisdomBonus",
              "type": "int16"
            },
            {
              "internalType": "uint32",
              "name": "experienceBonus",
              "type": "uint32"
            }
          ],
          "indexed": false,
          "internalType": "struct ItemType",
          "name": "_itemType",
          "type": "tuple"
        }
      ],
      "name": "AddItemType",
      "type": "event"
    },
    {
      "anonymous": false,
      "inputs": [
        {
          "indexed": true,
          "internalType": "uint256",
          "name": "_productionId",
          "type": "uint256"
        },
        {
          "indexed": false,
          "internalType": "uint256",
          "name": "_productionMaxSize",
          "type": "uint256"
        },
        {
          "indexed": false,
          "internalType": "uint256",
          "name": "_productionPrice",
          "type": "uint256"
        },
        {
          "indexed": false,
          "internalType": "bytes32",
          "name": "_bodyColor",
          "type": "bytes32"
        }
      ],
      "name": "CreateProduction",
      "type": "event"
    },
    {
      "anonymous": false,
      "inputs": [
        {
          "indexed": true,
          "internalType": "address",
          "name": "previousDao",
          "type": "address"
        },
        {
          "indexed": true,
          "internalType": "address",
          "name": "newDao",
          "type": "address"
        }
      ],
      "name": "DaoTransferred",
      "type": "event"
    },
    {
      "anonymous": false,
      "inputs": [
        {
          "indexed": true,
          "internalType": "address",
          "name": "previousDaoTreasury",
          "type": "address"
        },
        {
          "indexed": true,
          "internalType": "address",
          "name": "newDaoTreasury",
          "type": "address"
        }
      ],
      "name": "DaoTreasuryTransferred",
      "type": "event"
    },
    {
      "anonymous": false,
      "inputs": [
        {
          "indexed": false,
          "internalType": "uint256",
          "name": "_equippableId",
          "type": "uint256"
        },
        {
          "indexed": false,
          "internalType": "bool[16]",
          "name": "_slotPositions",
          "type": "bool[16]"
        }
      ],
      "name": "EquippableSlotPositionsSet",
      "type": "event"
    },
    {
      "anonymous": false,
      "inputs": [
        {
          "indexed": true,
          "internalType": "address",
          "name": "gameManager_",
          "type": "address"
        },
        {
          "indexed": true,
          "internalType": "uint256",
          "name": "limit_",
          "type": "uint256"
        },
        {
          "indexed": false,
          "internalType": "uint256",
          "name": "refreshTime_",
          "type": "uint256"
        }
      ],
      "name": "GameManagerAdded",
      "type": "event"
    },
    {
      "anonymous": false,
      "inputs": [
        {
          "indexed": true,
          "internalType": "address",
          "name": "gameManager_",
          "type": "address"
        }
      ],
      "name": "GameManagerRemoved",
      "type": "event"
    },
    {
      "anonymous": false,
      "inputs": [
        {
          "indexed": false,
          "internalType": "uint256[]",
          "name": "_tokenIds",
          "type": "uint256[]"
        },
        {
          "indexed": false,
          "internalType": "uint256[]",
          "name": "_xpValues",
          "type": "uint256[]"
        }
      ],
      "name": "GrantExperience",
      "type": "event"
    },
    {
      "anonymous": false,
      "inputs": [
        {
          "indexed": true,
          "internalType": "address",
          "name": "newItemManager_",
          "type": "address"
        }
      ],
      "name": "ItemManagerAdded",
      "type": "event"
    },
    {
      "anonymous": false,
      "inputs": [
        {
          "indexed": true,
          "internalType": "address",
          "name": "itemManager_",
          "type": "address"
        }
      ],
      "name": "ItemManagerRemoved",
      "type": "event"
    },
    {
      "anonymous": false,
      "inputs": [
        {
          "indexed": false,
          "internalType": "uint256",
          "name": "_equippableId",
          "type": "uint256"
        },
        {
          "indexed": false,
          "internalType": "int8[6]",
          "name": "_traitModifiers",
          "type": "int8[6]"
        },
        {
          "indexed": false,
          "internalType": "uint8",
          "name": "_rarityScoreModifier",
          "type": "uint8"
        }
      ],
      "name": "ItemModifiersSet",
      "type": "event"
    },
    {
      "anonymous": false,
      "inputs": [
        {
          "indexed": false,
          "internalType": "uint256[]",
          "name": "_itemIds",
          "type": "uint256[]"
        },
        {
          "indexed": false,
          "internalType": "uint256[]",
          "name": "_maxQuanities",
          "type": "uint256[]"
        }
      ],
      "name": "ItemTypeMaxQuantity",
      "type": "event"
    },
    {
      "anonymous": false,
      "inputs": [
        {
          "indexed": false,
          "internalType": "uint256[]",
          "name": "_tokenIds",
          "type": "uint256[]"
        },
        {
          "indexed": false,
          "internalType": "uint256[]",
          "name": "_xpValues",
          "type": "uint256[]"
        }
      ],
      "name": "RemoveExperience",
      "type": "event"
    },
    {
      "anonymous": false,
      "inputs": [
        {
          "indexed": false,
          "internalType": "int16[6]",
          "name": "_oldModifiers",
          "type": "int16[6]"
        },
        {
          "indexed": false,
          "internalType": "int16[6]",
          "name": "_newModifiers",
          "type": "int16[6]"
        }
      ],
      "name": "UpdateCollateralModifiers",
      "type": "event"
    },
    {
      "anonymous": false,
      "inputs": [
        {
          "indexed": false,
          "internalType": "uint256",
          "name": "_setId",
          "type": "uint256"
        },
        {
          "components": [
            {
              "internalType": "string",
              "name": "name",
              "type": "string"
            },
            {
              "internalType": "uint8[]",
              "name": "allowedCollaterals",
              "type": "uint8[]"
            },
            {
              "internalType": "uint16[]",
              "name": "equippableIds",
              "type": "uint16[]"
            },
            {
              "internalType": "int8[5]",
              "name": "traitsBonuses",
              "type": "int8[5]"
            }
          ],
          "indexed": false,
          "internalType": "struct EquippableSet",
          "name": "_equippableSet",
          "type": "tuple"
        }
      ],
      "name": "UpdateEquippableSet",
      "type": "event"
    },
    {
      "inputs": [
        {
          "internalType": "uint256",
          "name": "_productionId",
          "type": "uint256"
        },
        {
          "components": [
            {
              "internalType": "address",
              "name": "collateralType",
              "type": "address"
            },
            {
              "components": [
                {
                  "internalType": "int16[6]",
                  "name": "modifiers",
                  "type": "int16[6]"
                },
                {
                  "internalType": "bytes3",
                  "name": "primaryColor",
                  "type": "bytes3"
                },
                {
                  "internalType": "bytes3",
                  "name": "secondaryColor",
                  "type": "bytes3"
                },
                {
                  "internalType": "bytes3",
                  "name": "cheekColor",
                  "type": "bytes3"
                },
                {
                  "internalType": "uint8",
                  "name": "svgId",
                  "type": "uint8"
                },
                {
                  "internalType": "uint8",
                  "name": "expressionSvgId",
                  "type": "uint8"
                },
                {
                  "internalType": "uint16",
                  "name": "conversionRate",
                  "type": "uint16"
                },
                {
                  "internalType": "bool",
                  "name": "delisted",
                  "type": "bool"
                }
              ],
              "internalType": "struct TokenatxorCollateralTypeInfo",
              "name": "collateralTypeInfo",
              "type": "tuple"
            }
          ],
          "internalType": "struct TokenatxorCollateralTypeIO[]",
          "name": "_collateralTypes",
          "type": "tuple[]"
        }
      ],
      "name": "addCollateralTypes",
      "outputs": [],
      "stateMutability": "nonpayable",
      "type": "function"
    },
    {
      "inputs": [
        {
          "components": [
            {
              "internalType": "string",
              "name": "name",
              "type": "string"
            },
            {
              "internalType": "uint8[]",
              "name": "allowedCollaterals",
              "type": "uint8[]"
            },
            {
              "internalType": "uint16[]",
              "name": "equippableIds",
              "type": "uint16[]"
            },
            {
              "internalType": "int8[5]",
              "name": "traitsBonuses",
              "type": "int8[5]"
            }
          ],
          "internalType": "struct EquippableSet[]",
          "name": "_equippableSets",
          "type": "tuple[]"
        }
      ],
      "name": "addEquippableSets",
      "outputs": [],
      "stateMutability": "nonpayable",
      "type": "function"
    },
    {
      "inputs": [
        {
          "internalType": "address[]",
          "name": "_newGameManagers",
          "type": "address[]"
        },
        {
          "internalType": "uint256[]",
          "name": "_limits",
          "type": "uint256[]"
        }
      ],
      "name": "addGameManagers",
      "outputs": [],
      "stateMutability": "nonpayable",
      "type": "function"
    },
    {
      "inputs": [
        {
          "internalType": "address[]",
          "name": "_newItemManagers",
          "type": "address[]"
        }
      ],
      "name": "addItemManagers",
      "outputs": [],
      "stateMutability": "nonpayable",
      "type": "function"
    },
    {
      "inputs": [
        {
          "components": [
            {
              "internalType": "string",
              "name": "name",
              "type": "string"
            },
            {
              "internalType": "string",
              "name": "description",
              "type": "string"
            },
            {
              "internalType": "string",
              "name": "author",
              "type": "string"
            },
            {
              "internalType": "int8[6]",
              "name": "traitModifiers",
              "type": "int8[6]"
            },
            {
              "internalType": "bool[16]",
              "name": "slotPositions",
              "type": "bool[16]"
            },
            {
              "internalType": "uint8[]",
              "name": "allowedCollaterals",
              "type": "uint8[]"
            },
            {
              "components": [
                {
                  "internalType": "uint8",
                  "name": "x",
                  "type": "uint8"
                },
                {
                  "internalType": "uint8",
                  "name": "y",
                  "type": "uint8"
                },
                {
                  "internalType": "uint8",
                  "name": "width",
                  "type": "uint8"
                },
                {
                  "internalType": "uint8",
                  "name": "height",
                  "type": "uint8"
                }
              ],
              "internalType": "struct Dimensions",
              "name": "dimensions",
              "type": "tuple"
            },
            {
              "internalType": "uint256",
              "name": "tktrPrice",
              "type": "uint256"
            },
            {
              "internalType": "uint256",
              "name": "maxQuantity",
              "type": "uint256"
            },
            {
              "internalType": "uint256",
              "name": "totalQuantity",
              "type": "uint256"
            },
            {
              "internalType": "uint32",
              "name": "svgId",
              "type": "uint32"
            },
            {
              "internalType": "uint8",
              "name": "rarityScoreModifier",
              "type": "uint8"
            },
            {
              "internalType": "bool",
              "name": "canPurchaseWithTktr",
              "type": "bool"
            },
            {
              "internalType": "uint16",
              "name": "minLevel",
              "type": "uint16"
            },
            {
              "internalType": "bool",
              "name": "canBeTransferred",
              "type": "bool"
            },
            {
              "internalType": "uint8",
              "name": "category",
              "type": "uint8"
            },
            {
              "internalType": "int16",
              "name": "wisdomBonus",
              "type": "int16"
            },
            {
              "internalType": "uint32",
              "name": "experienceBonus",
              "type": "uint32"
            }
          ],
          "internalType": "struct ItemType[]",
          "name": "_itemTypes",
          "type": "tuple[]"
        }
      ],
      "name": "addItemTypes",
      "outputs": [],
      "stateMutability": "nonpayable",
      "type": "function"
    },
    {
      "inputs": [
        {
          "components": [
            {
              "internalType": "string",
              "name": "name",
              "type": "string"
            },
            {
              "internalType": "string",
              "name": "description",
              "type": "string"
            },
            {
              "internalType": "string",
              "name": "author",
              "type": "string"
            },
            {
              "internalType": "int8[6]",
              "name": "traitModifiers",
              "type": "int8[6]"
            },
            {
              "internalType": "bool[16]",
              "name": "slotPositions",
              "type": "bool[16]"
            },
            {
              "internalType": "uint8[]",
              "name": "allowedCollaterals",
              "type": "uint8[]"
            },
            {
              "components": [
                {
                  "internalType": "uint8",
                  "name": "x",
                  "type": "uint8"
                },
                {
                  "internalType": "uint8",
                  "name": "y",
                  "type": "uint8"
                },
                {
                  "internalType": "uint8",
                  "name": "width",
                  "type": "uint8"
                },
                {
                  "internalType": "uint8",
                  "name": "height",
                  "type": "uint8"
                }
              ],
              "internalType": "struct Dimensions",
              "name": "dimensions",
              "type": "tuple"
            },
            {
              "internalType": "uint256",
              "name": "tktrPrice",
              "type": "uint256"
            },
            {
              "internalType": "uint256",
              "name": "maxQuantity",
              "type": "uint256"
            },
            {
              "internalType": "uint256",
              "name": "totalQuantity",
              "type": "uint256"
            },
            {
              "internalType": "uint32",
              "name": "svgId",
              "type": "uint32"
            },
            {
              "internalType": "uint8",
              "name": "rarityScoreModifier",
              "type": "uint8"
            },
            {
              "internalType": "bool",
              "name": "canPurchaseWithTktr",
              "type": "bool"
            },
            {
              "internalType": "uint16",
              "name": "minLevel",
              "type": "uint16"
            },
            {
              "internalType": "bool",
              "name": "canBeTransferred",
              "type": "bool"
            },
            {
              "internalType": "uint8",
              "name": "category",
              "type": "uint8"
            },
            {
              "internalType": "int16",
              "name": "wisdomBonus",
              "type": "int16"
            },
            {
              "internalType": "uint32",
              "name": "experienceBonus",
              "type": "uint32"
            }
          ],
          "internalType": "struct ItemType[]",
          "name": "_itemTypes",
          "type": "tuple[]"
        },
        {
          "internalType": "string",
          "name": "_svg",
          "type": "string"
        },
        {
          "components": [
            {
              "internalType": "bytes32",
              "name": "svgType",
              "type": "bytes32"
            },
            {
              "internalType": "uint256[]",
              "name": "sizes",
              "type": "uint256[]"
            }
          ],
          "internalType": "struct LibSvg.SvgTypeAndSizes[]",
          "name": "_typesAndSizes",
          "type": "tuple[]"
        }
      ],
      "name": "addItemTypesAndSvgs",
      "outputs": [],
      "stateMutability": "nonpayable",
      "type": "function"
    },
    {
      "inputs": [
        {
          "internalType": "uint24",
          "name": "_productionMaxSize",
          "type": "uint24"
        },
        {
          "internalType": "uint96",
          "name": "_productionPrice",
          "type": "uint96"
        },
        {
          "internalType": "bytes3",
          "name": "_bodyColor",
          "type": "bytes3"
        }
      ],
      "name": "createProduction",
      "outputs": [
        {
          "internalType": "uint256",
          "name": "productionId_",
          "type": "uint256"
        }
      ],
      "stateMutability": "nonpayable",
      "type": "function"
    },
    {
      "inputs": [
        {
          "components": [
            {
              "internalType": "uint24",
              "name": "_productionMaxSize",
              "type": "uint24"
            },
            {
              "internalType": "uint96",
              "name": "_productionPrice",
              "type": "uint96"
            },
            {
              "internalType": "bytes3",
              "name": "_bodyColor",
              "type": "bytes3"
            },
            {
              "components": [
                {
                  "internalType": "address",
                  "name": "collateralType",
                  "type": "address"
                },
                {
                  "components": [
                    {
                      "internalType": "int16[6]",
                      "name": "modifiers",
                      "type": "int16[6]"
                    },
                    {
                      "internalType": "bytes3",
                      "name": "primaryColor",
                      "type": "bytes3"
                    },
                    {
                      "internalType": "bytes3",
                      "name": "secondaryColor",
                      "type": "bytes3"
                    },
                    {
                      "internalType": "bytes3",
                      "name": "cheekColor",
                      "type": "bytes3"
                    },
                    {
                      "internalType": "uint8",
                      "name": "svgId",
                      "type": "uint8"
                    },
                    {
                      "internalType": "uint8",
                      "name": "expressionSvgId",
                      "type": "uint8"
                    },
                    {
                      "internalType": "uint16",
                      "name": "conversionRate",
                      "type": "uint16"
                    },
                    {
                      "internalType": "bool",
                      "name": "delisted",
                      "type": "bool"
                    }
                  ],
                  "internalType": "struct TokenatxorCollateralTypeInfo",
                  "name": "collateralTypeInfo",
                  "type": "tuple"
                }
              ],
              "internalType": "struct TokenatxorCollateralTypeIO[]",
              "name": "_collateralTypes",
              "type": "tuple[]"
            },
            {
              "internalType": "string",
              "name": "_collateralSvg",
              "type": "string"
            },
            {
              "components": [
                {
                  "internalType": "bytes32",
                  "name": "svgType",
                  "type": "bytes32"
                },
                {
                  "internalType": "uint256[]",
                  "name": "sizes",
                  "type": "uint256[]"
                }
              ],
              "internalType": "struct LibSvg.SvgTypeAndSizes[]",
              "name": "_collateralTypesAndSizes",
              "type": "tuple[]"
            },
            {
              "internalType": "string",
              "name": "_expressionSvg",
              "type": "string"
            },
            {
              "components": [
                {
                  "internalType": "bytes32",
                  "name": "svgType",
                  "type": "bytes32"
                },
                {
                  "internalType": "uint256[]",
                  "name": "sizes",
                  "type": "uint256[]"
                }
              ],
              "internalType": "struct LibSvg.SvgTypeAndSizes[]",
              "name": "_expressionTypesAndSizes",
              "type": "tuple[]"
            }
          ],
          "internalType": "struct DAOFacet.CreateProductionPayload",
          "name": "_payload",
          "type": "tuple"
        }
      ],
      "name": "createProductionWithPayload",
      "outputs": [
        {
          "internalType": "uint256",
          "name": "productionId_",
          "type": "uint256"
        }
      ],
      "stateMutability": "nonpayable",
      "type": "function"
    },
    {
      "inputs": [
        {
          "internalType": "address",
          "name": "_manager",
          "type": "address"
        }
      ],
      "name": "gameManagerBalance",
      "outputs": [
        {
          "internalType": "uint256",
          "name": "",
          "type": "uint256"
        }
      ],
      "stateMutability": "view",
      "type": "function"
    },
    {
      "inputs": [
        {
          "internalType": "address",
          "name": "_manager",
          "type": "address"
        }
      ],
      "name": "gameManagerRefreshTime",
      "outputs": [
        {
          "internalType": "uint256",
          "name": "",
          "type": "uint256"
        }
      ],
      "stateMutability": "view",
      "type": "function"
    },
    {
      "inputs": [
        {
          "internalType": "uint256[]",
          "name": "_tokenIds",
          "type": "uint256[]"
        },
        {
          "internalType": "uint256[]",
          "name": "_xpValues",
          "type": "uint256[]"
        }
      ],
      "name": "grantExperience",
      "outputs": [],
      "stateMutability": "nonpayable",
      "type": "function"
    },
    {
      "inputs": [
        {
          "internalType": "address",
          "name": "_manager",
          "type": "address"
        }
      ],
      "name": "isGameManager",
      "outputs": [
        {
          "internalType": "bool",
          "name": "",
          "type": "bool"
        }
      ],
      "stateMutability": "view",
      "type": "function"
    },
    {
      "inputs": [
        {
          "internalType": "address",
          "name": "_to",
          "type": "address"
        },
        {
          "internalType": "uint256[]",
          "name": "_itemIds",
          "type": "uint256[]"
        },
        {
          "internalType": "uint256[]",
          "name": "_quantities",
          "type": "uint256[]"
        }
      ],
      "name": "mintItems",
      "outputs": [],
      "stateMutability": "nonpayable",
      "type": "function"
    },
    {
      "inputs": [
        {
          "internalType": "uint256[]",
          "name": "_tokenIds",
          "type": "uint256[]"
        },
        {
          "internalType": "uint256[]",
          "name": "_xpValues",
          "type": "uint256[]"
        }
      ],
      "name": "removeExperience",
      "outputs": [],
      "stateMutability": "nonpayable",
      "type": "function"
    },
    {
      "inputs": [
        {
          "internalType": "address[]",
          "name": "_gameManagers",
          "type": "address[]"
        }
      ],
      "name": "removeGameManagers",
      "outputs": [],
      "stateMutability": "nonpayable",
      "type": "function"
    },
    {
      "inputs": [
        {
          "internalType": "address[]",
          "name": "_itemManagers",
          "type": "address[]"
        }
      ],
      "name": "removeItemManagers",
      "outputs": [],
      "stateMutability": "nonpayable",
      "type": "function"
    },
    {
      "inputs": [
        {
          "internalType": "address",
          "name": "_newDao",
          "type": "address"
        },
        {
          "internalType": "address",
          "name": "_newDaoTreasury",
          "type": "address"
        }
      ],
      "name": "setDao",
      "outputs": [],
      "stateMutability": "nonpayable",
      "type": "function"
    },
    {
      "inputs": [
        {
          "internalType": "uint256",
          "name": "_equippableId",
          "type": "uint256"
        },
        {
          "internalType": "bool[16]",
          "name": "_slotPositions",
          "type": "bool[16]"
        }
      ],
      "name": "setEquippableSlotPositions",
      "outputs": [],
      "stateMutability": "nonpayable",
      "type": "function"
    },
    {
      "inputs": [
        {
          "internalType": "uint256",
          "name": "_equippableId",
          "type": "uint256"
        },
        {
          "internalType": "int8[6]",
          "name": "_traitModifiers",
          "type": "int8[6]"
        },
        {
          "internalType": "uint8",
          "name": "_rarityScoreModifier",
          "type": "uint8"
        }
      ],
      "name": "setItemTraitModifiersAndRarityModifier",
      "outputs": [],
      "stateMutability": "nonpayable",
      "type": "function"
    },
    {
      "inputs": [
        {
          "internalType": "address",
          "name": "_collateralType",
          "type": "address"
        },
        {
          "internalType": "int16[6]",
          "name": "_modifiers",
          "type": "int16[6]"
        }
      ],
      "name": "updateCollateralModifiers",
      "outputs": [],
      "stateMutability": "nonpayable",
      "type": "function"
    },
    {
      "inputs": [
        {
          "internalType": "uint256[]",
          "name": "_setIds",
          "type": "uint256[]"
        },
        {
          "components": [
            {
              "internalType": "string",
              "name": "name",
              "type": "string"
            },
            {
              "internalType": "uint8[]",
              "name": "allowedCollaterals",
              "type": "uint8[]"
            },
            {
              "internalType": "uint16[]",
              "name": "equippableIds",
              "type": "uint16[]"
            },
            {
              "internalType": "int8[5]",
              "name": "traitsBonuses",
              "type": "int8[5]"
            }
          ],
          "internalType": "struct EquippableSet[]",
          "name": "_equippableSets",
          "type": "tuple[]"
        }
      ],
      "name": "updateEquippableSets",
      "outputs": [],
      "stateMutability": "nonpayable",
      "type": "function"
    },
    {
      "inputs": [
        {
          "internalType": "uint256[]",
          "name": "_itemIds",
          "type": "uint256[]"
        },
        {
          "internalType": "uint256[]",
          "name": "_maxQuantities",
          "type": "uint256[]"
        }
      ],
      "name": "updateItemTypeMaxQuantity",
      "outputs": [],
      "stateMutability": "nonpayable",
      "type": "function"
    }
  ],
  "bytecode": "0x608060405234801561001057600080fd5b5061697d80620000216000396000f3fe608060405234801561001057600080fd5b50600436106101825760003560e01c806387568523116100d8578063dc2fc08d1161008c578063e9418d9f11610066578063e9418d9f1461033a578063f2413ef41461034d578063fa1a0b211461036057610182565b8063dc2fc08d146102cc578063e045fd04146102df578063e8cba9bd1461032757610182565b80639a494da0116100bd5780639a494da0146102935780639cc9b7a9146102a6578063d781563c146102b957610182565b8063875685231461026d5780638d85c96f1461028057610182565b806351e9dfb41161013a578063735427ee11610114578063735427ee146102345780637655c46d14610247578063773c17aa1461025a57610182565b806351e9dfb4146101fb578063639bafab1461020e5780636826a4151461022157610182565b80631f3d842f1161016b5780631f3d842f146101c25780633a4f0932146101d5578063508335a5146101e857610182565b806315254f091461018757806315c2c5bc146101ad575b600080fd5b61019a6101953660046152c0565b610399565b6040519081526020015b60405180910390f35b6101c06101bb366004614fa5565b610718565b005b6101c06101d0366004614fa5565b610900565b6101c06101e33660046153c3565b610bb7565b6101c06101f6366004614fe5565b611047565b6101c0610209366004614fe5565b6113ab565b6101c061021c366004614fe5565b61176a565b6101c061022f366004614fa5565b611ade565b61019a610242366004615313565b611d75565b6101c0610255366004614fe5565b61203f565b6101c0610268366004614ecb565b612355565b6101c061027b36600461504e565b612532565b6101c061028e366004614f27565b612758565b61019a6102a1366004614eaa565b612c3e565b6101c06102b4366004614efd565b612c6d565b6101c06102c7366004615359565b612df7565b6101c06102da36600461538d565b612fc5565b6103176102ed366004614eaa565b73ffffffffffffffffffffffffffffffffffffffff166000908152603c6020526040902054151590565b60405190151581526020016101a4565b6101c061033536600461518b565b6131fd565b6101c06103483660046151c6565b6132d1565b6101c061035b366004614fe5565b6133ad565b61019a61036e366004614eaa565b73ffffffffffffffffffffffffffffffffffffffff166000908152603c602052604090206002015490565b6000806103a461381f565b73ffffffffffffffffffffffffffffffffffffffff81166000908152603b602052604090205490915060ff161515600114610466576040517f08c379a000000000000000000000000000000000000000000000000000000000815260206004820152603960248201527f4c696241707053746f726167653a206f6e6c7920616e204974656d4d616e616760448201527f65722063616e2063616c6c20746869732066756e6374696f6e0000000000000060648201526084015b60405180910390fd5b601654640100000000900461ffff16600081815260086020526040902080546002909101546301000000900462ffffff1614610524576040517f08c379a000000000000000000000000000000000000000000000000000000000815260206004820152603c60248201527f546f6b656e6174786f7246616365743a2050726f64756374696f6e206d75737460448201527f2062652066756c6c206265666f7265206372656174696e67206e657700000000606482015260840161045d565b61052f816001616046565b9250610542836101e36060870187615e34565b6105646105526080860186615e9a565b61055f60a0880188615dcf565b613889565b61058161057460c0860186615e9a565b61055f60e0880188615dcf565b601680547fffffffffffffffffffffffffffffffffffffffffffffffffffff0000ffffffff1664010000000061ffff8616021790556105c360208501856152f9565b60008481526008602090815260409182902062ffffff939093169092556105ef9190860190860161543e565b600084815260086020526040908190206bffffffffffffffffffffffff929092166001909201919091556106299060608601908601615264565b600084815260086020908152604090912060020180547fffffffffffffffffffffffffffffffffffffffffffffffffffffffffff0000001660e89390931c9290921790915583907fb8de9b8be19b307314b6f8fe69b75fd055ef08487c05351bb27eb720f1f5854e9061069e908701876152f9565b6106ae604088016020890161543e565b6106be6060890160408a01615264565b6040805162ffffff90941684526bffffffffffffffffffffffff90921660208401527fffffff0000000000000000000000000000000000000000000000000000000000169082015260600160405180910390a25050919050565b600061072261381f565b601d5490915073ffffffffffffffffffffffffffffffffffffffff8083169116148061078757507fc8fcad8db84d3cc18b4c41d551ea0ee66dd599cde068d998e57d5e09332c13205473ffffffffffffffffffffffffffffffffffffffff8281169116145b610813576040517f08c379a000000000000000000000000000000000000000000000000000000000815260206004820152602160248201527f4c696241707053746f726167653a20446f206e6f74206861766520616363657360448201527f7300000000000000000000000000000000000000000000000000000000000000606482015260840161045d565b60005b828110156108fa576000848483818110610859577f4e487b7100000000000000000000000000000000000000000000000000000000600052603260045260246000fd5b905060200201602081019061086e9190614eaa565b73ffffffffffffffffffffffffffffffffffffffff81166000818152603b602052604080822080547fffffffffffffffffffffffffffffffffffffffffffffffffffffffffffffff001660011790555192935090917ff2c13b8fd3c40050efb18902b7b0ac37194177559632807f3e848d302f7523889190a250806108f281616378565b915050610816565b50505050565b600061090a61381f565b601d5490915073ffffffffffffffffffffffffffffffffffffffff8083169116148061096f57507fc8fcad8db84d3cc18b4c41d551ea0ee66dd599cde068d998e57d5e09332c13205473ffffffffffffffffffffffffffffffffffffffff8281169116145b6109fb576040517f08c379a000000000000000000000000000000000000000000000000000000000815260206004820152602160248201527f4c696241707053746f726167653a20446f206e6f74206861766520616363657360448201527f7300000000000000000000000000000000000000000000000000000000000000606482015260840161045d565b60005b828110156108fa576000603c81868685818110610a44577f4e487b7100000000000000000000000000000000000000000000000000000000600052603260045260246000fd5b9050602002016020810190610a599190614eaa565b73ffffffffffffffffffffffffffffffffffffffff16815260208101919091526040016000208054909150610b10576040517f08c379a000000000000000000000000000000000000000000000000000000000815260206004820152603760248201527f44414f46616365743a2047616d654d616e6167657220646f6573206e6f74206560448201527f78697374206f7220616c72656164792072656d6f766564000000000000000000606482015260840161045d565b60008155848483818110610b4d577f4e487b7100000000000000000000000000000000000000000000000000000000600052603260045260246000fd5b9050602002016020810190610b629190614eaa565b73ffffffffffffffffffffffffffffffffffffffff167f6de82f827471160af273ccdc03ce8be3a40f2f9fe7fa4110cd02799717bb3d9160405160405180910390a25080610baf81616378565b9150506109fe565b6000610bc161381f565b73ffffffffffffffffffffffffffffffffffffffff81166000908152603b602052604090205490915060ff161515600114610c7e576040517f08c379a000000000000000000000000000000000000000000000000000000000815260206004820152603960248201527f4c696241707053746f726167653a206f6e6c7920616e204974656d4d616e616760448201527f65722063616e2063616c6c20746869732066756e6374696f6e00000000000000606482015260840161045d565b60005b82811015611040576000848483818110610cc4577f4e487b7100000000000000000000000000000000000000000000000000000000600052603260045260246000fd5b610cdb9260206101c0909202019081019150614eaa565b9050848483818110610d16577f4e487b7100000000000000000000000000000000000000000000000000000000600052603260045260246000fd5b90506101c002016020016000800160008373ffffffffffffffffffffffffffffffffffffffff1673ffffffffffffffffffffffffffffffffffffffff1681526020019081526020016000208181610d6d9190616639565b505073ffffffffffffffffffffffffffffffffffffffff81166000908152600160205260408120549081151580610e1857508273ffffffffffffffffffffffffffffffffffffffff166000601901600081548110610df4577f4e487b7100000000000000000000000000000000000000000000000000000000600052603260045260246000fd5b60009182526020909120015473ffffffffffffffffffffffffffffffffffffffff16145b905080610ea35760198054600180820183557f944998273e477b495144fb8794c914197f3ccb46be2900f4698fd0ef743c969590910180547fffffffffffffffffffffffff00000000000000000000000000000000000000001673ffffffffffffffffffffffffffffffffffffffff8716908117909155915460009283526020919091526040909120555b6000805b60008a8152603d6020526040902054811015610f505760008a8152603d60205260408120805483908110610f04577f4e487b7100000000000000000000000000000000000000000000000000000000600052603260045260246000fd5b60009182526020909120015473ffffffffffffffffffffffffffffffffffffffff90811691508616811415610f3d576001925050610f50565b5080610f4881616378565b915050610ea7565b5080611029576000898152603d602090815260408220805460018101825590835291200180547fffffffffffffffffffffffff00000000000000000000000000000000000000001673ffffffffffffffffffffffffffffffffffffffff86161790557fd11bdf7ef8d8a7a30f438b8d0dfbb1bfc628b026cf795062066c59227930ce1888888781811061100c577f4e487b7100000000000000000000000000000000000000000000000000000000600052603260045260246000fd5b90506101c002016040516110209190615b0d565b60405180910390a15b50505050808061103890616378565b915050610c81565b5050505050565b600061105161381f565b73ffffffffffffffffffffffffffffffffffffffff8082166000818152603c6020526040902054601d5493945015159290911614806110c957507fc8fcad8db84d3cc18b4c41d551ea0ee66dd599cde068d998e57d5e09332c13205473ffffffffffffffffffffffffffffffffffffffff8381169116145b806110d15750805b61115d576040517f08c379a000000000000000000000000000000000000000000000000000000000815260206004820152602160248201527f4c696241707053746f726167653a20446f206e6f74206861766520616363657360448201527f7300000000000000000000000000000000000000000000000000000000000000606482015260840161045d565b8483146111ec576040517f08c379a000000000000000000000000000000000000000000000000000000000815260206004820152602860248201527f44414f46616365743a20494473206d757374206d61746368205850206172726160448201527f79206c656e677468000000000000000000000000000000000000000000000000606482015260840161045d565b60005b85811015611365576000878783818110611232577f4e487b7100000000000000000000000000000000000000000000000000000000600052603260045260246000fd5b9050602002013590506000868684818110611276577f4e487b7100000000000000000000000000000000000000000000000000000000600052603260045260246000fd5b905060200201359050806000600d016000848152602001908152602001600020600501541015611328576040517f08c379a000000000000000000000000000000000000000000000000000000000815260206004820152602360248201527f44414f46616365743a2052656d6f766520585020776f756c6420756e6465726660448201527f6c6f770000000000000000000000000000000000000000000000000000000000606482015260840161045d565b6000828152600d60205260408120600501805483929061134990849061605e565b925050819055505050808061135d90616378565b9150506111ef565b507fe5cb108ea929708ba20952182cd7dfa1bbadf852ba26e32433624399a372e6ef8686868660405161139b9493929190615871565b60405180910390a1505050505050565b60006113b561381f565b601d5490915073ffffffffffffffffffffffffffffffffffffffff8083169116148061141a57507fc8fcad8db84d3cc18b4c41d551ea0ee66dd599cde068d998e57d5e09332c13205473ffffffffffffffffffffffffffffffffffffffff8281169116145b6114a6576040517f08c379a000000000000000000000000000000000000000000000000000000000815260206004820152602160248201527f4c696241707053746f726167653a20446f206e6f74206861766520616363657360448201527f7300000000000000000000000000000000000000000000000000000000000000606482015260840161045d565b838214611535576040517f08c379a000000000000000000000000000000000000000000000000000000000815260206004820152603e60248201527f44414f46616365743a204e65772047616d65204d616e616765727320616e642060448201527f4c696d6974732073686f756c6420686176652073616d65206c656e6774680000606482015260840161045d565b60005b84811015611762576000603c8188888581811061157e577f4e487b7100000000000000000000000000000000000000000000000000000000600052603260045260246000fd5b90506020020160208101906115939190614eaa565b73ffffffffffffffffffffffffffffffffffffffff1673ffffffffffffffffffffffffffffffffffffffff1681526020019081526020016000209050848483818110611608577f4e487b7100000000000000000000000000000000000000000000000000000000600052603260045260246000fd5b602002919091013582555084848381811061164c577f4e487b7100000000000000000000000000000000000000000000000000000000600052603260045260246000fd5b60200291909101356001830155506116674262015180616046565b60028201558484838181106116a5577f4e487b7100000000000000000000000000000000000000000000000000000000600052603260045260246000fd5b905060200201358787848181106116e5577f4e487b7100000000000000000000000000000000000000000000000000000000600052603260045260246000fd5b90506020020160208101906116fa9190614eaa565b73ffffffffffffffffffffffffffffffffffffffff167f1938fc3b51efb8e61b7a7a256f8a151ac603027ea5140c46a586f89addeb878a61173e4262015180616046565b60405190815260200160405180910390a3508061175a81616378565b915050611538565b505050505050565b600061177461381f565b73ffffffffffffffffffffffffffffffffffffffff81166000908152603b602052604090205490915060ff161515600114611831576040517f08c379a000000000000000000000000000000000000000000000000000000000815260206004820152603960248201527f4c696241707053746f726167653a206f6e6c7920616e204974656d4d616e616760448201527f65722063616e2063616c6c20746869732066756e6374696f6e00000000000000606482015260840161045d565b8382146118c0576040517f08c379a000000000000000000000000000000000000000000000000000000000815260206004820152603f60248201527f44414f46616365743a205f6974656d496473206c656e677468206e6f7420746860448201527f652073616d65206173205f6e65775175616e746974696573206c656e67746800606482015260840161045d565b60005b84811015611a99576000868683818110611906577f4e487b7100000000000000000000000000000000000000000000000000000000600052603260045260246000fd5b905060200201359050600085858481811061194a577f4e487b7100000000000000000000000000000000000000000000000000000000600052603260045260246000fd5b90506020020135905060006006018281548110611990577f4e487b7100000000000000000000000000000000000000000000000000000000600052603260045260246000fd5b90600052602060002090600b020160090154811015611a31576040517f08c379a000000000000000000000000000000000000000000000000000000000815260206004820152603760248201527f44414f46616365743a206d61785175616e74697479206973206772656174657260448201527f207468616e206578697374696e67207175616e74697479000000000000000000606482015260840161045d565b8060006006018381548110611a6f577f4e487b7100000000000000000000000000000000000000000000000000000000600052603260045260246000fd5b90600052602060002090600b02016008018190555050508080611a9190616378565b9150506118c3565b507fed0d7e009e94bd2e20f7662834be9e6f836aeba52f27e072ee77df28125551a085858585604051611acf9493929190615871565b60405180910390a15050505050565b6000611ae861381f565b601d5490915073ffffffffffffffffffffffffffffffffffffffff80831691161480611b4d57507fc8fcad8db84d3cc18b4c41d551ea0ee66dd599cde068d998e57d5e09332c13205473ffffffffffffffffffffffffffffffffffffffff8281169116145b611bd9576040517f08c379a000000000000000000000000000000000000000000000000000000000815260206004820152602160248201527f4c696241707053746f726167653a20446f206e6f74206861766520616363657360448201527f7300000000000000000000000000000000000000000000000000000000000000606482015260840161045d565b60005b828110156108fa576000848483818110611c1f577f4e487b7100000000000000000000000000000000000000000000000000000000600052603260045260246000fd5b9050602002016020810190611c349190614eaa565b73ffffffffffffffffffffffffffffffffffffffff81166000908152603b602052604090205490915060ff161515600114611cf1576040517f08c379a000000000000000000000000000000000000000000000000000000000815260206004820152603760248201527f44414f46616365743a206974656d4d616e6167657220646f6573206e6f74206560448201527f78697374206f7220616c72656164792072656d6f766564000000000000000000606482015260840161045d565b73ffffffffffffffffffffffffffffffffffffffff81166000818152603b602052604080822080547fffffffffffffffffffffffffffffffffffffffffffffffffffffffffffffff00169055517fcc35a95650199b3391d28b011c4382d94c66a9b64e37b61a37774f68311eef2e9190a25080611d6d81616378565b915050611bdc565b600080611d8061381f565b601d5490915073ffffffffffffffffffffffffffffffffffffffff80831691161480611de557507fc8fcad8db84d3cc18b4c41d551ea0ee66dd599cde068d998e57d5e09332c13205473ffffffffffffffffffffffffffffffffffffffff8281169116145b611e71576040517f08c379a000000000000000000000000000000000000000000000000000000000815260206004820152602160248201527f4c696241707053746f726167653a20446f206e6f74206861766520616363657360448201527f7300000000000000000000000000000000000000000000000000000000000000606482015260840161045d565b601654640100000000900461ffff16600081815260086020526040902080546002909101546301000000900462ffffff1614611f2f576040517f08c379a000000000000000000000000000000000000000000000000000000000815260206004820152603c60248201527f546f6b656e6174786f7246616365743a2050726f64756374696f6e206d75737460448201527f2062652066756c6c206265666f7265206372656174696e67206e657700000000606482015260840161045d565b611f3a816001616046565b601680547fffffffffffffffffffffffffffffffffffffffffffffffffffff0000ffffffff1664010000000061ffff84160217905560008181526008602090815260409182902062ffffff8a168082556bffffffffffffffffffffffff8a1660018301819055600290920180547fffffffffffffffffffffffffffffffffffffffffffffffffffffffffff0000001660e88b901c1790558351908152918201527fffffff000000000000000000000000000000000000000000000000000000000087169181019190915290935083907fb8de9b8be19b307314b6f8fe69b75fd055ef08487c05351bb27eb720f1f5854e9060600160405180910390a250509392505050565b600061204961381f565b73ffffffffffffffffffffffffffffffffffffffff81166000908152603b602052604090205490915060ff161515600114612106576040517f08c379a000000000000000000000000000000000000000000000000000000000815260206004820152603960248201527f4c696241707053746f726167653a206f6e6c7920616e204974656d4d616e616760448201527f65722063616e2063616c6c20746869732066756e6374696f6e00000000000000606482015260840161045d565b838214612195576040517f08c379a000000000000000000000000000000000000000000000000000000000815260206004820152602a60248201527f5f736574496473206e6f742073616d65206c656e677468206173205f6571756960448201527f707061626c655365747300000000000000000000000000000000000000000000606482015260840161045d565b60005b84811015611762578383828181106121d9577f4e487b7100000000000000000000000000000000000000000000000000000000600052603260045260246000fd5b90506020028101906121eb9190615efd565b6007878784818110612226577f4e487b7100000000000000000000000000000000000000000000000000000000600052603260045260246000fd5b9050602002013581548110612264577f4e487b7100000000000000000000000000000000000000000000000000000000600052603260045260246000fd5b9060005260206000209060040201818161227e9190616450565b9050507f356b21b6751e44445a8639b1b8652bd53abf33c2ce1d0eb3c27dbd738b6c5bac8686838181106122db577f4e487b7100000000000000000000000000000000000000000000000000000000600052603260045260246000fd5b9050602002013585858481811061231b577f4e487b7100000000000000000000000000000000000000000000000000000000600052603260045260246000fd5b905060200281019061232d9190615efd565b60405161233b929190615ccf565b60405180910390a18061234d81616378565b915050612198565b600061235f61381f565b601d5490915073ffffffffffffffffffffffffffffffffffffffff808316911614806123c457507fc8fcad8db84d3cc18b4c41d551ea0ee66dd599cde068d998e57d5e09332c13205473ffffffffffffffffffffffffffffffffffffffff8281169116145b612450576040517f08c379a000000000000000000000000000000000000000000000000000000000815260206004820152602160248201527f4c696241707053746f726167653a20446f206e6f74206861766520616363657360448201527f7300000000000000000000000000000000000000000000000000000000000000606482015260840161045d565b601d5460405173ffffffffffffffffffffffffffffffffffffffff8086169216907f80e372951996d4eaf55bac69d189ad3c5f3992dc8f486d85c2c7abfffe09f99d90600090a3601e5460405173ffffffffffffffffffffffffffffffffffffffff8085169216907f8dda99f4c0976732c5a97f50fdbc947bf07b9aef1a4745bcc8ab59b5302f6b8690600090a350601d805473ffffffffffffffffffffffffffffffffffffffff9384167fffffffffffffffffffffffff000000000000000000000000000000000000000091821617909155601e8054929093169116179055565b600061253c61381f565b73ffffffffffffffffffffffffffffffffffffffff81166000908152603b602052604090205490915060ff1615156001146125f9576040517f08c379a000000000000000000000000000000000000000000000000000000000815260206004820152603960248201527f4c696241707053746f726167653a206f6e6c7920616e204974656d4d616e616760448201527f65722063616e2063616c6c20746869732066756e6374696f6e00000000000000606482015260840161045d565b60005b8251811015612753576000600701838281518110612643577f4e487b7100000000000000000000000000000000000000000000000000000000600052603260045260246000fd5b60209081029190910181015182546001810184556000938452928290208151805192946004029091019261267c9284929091019061452a565b50602082810151805161269592600185019201906145ae565b50604082015180516126b191600284019160209091019061464f565b5060608201516126c790600383019060056146e6565b5050507f0dbc5f4ecf62141cbbeabe27b1964e654f660d351e6919e32f8818ae025812fe838281518110612724577f4e487b7100000000000000000000000000000000000000000000000000000000600052603260045260246000fd5b602002602001015160405161273991906158a3565b60405180910390a18061274b81616378565b9150506125fc565b505050565b600061276261381f565b73ffffffffffffffffffffffffffffffffffffffff81166000908152603b602052604090205490915060ff16151560011461281f576040517f08c379a000000000000000000000000000000000000000000000000000000000815260206004820152603960248201527f4c696241707053746f726167653a206f6e6c7920616e204974656d4d616e616760448201527f65722063616e2063616c6c20746869732066756e6374696f6e00000000000000606482015260840161045d565b8382146128ae576040517f08c379a000000000000000000000000000000000000000000000000000000000815260206004820152602e60248201527f44414f46616365743a2049647320616e64207175616e746974696573206c656e60448201527f677468206d757374206d61746368000000000000000000000000000000000000606482015260840161045d565b60006128b861381f565b60065490915060005b86811015612b90576000888883818110612904577f4e487b7100000000000000000000000000000000000000000000000000000000600052603260045260246000fd5b90506020020135905080831161299c576040517f08c379a000000000000000000000000000000000000000000000000000000000815260206004820152602260248201527f44414f46616365743a204974656d207479706520646f6573206e6f742065786960448201527f7374000000000000000000000000000000000000000000000000000000000000606482015260840161045d565b60008787848181106129d7577f4e487b7100000000000000000000000000000000000000000000000000000000600052603260045260246000fd5b90506020020135905060008160006006018481548110612a20577f4e487b7100000000000000000000000000000000000000000000000000000000600052603260045260246000fd5b90600052602060002090600b020160090154612a3c9190616046565b905060006006018381548110612a7b577f4e487b7100000000000000000000000000000000000000000000000000000000600052603260045260246000fd5b90600052602060002090600b020160080154811115612b1c576040517f08c379a000000000000000000000000000000000000000000000000000000000815260206004820152603760248201527f44414f46616365743a20546f74616c206974656d2074797065207175616e746960448201527f74792065786365656473206d6178207175616e74697479000000000000000000606482015260840161045d565b612b278c8484613ae2565b8060006006018481548110612b65577f4e487b7100000000000000000000000000000000000000000000000000000000600052603260045260246000fd5b90600052602060002090600b0201600901819055505050508080612b8890616378565b9150506128c1565b508773ffffffffffffffffffffffffffffffffffffffff16600073ffffffffffffffffffffffffffffffffffffffff168373ffffffffffffffffffffffffffffffffffffffff167f4a39dc06d4c0dbc64b70af90fd698a233a518aa5d07e595d983b8c0526c8f7fb8a8a8a8a604051612c0c9493929190615871565b60405180910390a4612c348260008a8a8a8a8a60405180602001604052806000815250613bbe565b5050505050505050565b73ffffffffffffffffffffffffffffffffffffffff81166000908152603c60205260409020600101545b919050565b6000612c7761381f565b601d5490915073ffffffffffffffffffffffffffffffffffffffff80831691161480612cdc57507fc8fcad8db84d3cc18b4c41d551ea0ee66dd599cde068d998e57d5e09332c13205473ffffffffffffffffffffffffffffffffffffffff8281169116145b612d68576040517f08c379a000000000000000000000000000000000000000000000000000000000815260206004820152602160248201527f4c696241707053746f726167653a20446f206e6f74206861766520616363657360448201527f7300000000000000000000000000000000000000000000000000000000000000606482015260840161045d565b73ffffffffffffffffffffffffffffffffffffffff83166000908152602081905260409081902090517f5ad3e7daac526edccb3bbe53ea6dcbc6a3d30281e8bbf5638ef44c3ba66829b991612dbe918590615748565b60405180910390a173ffffffffffffffffffffffffffffffffffffffff831660009081526020819052604090206108fa9083600661473d565b6000612e0161381f565b73ffffffffffffffffffffffffffffffffffffffff81166000908152603b602052604090205490915060ff161515600114612ebe576040517f08c379a000000000000000000000000000000000000000000000000000000000815260206004820152603960248201527f4c696241707053746f726167653a206f6e6c7920616e204974656d4d616e616760448201527f65722063616e2063616c6c20746869732066756e6374696f6e00000000000000606482015260840161045d565b6006548310612f29576040517f08c379a000000000000000000000000000000000000000000000000000000000815260206004820152600560248201527f4572726f72000000000000000000000000000000000000000000000000000000604482015260640161045d565b8160006006018481548110612f67577f4e487b7100000000000000000000000000000000000000000000000000000000600052603260045260246000fd5b90600052602060002090600b0201600401906010612f86929190614799565b507f33cba67b41444d9a1092b49956c2396edacfe7e75268ad3c7b0b8497b5c0a7138383604051612fb8929190615c3b565b60405180910390a1505050565b6000612fcf61381f565b73ffffffffffffffffffffffffffffffffffffffff81166000908152603b602052604090205490915060ff16151560011461308c576040517f08c379a000000000000000000000000000000000000000000000000000000000815260206004820152603960248201527f4c696241707053746f726167653a206f6e6c7920616e204974656d4d616e616760448201527f65722063616e2063616c6c20746869732066756e6374696f6e00000000000000606482015260840161045d565b60065484106130f7576040517f08c379a000000000000000000000000000000000000000000000000000000000815260206004820152600560248201527f4572726f72000000000000000000000000000000000000000000000000000000604482015260640161045d565b8260006006018581548110613135577f4e487b7100000000000000000000000000000000000000000000000000000000600052603260045260246000fd5b90600052602060002090600b02016003019060066131549291906147ee565b508160006006018581548110613193577f4e487b7100000000000000000000000000000000000000000000000000000000600052603260045260246000fd5b90600052602060002090600b0201600a0160046101000a81548160ff021916908360ff1602179055507fc5b9a299f3d5ff31ba450b257ac4a0a633b640c711ecd19e7e76d7d82c506fda8484846040516131ef93929190615c7f565b60405180910390a150505050565b600061320761381f565b73ffffffffffffffffffffffffffffffffffffffff81166000908152603b602052604090205490915060ff1615156001146132c4576040517f08c379a000000000000000000000000000000000000000000000000000000000815260206004820152603960248201527f4c696241707053746f726167653a206f6e6c7920616e204974656d4d616e616760448201527f65722063616e2063616c6c20746869732066756e6374696f6e00000000000000606482015260840161045d565b6132cd82613d51565b5050565b60006132db61381f565b73ffffffffffffffffffffffffffffffffffffffff81166000908152603b602052604090205490915060ff161515600114613398576040517f08c379a000000000000000000000000000000000000000000000000000000000815260206004820152603960248201527f4c696241707053746f726167653a206f6e6c7920616e204974656d4d616e616760448201527f65722063616e2063616c6c20746869732066756e6374696f6e00000000000000606482015260840161045d565b6133a186613d51565b61176285858585613889565b60006133b761381f565b73ffffffffffffffffffffffffffffffffffffffff8082166000818152603c6020526040902054601d54939450151592909116148061342f57507fc8fcad8db84d3cc18b4c41d551ea0ee66dd599cde068d998e57d5e09332c13205473ffffffffffffffffffffffffffffffffffffffff8381169116145b806134375750805b6134c3576040517f08c379a000000000000000000000000000000000000000000000000000000000815260206004820152602160248201527f4c696241707053746f726167653a20446f206e6f74206861766520616363657360448201527f7300000000000000000000000000000000000000000000000000000000000000606482015260840161045d565b848314613552576040517f08c379a000000000000000000000000000000000000000000000000000000000815260206004820152602860248201527f44414f46616365743a20494473206d757374206d61746368205850206172726160448201527f79206c656e677468000000000000000000000000000000000000000000000000606482015260840161045d565b6000603c8161355f61381f565b73ffffffffffffffffffffffffffffffffffffffff1673ffffffffffffffffffffffffffffffffffffffff168152602001908152602001600020905042816002015410156135c757805460018201556135bb4262015180616046565b63ffffffff1660028201555b60005b868110156137d857600088888381811061360d577f4e487b7100000000000000000000000000000000000000000000000000000000600052603260045260246000fd5b9050602002013590506000878784818110613651577f4e487b7100000000000000000000000000000000000000000000000000000000600052603260045260246000fd5b9050602002013590506103e88111156136ec576040517f08c379a000000000000000000000000000000000000000000000000000000000815260206004820152603260248201527f44414f46616365743a2043616e6e6f74206772616e74206d6f7265207468616e60448201527f203130303020585020617420612074696d650000000000000000000000000000606482015260840161045d565b8084600101541015613780576040517f08c379a000000000000000000000000000000000000000000000000000000000815260206004820152603260248201527f44414f46616365743a2047616d65204d616e616765722773207870206772616e60448201527f74206c696d697420697320726561636865640000000000000000000000000000606482015260840161045d565b6000828152600d6020526040812060050180548392906137a1908490616046565b92505081905550808460010160008282546137bc919061605e565b92505081905550505080806137d090616378565b9150506135ca565b507f9373fada80bb4fe253d2f3b66e1294c4027086455c7ebf80c458eb45d47bcb608787878760405161380e9493929190615871565b60405180910390a150505050505050565b60003330141561388357600080368080601f01602080910402602001604051908101604052809392919081815260200183838082843760009201919091525050505036015173ffffffffffffffffffffffffffffffffffffffff1691506138869050565b50335b90565b60007f0f6d7f4707d30f76042fe2e9e5b3a798697eea80f3af64651e3760059051ee2483836040516138bc9291906157ac565b60405180910390a160006138d0868661429e565b90506000805b84811015612c345736868683818110613918577f4e487b7100000000000000000000000000000000000000000000000000000000600052603260045260246000fd5b905060200281019061392a9190615f3a565b905060005b61393c6020830183615dcf565b9050811015613acd5760006139546020840184615dcf565b8381811061398b577f4e487b7100000000000000000000000000000000000000000000000000000000600052603260045260246000fd5b8535600090815260028b0160209081526040808320815160608101835273ffffffffffffffffffffffffffffffffffffffff8e8116825261ffff8e81168387019081529786029990990135808a16948301948552835460018101855593875294909520905191018054955192517fffffffffffffffffffffffff000000000000000000000000000000000000000090961691909416177fffffffffffffffffffff0000ffffffffffffffffffffffffffffffffffffffff167401000000000000000000000000000000000000000091871691909102177fffffffffffffffff0000ffffffffffffffffffffffffffffffffffffffffffff16760100000000000000000000000000000000000000000000939095169290920293909317909255509050613ab78186616046565b9450508080613ac590616378565b91505061392f565b50508080613ada90616378565b9150506138d6565b73ffffffffffffffffffffffffffffffffffffffff83166000908152600960209081526040808320858452909152812080548391908390613b24908490616046565b909155505073ffffffffffffffffffffffffffffffffffffffff84166000908152600b8201602090815260408083208684529091529020546108fa5773ffffffffffffffffffffffffffffffffffffffff84166000818152600a830160209081526040808320805460018101825581855283852061ffff8a169101559383529254600b850182528383208784529091529190205550505050565b853b8015613d46576040517fbc197c8100000000000000000000000000000000000000000000000000000000815273ffffffffffffffffffffffffffffffffffffffff88169063bc197c8190613c24908c908c908b908b908b908b908b906004016156d9565b602060405180830381600087803b158015613c3e57600080fd5b505af1158015613c52573d6000803e3d6000fd5b505050506040513d601f19601f82011682018060405250810190613c769190615280565b7fffffffff00000000000000000000000000000000000000000000000000000000167fbc197c810000000000000000000000000000000000000000000000000000000014613d46576040517f08c379a000000000000000000000000000000000000000000000000000000000815260206004820152602a60248201527f5765617261626c65733a205472616e736665722072656a65637465642f66616960448201527f6c6564206279205f746f00000000000000000000000000000000000000000000606482015260840161045d565b505050505050505050565b60065460005b825181101561275357600082613d6c81616378565b93509050838281518110613da9577f4e487b7100000000000000000000000000000000000000000000000000000000600052603260045260246000fd5b6020908102919091018101516101e001513060009081526031835260408082208583529093529190912060ff90911690558351600690859084908110613e18577f4e487b7100000000000000000000000000000000000000000000000000000000600052603260045260246000fd5b6020908102919091018101518254600181018455600093845292829020815180519294600b0290910192613e519284929091019061452a565b506020828101518051613e6a926001850192019061452a565b5060408201518051613e8691600284019160209091019061452a565b506060820151613e9c90600383019060066146e6565b506080820151613eb29060048301906010614848565b5060a08201518051613ece9160058401916020909101906145ae565b5060c08201518051600683018054602084015160408501516060909501517fffffffffffffffffffffffffffffffffffffffffffffffffffffffffffffff0090921660ff948516177fffffffffffffffffffffffffffffffffffffffffffffffffffffffffffff00ff166101009185168202177fffffffffffffffffffffffffffffffffffffffffffffffffffffffffff00ffff166201000095851695909502949094177fffffffffffffffffffffffffffffffffffffffffffffffffffffffff00ffffff1663010000009184169190910217905560e084015160078401559083015160088301556101208301516009830155610140830151600a90920180546101608501516101808601516101a08701516101c08801516101e08901516102008a0151610220909a01517fffffffffffffffffffffffffffffffffffffffffffffffffffffffff0000000090961663ffffffff998a16177fffffffffffffffffffffffffffffffffffffffffffffffffffffff00ffffffff1664010000000095891695909502949094177fffffffffffffffffffffffffffffffffffffffffffffffffffff00ffffffffff166501000000000093151593909302929092177fffffffffffffffffffffffffffffffffffffffffffffffff0000ffffffffffff16660100000000000061ffff92831602177fffffffffffffffffffffffffffffffffffffffffffffff00ffffffffffffffff166801000000000000000092151592909202919091177fffffffffffffffffffffffffffffffffffffffffffff00ffffffffffffffffff1669010000000000000000009290951691909102939093177fffffffffffffffffffffffffffffffffffffffff0000ffffffffffffffffffff166a010000000000000000000060019690960b9390931694909402919091177fffffffffffffffffffffffffffffffff00000000ffffffffffffffffffffffff166c01000000000000000000000000929093169190910291909117905583517fc8503d8aeeee516dae940e9fc26780d4e925b97ac101df99a97dae090d1000509085908490811061420a577f4e487b7100000000000000000000000000000000000000000000000000000000600052603260045260246000fd5b602002602001015160405161421f9190615960565b60405180910390a160008061423261381f565b73ffffffffffffffffffffffffffffffffffffffff167fc3d58168c5ae7397731d063d5bbf3d657854427343f4c083240f7aacaa2d0f62846000604051614283929190918252602082015260400190565b60405180910390a4508061429681616378565b915050613d57565b60006160008210614331576040517f08c379a000000000000000000000000000000000000000000000000000000000815260206004820152603360248201527f53766753746f726167653a2045786365656465642032342c353736206279746560448201527f73206d617820636f6e74726163742073697a6500000000000000000000000000606482015260840161045d565b60408051808201909152600e81527f610000600e6000396100006000f3000000000000000000000000000000000000602082015260f883901b7fff0000000000000000000000000000000000000000000000000000000000000060f085901b8116908216600081901a60228501535080836001815181106143db577f4e487b7100000000000000000000000000000000000000000000000000000000600052603260045260246000fd5b60200101907effffffffffffffffffffffffffffffffffffffffffffffffffffffffffffff1916908160001a9053508183600a81518110614445577f4e487b7100000000000000000000000000000000000000000000000000000000600052603260045260246000fd5b60200101907effffffffffffffffffffffffffffffffffffffffffffffffffffffffffffff1916908160001a90535080836009815181106144af577f4e487b7100000000000000000000000000000000000000000000000000000000600052603260045260246000fd5b60200101907effffffffffffffffffffffffffffffffffffffffffffffffffffffffffffff1916908160001a90535060008387876040516020016144f5939291906156b4565b60405160208183030381529060405290508051602082016000f0945084614520573d6000803e3d6000fd5b5050505092915050565b82805461453690616324565b90600052602060002090601f016020900481019282614558576000855561459e565b82601f1061457157805160ff191683800117855561459e565b8280016001018555821561459e579182015b8281111561459e578251825591602001919060010190614583565b506145aa92915061489b565b5090565b82805482825590600052602060002090601f0160209004810192821561459e5791602002820160005b8382111561461557835183826101000a81548160ff021916908360ff16021790555092602001926001016020816000010492830192600103026145d7565b80156146425782816101000a81549060ff0219169055600101602081600001049283019260010302614615565b50506145aa92915061489b565b82805482825590600052602060002090600f0160109004810192821561459e5791602002820160005b838211156146b857835183826101000a81548161ffff021916908361ffff1602179055509260200192600201602081600101049283019260010302614678565b80156146425782816101000a81549061ffff02191690556002016020816001010492830192600103026146b8565b60018301918390821561459e5791602002820160005b8382111561461557835183826101000a81548160ff021916908360000b60ff16021790555092602001926001016020816000010492830192600103026146fc565b60018301918390821561459e5791602002820160005b838211156146b857833560010b83826101000a81548161ffff021916908360010b61ffff1602179055509260200192600201602081600101049283019260010302614753565b60018301918390821561459e5791602002820160005b83821115614615578335151583826101000a81548160ff02191690831515021790555092602001926001016020816000010492830192600103026147af565b60018301918390821561459e5791602002820160005b8382111561461557833560000b83826101000a81548160ff021916908360000b60ff1602179055509260200192600101602081600001049283019260010302614804565b60018301918390821561459e5791602002820160005b8382111561461557835183826101000a81548160ff021916908315150217905550926020019260010160208160000104928301926001030261485e565b5b808211156145aa576000815560010161489c565b803573ffffffffffffffffffffffffffffffffffffffff81168114612c6857600080fd5b60008083601f8401126148e5578182fd5b50813567ffffffffffffffff8111156148fc578182fd5b602083019150836020808302850101111561491657600080fd5b9250929050565b600082601f83011261492d578081fd5b61020061493981615f6d565b8084868487011115614949578485fd5b8493505b6010841015614976578035614961816168f4565b8352600193909301926020928301920161494d565b5095945050505050565b8060c0810183101561499157600080fd5b92915050565b600082601f8301126149a7578081fd5b6149b160a0615f6d565b80838560a0860111156149c2578384fd5b835b60058110156149ed5781356149d881616942565b845260209384019391909101906001016149c4565b509095945050505050565b600082601f830112614a08578081fd5b614a1260c0615f6d565b80838560c086011115614a23578384fd5b835b60068110156149ed578135614a3981616942565b84526020938401939190910190600101614a25565b600082601f830112614a5e578081fd5b81356020614a73614a6e83615fbc565b615f6d565b82815281810190858301855b85811015614c6b5781358801610520807fffffffffffffffffffffffffffffffffffffffffffffffffffffffffffffffe0838d03011215614abe578889fd5b614ac9610240615f6d565b8783013567ffffffffffffffff80821115614ae2578b8cfd5b614af08e8b84880101614d5f565b83526040850135915080821115614b05578b8cfd5b614b138e8b84880101614d5f565b8a840152606091508185013581811115614b2b578c8dfd5b614b398f8c83890101614d5f565b604085015250614b4c8e608087016149f8565b828401526101409150614b618e83870161491d565b608084015261034085013581811115614b78578c8dfd5b614b868f8c83890101614cdb565b60a08501525050614b9b8d6103608601614de8565b60c08301526103e084013560e0830152610400840135610100830152610420840135610120830152614bd06104408501614e6f565b90820152614be16104608401614e83565b610160820152614bf46104808401614d3e565b610180820152614c076104a08401614e51565b6101a0820152614c1a6104c08401614d3e565b6101c0820152614c2d6104e08401614e83565b6101e0820152614c406105008401614d54565b610200820152614c51828401614e6f565b610220820152865250509284019290840190600101614a7f565b5090979650505050505050565b600082601f830112614c88578081fd5b81356020614c98614a6e83615fbc565b8281528181019085830183850287018401881015614cb4578586fd5b855b85811015614c6b578135614cc981616951565b84529284019290840190600101614cb6565b600082601f830112614ceb578081fd5b81356020614cfb614a6e83615fbc565b8281528181019085830183850287018401881015614d17578586fd5b855b85811015614c6b578135614d2c81616961565b84529284019290840190600101614d19565b8035612c68816168f4565b8035612c6881616905565b8035612c6881616933565b600082601f830112614d6f578081fd5b813567ffffffffffffffff811115614d8957614d896163e0565b614dba60207fffffffffffffffffffffffffffffffffffffffffffffffffffffffffffffffe0601f84011601615f6d565b818152846020838601011115614dce578283fd5b816020850160208301379081016020019190915292915050565b600060808284031215614df9578081fd5b614e036080615f6d565b90508135614e1081616961565b81526020820135614e2081616961565b60208201526040820135614e3381616961565b60408201526060820135614e4681616961565b606082015292915050565b8035612c6881616951565b803562ffffff81168114612c6857600080fd5b803563ffffffff81168114612c6857600080fd5b8035612c6881616961565b80356bffffffffffffffffffffffff81168114612c6857600080fd5b600060208284031215614ebb578081fd5b614ec4826148b0565b9392505050565b60008060408385031215614edd578081fd5b614ee6836148b0565b9150614ef4602084016148b0565b90509250929050565b60008060e08385031215614f0f578182fd5b614f18836148b0565b9150614ef48460208501614980565b600080600080600060608688031215614f3e578081fd5b614f47866148b0565b9450602086013567ffffffffffffffff80821115614f63578283fd5b614f6f89838a016148d4565b90965094506040880135915080821115614f87578283fd5b50614f94888289016148d4565b969995985093965092949392505050565b60008060208385031215614fb7578182fd5b823567ffffffffffffffff811115614fcd578283fd5b614fd9858286016148d4565b90969095509350505050565b60008060008060408587031215614ffa578182fd5b843567ffffffffffffffff80821115615011578384fd5b61501d888389016148d4565b90965094506020870135915080821115615035578384fd5b50615042878288016148d4565b95989497509550505050565b60006020808385031215615060578182fd5b823567ffffffffffffffff80821115615077578384fd5b818501915085601f83011261508a578384fd5b8135615098614a6e82615fbc565b81815284810190848601875b8481101561517c57813587016101007fffffffffffffffffffffffffffffffffffffffffffffffffffffffffffffffe0828e030112156150e257898afd5b60806150ed81615f6d565b8a830135898111156150fd578c8dfd5b61510b8f8d83870101614d5f565b82525060408301358981111561511f578c8dfd5b61512d8f8d83870101614cdb565b8c83015250606083013589811115615143578c8dfd5b6151518f8d83870101614c78565b6040830152506151638e838501614997565b60608201528652505092870192908701906001016150a4565b50909998505050505050505050565b60006020828403121561519c578081fd5b813567ffffffffffffffff8111156151b2578182fd5b6151be84828501614a4e565b949350505050565b6000806000806000606086880312156151dd578283fd5b853567ffffffffffffffff808211156151f4578485fd5b61520089838a01614a4e565b96506020880135915080821115615215578485fd5b818801915088601f830112615228578485fd5b813581811115615236578586fd5b896020828501011115615247578586fd5b602083019650809550506040880135915080821115614f87578283fd5b600060208284031215615275578081fd5b8135614ec481616905565b600060208284031215615291578081fd5b81517fffffffff0000000000000000000000000000000000000000000000000000000081168114614ec4578182fd5b6000602082840312156152d1578081fd5b813567ffffffffffffffff8111156152e7578182fd5b82016101008185031215614ec4578182fd5b60006020828403121561530a578081fd5b614ec482614e5c565b600080600060608486031215615327578081fd5b61533084614e5c565b925061533e60208501614e8e565b9150604084013561534e81616905565b809150509250925092565b60008061022080848603121561536d578283fd5b8335925084818501111561537f578182fd5b506020830190509250929050565b600080600061010084860312156153a2578081fd5b833592506153b38560208601614980565b915060e084013561534e81616961565b6000806000604084860312156153d7578081fd5b83359250602084013567ffffffffffffffff808211156153f5578283fd5b818601915086601f830112615408578283fd5b813581811115615416578384fd5b8760206101c08302850101111561542b578384fd5b6020830194508093505050509250925092565b60006020828403121561544f578081fd5b614ec482614e8e565b8060005b60108110156108fa578151151584526020938401939091019060010161545c565b8060005b60068110156108fa57813561549581616933565b600190810b8552602094850194929092019101615481565b806000805b60058110156110405782356154c681616942565b820b855260209485019492909201916001016154b2565b806000805b6005811015611040578251820b8552602094850194909201916001016154e2565b806000805b6006811015611040578251820b855260209485019490920191600101615508565b60008284526020808501945082825b8581101561556157813561554b81616951565b61ffff1687529582019590820190600101615538565b509495945050505050565b60008284527f07ffffffffffffffffffffffffffffffffffffffffffffffffffffffffffffff83111561559d578081fd5b6020830280836020870137939093016020019283525090919050565b60008284526020808501945082825b858110156155615781356155db81616961565b60ff16875295820195908201906001016155c8565b6000815180845260208085019450808401835b8381101561556157815160ff1687529582019590820190600101615603565b6000815180845261563a8160208601602086016162f8565b601f017fffffffffffffffffffffffffffffffffffffffffffffffffffffffffffffffe0169290920160200192915050565b600082845282826020860137806020848601015260207fffffffffffffffffffffffffffffffffffffffffffffffffffffffffffffffe0601f85011685010190509392505050565b600084516156c68184602089016162f8565b8201838582379092019182525092915050565b600073ffffffffffffffffffffffffffffffffffffffff808a16835280891660208401525060a0604083015261571360a08301878961556c565b828103606084015261572681868861556c565b9050828103608084015261573a8185615622565b9a9950505050505050505050565b6000610180820190508354600181810b810b84528160101c810b810b60208501528160201c810b810b60408501528160301c810b810b60608501528160401c810b810b60808501528160501c810b810b60a08501525050614ec460c083018461547d565b602080825281810183905260009060408084018583028501820187855b88811015615863577fffffffffffffffffffffffffffffffffffffffffffffffffffffffffffffffc088840301845281357fffffffffffffffffffffffffffffffffffffffffffffffffffffffffffffffc18b3603018112615829578788fd5b8a018035845261583b87820182615fe0565b9150868886015261584f878601838361556c565b9588019594505050908501906001016157c9565b509098975050505050505050565b60006040825261588560408301868861556c565b828103602084015261589881858761556c565b979650505050505050565b600060208083528351610100828501526158c1610120850182615622565b9050818501517fffffffffffffffffffffffffffffffffffffffffffffffffffffffffffffffe0808684030160408701526158fc83836155f0565b60408801518782039092016060880152815180825291850193508592508401905b8083101561594157835161ffff16825292840192600192909201919084019061591d565b506060870151935061595660808701856154dd565b9695505050505050565b600060208252825161052080602085015261597f610540850183615622565b915060208501517fffffffffffffffffffffffffffffffffffffffffffffffffffffffffffffffe0808685030160408701526159bb8483615622565b935060408701519150808685030160608701526159d88483615622565b9350606087015191506159ee6080870183615503565b60808701519150610140615a0481880184615458565b60a088015192508187860301610340880152615a2085846155f0565b60c0890151805160ff9081166103608b0152602082015181166103808b0152604082015181166103a08b01526060820151166103c08a0152909550925060e08801516103e088015261010088015161040088015261012088015161042088015287015163ffffffff81166104408801529150615a999050565b5061016085015160ff90811661046086015261018086015115156104808601526101a086015161ffff166104a08601526101c086015115156104c08601526101e0860151166104e085015261020085015160010b6105008501526102209094015163ffffffff169390920192909252919050565b6101c0810173ffffffffffffffffffffffffffffffffffffffff615b30846148b0565b168252615b43602083016020850161547d565b60e0830135615b5181616905565b7fffffff00000000000000000000000000000000000000000000000000000000001660e0830152610100615b86848201614d49565b7fffffff00000000000000000000000000000000000000000000000000000000001690830152610120615bba848201614d49565b7fffffff00000000000000000000000000000000000000000000000000000000001690830152610140615bee848201614e83565b60ff1690830152610160615c03848201614e83565b60ff1690830152610180615c18848201614e51565b61ffff16908301526101a0615c2e848201614d3e565b1515920191909152919050565b828152610220810160208083018460005b6010811015615c74578135615c60816168f4565b151583529183019190830190600101615c4c565b505050509392505050565b83815261010081016020808301856000805b6006811015615cb9578235615ca581616942565b820b84529284019291840191600101615c91565b505050505060ff831660e0830152949350505050565b60008382526040602083015282357fffffffffffffffffffffffffffffffffffffffffffffffffffffffffffffffe1843603018112615d0c578182fd5b8301803567ffffffffffffffff811115615d24578283fd5b803603851315615d32578283fd5b6101006040850152615d4c6101408501826020850161566c565b915050615d5c6020850185615fe0565b7fffffffffffffffffffffffffffffffffffffffffffffffffffffffffffffffc080868503016060870152615d928483856155b9565b9350615da16040880188615fe0565b935091508086850301608087015250615dbb838383615529565b925050506151be60a08401606086016154ad565b60008083357fffffffffffffffffffffffffffffffffffffffffffffffffffffffffffffffe1843603018112615e03578283fd5b83018035915067ffffffffffffffff821115615e1d578283fd5b602090810192508102360382131561491657600080fd5b60008083357fffffffffffffffffffffffffffffffffffffffffffffffffffffffffffffffe1843603018112615e68578283fd5b83018035915067ffffffffffffffff821115615e82578283fd5b60200191506101c08102360382131561491657600080fd5b60008083357fffffffffffffffffffffffffffffffffffffffffffffffffffffffffffffffe1843603018112615ece578283fd5b83018035915067ffffffffffffffff821115615ee8578283fd5b60200191503681900382131561491657600080fd5b600082357fffffffffffffffffffffffffffffffffffffffffffffffffffffffffffffff01833603018112615f30578182fd5b9190910192915050565b600082357fffffffffffffffffffffffffffffffffffffffffffffffffffffffffffffffc1833603018112615f30578182fd5b604051601f82017fffffffffffffffffffffffffffffffffffffffffffffffffffffffffffffffe016810167ffffffffffffffff81118282101715615fb457615fb46163e0565b604052919050565b600067ffffffffffffffff821115615fd657615fd66163e0565b5060209081020190565b60008083357fffffffffffffffffffffffffffffffffffffffffffffffffffffffffffffffe1843603018112616014578283fd5b830160208101925035905067ffffffffffffffff81111561603457600080fd5b60208102360383131561491657600080fd5b60008219821115616059576160596163b1565b500190565b600082821015616070576160706163b1565b500390565b5b818110156132cd5760008155600101616076565b81816000805b60058110156117625783356160a481616942565b835460ff6008850290811b801990921660009390930b901b1617835560209390930192600191820191601f8311156160df5792830192600092505b50600101616090565b68010000000000000000831115616101576161016163e0565b80548382558084101561619c578160005260206000206010600f86010481016002600f871602801561618657616186817fffffffffffffffffffffffffffffffffffffffffffffffffffffffffffffffff840180547fffffffffffffffffffffffffffffffffffffffffffffffffffffffffffffffff836020036008021c1681555050565b506161996010600f850104830182616075565b50505b506000818152602081208391805b868110156161ed576161c56161be85616436565b83856168b5565b602084019350600282019150601e8211156161e557600091506001830192505b6001016161aa565b50505050505050565b6801000000000000000083111561620f5761620f6163e0565b8054838255808410156162a7578160005260206000206020601f8601048101601f8616801561629157616291817fffffffffffffffffffffffffffffffffffffffffffffffffffffffffffffffff840180547fffffffffffffffffffffffffffffffffffffffffffffffffffffffffffffffff836020036008021c1681555050565b506162a46020601f850104830182616075565b50505b506000818152602081208391805b868110156161ed576162d06162c985616443565b83856168d5565b60208401935060018083019250601f8311156162ef5792830192600092505b506001016162b5565b60005b838110156163135781810151838201526020016162fb565b838111156108fa5750506000910152565b60028104600182168061633857607f821691505b60208210811415616372577f4e487b7100000000000000000000000000000000000000000000000000000000600052602260045260246000fd5b50919050565b60007fffffffffffffffffffffffffffffffffffffffffffffffffffffffffffffffff8214156163aa576163aa6163b1565b5060010190565b7f4e487b7100000000000000000000000000000000000000000000000000000000600052601160045260246000fd5b7f4e487b7100000000000000000000000000000000000000000000000000000000600052604160045260246000fd5b60008135614991816168f4565b6000813561499181616905565b6000813561499181616933565b6000813561499181616951565b6000813561499181616961565b81357fffffffffffffffffffffffffffffffffffffffffffffffffffffffffffffffe183360301811261648257600080fd5b8201803567ffffffffffffffff81111561649b57600080fd5b602081360381840113156164ae57600080fd5b6164b88454616324565b600080601f8511601f8411818117156164d75760008981526020902092505b80156165035785601f8801048301868810156164f05750825b61650187601f880104850182616075565b505b508060018114616555576000945086156165205785848901013594505b600287027fffffffffffffffffffffffffffffffffffffffffffffffffffffffffffffffff600889021c1986161789556165e6565b7fffffffffffffffffffffffffffffffffffffffffffffffffffffffffffffffe08716945082845b8681101561659e57898601880135825594870194600190910190870161657d565b50878610156165db577fffffffffffffffffffffffffffffffffffffffffffffffffffffffffffffffff601f89166008021c1987868b0101351681555b506001600288020189555b50505050506165f781860186615dcf565b935091505061660a8282600186016161f6565b50506166196040830183615dcf565b6166278183600286016160e8565b50506132cd606083016003830161608a565b81816000805b60068110156166835761665b61665485616429565b8385616891565b602084019350600282019150601e82111561667b57600091506001830192505b60010161663f565b50505050600181016166c961669a60c0850161641c565b82547fffffffffffffffffffffffffffffffffffffffffffffffffffffffffff0000001660e89190911c178255565b61670f6166d860e0850161641c565b82547fffffffffffffffffffffffffffffffffffffffffffffffffffff000000ffffff1660d09190911c65ffffff00000016178255565b61675961671f610100850161641c565b82547fffffffffffffffffffffffffffffffffffffffffffffff000000ffffffffffff1660b89190911c68ffffff00000000000016178255565b6167a46167696101208501616443565b82547fffffffffffffffffffffffffffffffffffffffffffff00ffffffffffffffffff1660489190911b69ff00000000000000000016178255565b6167f06167b46101408501616443565b82547fffffffffffffffffffffffffffffffffffffffffff00ffffffffffffffffffff1660509190911b6aff0000000000000000000016178255565b61683e6168006101608501616436565b82547fffffffffffffffffffffffffffffffffffffff0000ffffffffffffffffffffff1660589190911b6cffff000000000000000000000016178255565b61275361684e610180850161640f565b8280547fffffffffffffffffffffffffffffffffffff00ffffffffffffffffffffffffff1691151560681b6dff0000000000000000000000000016919091179055565b8054600184900b6008840290811b61ffff90911b9081169019909116175b90555050565b805461ffff8481166008850290811b91901b9081169019909116176168af565b805460ff8481166008850290811b91901b9081169019909116176168af565b801515811461690257600080fd5b50565b7fffffff00000000000000000000000000000000000000000000000000000000008116811461690257600080fd5b8060010b811461690257600080fd5b8060000b811461690257600080fd5b61ffff8116811461690257600080fd5b60ff8116811461690257600080fdfea164736f6c6343000802000a",
  "linkReferences": {},
  "deployedLinkReferences": {}
}