{
  "_format": "hh-sol-artifact-1",
  "contractName": "MetaTransactionsFacet",
  "sourceName": "contracts/Tokenatxor/facets/MetaTransactionsFacet.sol",
  "abi": [
    {
      "anonymous": false,
      "inputs": [
        {
          "indexed": false,
          "internalType": "address",
          "name": "userAddress",
          "type": "address"
        },
        {
          "indexed": false,
          "internalType": "address payable",
          "name": "relayerAddress",
          "type": "address"
        },
        {
          "indexed": false,
          "internalType": "bytes",
          "name": "functionSignature",
          "type": "bytes"
        }
      ],
      "name": "MetaTransactionExecuted",
      "type": "event"
    },
    {
      "inputs": [
        {
          "internalType": "address",
          "name": "userAddress",
          "type": "address"
        },
        {
          "internalType": "bytes",
          "name": "functionSignature",
          "type": "bytes"
        },
        {
          "internalType": "bytes32",
          "name": "sigR",
          "type": "bytes32"
        },
        {
          "internalType": "bytes32",
          "name": "sigS",
          "type": "bytes32"
        },
        {
          "internalType": "uint8",
          "name": "sigV",
          "type": "uint8"
        }
      ],
      "name": "executeMetaTransaction",
      "outputs": [
        {
          "internalType": "bytes",
          "name": "",
          "type": "bytes"
        }
      ],
      "stateMutability": "payable",
      "type": "function"
    },
    {
      "inputs": [
        {
          "internalType": "address",
          "name": "user",
          "type": "address"
        }
      ],
      "name": "getNonce",
      "outputs": [
        {
          "internalType": "uint256",
          "name": "nonce_",
          "type": "uint256"
        }
      ],
      "stateMutability": "view",
      "type": "function"
    }
  ],
  "bytecode": "0x608060405234801561001057600080fd5b5061094b806100206000396000f3fe6080604052600436106100295760003560e01c80630c53c51c1461002e5780632d0335ab14610057575b600080fd5b61004161003c36600461065d565b6100a8565b60405161004e919061084c565b60405180910390f35b34801561006357600080fd5b5061009a61007236600461063c565b73ffffffffffffffffffffffffffffffffffffffff1660009081526015602052604090205490565b60405190815260200161004e565b606060006100b5866103cb565b90506000357fffffffff000000000000000000000000000000000000000000000000000000009081169082161415610174576040517f08c379a000000000000000000000000000000000000000000000000000000000815260206004820152603d60248201527f66756e6374696f6e5369676e61747572652063616e206e6f74206265206f662060448201527f657865637574654d6574615472616e73616374696f6e206d6574686f6400000060648201526084015b60405180910390fd5b73ffffffffffffffffffffffffffffffffffffffff8716600081815260156020908152604091829020548251606081018452818152918201939093529081018890526101c389828989896103eb565b61024f576040517f08c379a000000000000000000000000000000000000000000000000000000000815260206004820152602160248201527f5369676e657220616e64207369676e617475726520646f206e6f74206d61746360448201527f6800000000000000000000000000000000000000000000000000000000000000606482015260840161016b565b61025a82600161085f565b73ffffffffffffffffffffffffffffffffffffffff8a16600090815260156020908152604080832093909355915190918291309161029c918d918f91016107c0565b604080517fffffffffffffffffffffffffffffffffffffffffffffffffffffffffffffffe0818403018152908290526102d4916107a4565b6000604051808303816000865af19150503d8060008114610311576040519150601f19603f3d011682016040523d82523d6000602084013e610316565b606091505b509150915081610382576040517f08c379a000000000000000000000000000000000000000000000000000000000815260206004820152601c60248201527f46756e6374696f6e2063616c6c206e6f74207375636365737366756c00000000604482015260640161016b565b7f5845892132946850460bff5a0083f71031bc5bf9aadcd40f1de79423eac9b10b8b338c6040516103b59392919061080a565b60405180910390a19a9950505050505050505050565b60008151600014156103df575060006103e6565b5060208101515b919050565b60008060016104016103fc88610532565b6105bc565b6040805160008152602081018083529290925260ff861690820152606081018790526080810186905260a0016020604051602081039080840390855afa15801561044f573d6000803e3d6000fd5b50506040517fffffffffffffffffffffffffffffffffffffffffffffffffffffffffffffffe0015191505073ffffffffffffffffffffffffffffffffffffffff81166104f7576040517f08c379a000000000000000000000000000000000000000000000000000000000815260206004820152601160248201527f496e76616c6964207369676e6174757265000000000000000000000000000000604482015260640161016b565b8673ffffffffffffffffffffffffffffffffffffffff168173ffffffffffffffffffffffffffffffffffffffff161491505095945050505050565b60006040518060800160405280604381526020016108fc604391398051602091820120835184830151604080870151805190860120905161059f9501938452602084019290925273ffffffffffffffffffffffffffffffffffffffff166040830152606082015260800190565b604051602081830303815290604052805190602001209050919050565b60006105c760225490565b6040517f1901000000000000000000000000000000000000000000000000000000000000602082015260228101919091526042810183905260620161059f565b803573ffffffffffffffffffffffffffffffffffffffff811681146103e657600080fd5b803560ff811681146103e657600080fd5b60006020828403121561064d578081fd5b61065682610607565b9392505050565b600080600080600060a08688031215610674578081fd5b61067d86610607565b9450602086013567ffffffffffffffff80821115610699578283fd5b818801915088601f8301126106ac578283fd5b8135818111156106be576106be6108cc565b604051601f82017fffffffffffffffffffffffffffffffffffffffffffffffffffffffffffffffe0908116603f01168101908382118183101715610704576107046108cc565b816040528281528b602084870101111561071c578586fd5b826020860160208301379182016020018590525095505050604086013592506060860135915061074e6080870161062b565b90509295509295909350565b6000815180845261077281602086016020860161089c565b601f017fffffffffffffffffffffffffffffffffffffffffffffffffffffffffffffffe0169290920160200192915050565b600082516107b681846020870161089c565b9190910192915050565b600083516107d281846020880161089c565b60609390931b7fffffffffffffffffffffffffffffffffffffffff000000000000000000000000169190920190815260140192915050565b600073ffffffffffffffffffffffffffffffffffffffff808616835280851660208401525060606040830152610843606083018461075a565b95945050505050565b600060208252610656602083018461075a565b60008219821115610897577f4e487b710000000000000000000000000000000000000000000000000000000081526011600452602481fd5b500190565b60005b838110156108b757818101518382015260200161089f565b838111156108c6576000848401525b50505050565b7f4e487b7100000000000000000000000000000000000000000000000000000000600052604160045260246000fdfe4d6574615472616e73616374696f6e2875696e74323536206e6f6e63652c616464726573732066726f6d2c62797465732066756e6374696f6e5369676e617475726529a164736f6c6343000802000a",
  "linkReferences": {},
  "deployedLinkReferences": {}
}