{
  "_format": "hh-sol-artifact-1",
  "contractName": "TokenatxorGameFacet",
  "sourceName": "contracts/Tokenatxor/facets/TokenatxorGameFacet.sol",
  "abi": [
    {
      "anonymous": false,
      "inputs": [
        {
          "indexed": true,
          "internalType": "uint256",
          "name": "_tokenId",
          "type": "uint256"
        }
      ],
      "name": "ClaimTokenatxor",
      "type": "event"
    },
    {
      "anonymous": false,
      "inputs": [
        {
          "indexed": true,
          "internalType": "uint256",
          "name": "_tokenId",
          "type": "uint256"
        },
        {
          "indexed": false,
          "internalType": "uint256",
          "name": "_time",
          "type": "uint256"
        }
      ],
      "name": "LockTokenatxor",
      "type": "event"
    },
    {
      "anonymous": false,
      "inputs": [
        {
          "indexed": true,
          "internalType": "uint256",
          "name": "_batchId",
          "type": "uint256"
        },
        {
          "indexed": false,
          "internalType": "uint256[]",
          "name": "tokenIds",
          "type": "uint256[]"
        }
      ],
      "name": "SetBatchId",
      "type": "event"
    },
    {
      "anonymous": false,
      "inputs": [
        {
          "indexed": true,
          "internalType": "uint256",
          "name": "_tokenId",
          "type": "uint256"
        },
        {
          "indexed": false,
          "internalType": "string",
          "name": "_oldName",
          "type": "string"
        },
        {
          "indexed": false,
          "internalType": "string",
          "name": "_newName",
          "type": "string"
        }
      ],
      "name": "SetTokenatxorName",
      "type": "event"
    },
    {
      "anonymous": false,
      "inputs": [
        {
          "indexed": true,
          "internalType": "uint256",
          "name": "_tokenId",
          "type": "uint256"
        },
        {
          "indexed": false,
          "internalType": "int16[4]",
          "name": "_values",
          "type": "int16[4]"
        }
      ],
      "name": "SpendSkillpoints",
      "type": "event"
    },
    {
      "anonymous": false,
      "inputs": [
        {
          "indexed": true,
          "internalType": "uint256",
          "name": "_tokenId",
          "type": "uint256"
        },
        {
          "indexed": false,
          "internalType": "uint256",
          "name": "_time",
          "type": "uint256"
        }
      ],
      "name": "UnLockTokenatxor",
      "type": "event"
    },
    {
      "inputs": [
        {
          "internalType": "uint256",
          "name": "_tokenId",
          "type": "uint256"
        }
      ],
      "name": "availableSkillPoints",
      "outputs": [
        {
          "internalType": "uint256",
          "name": "",
          "type": "uint256"
        }
      ],
      "stateMutability": "view",
      "type": "function"
    },
    {
      "inputs": [
        {
          "internalType": "int16[6]",
          "name": "_numericTraits",
          "type": "int16[6]"
        }
      ],
      "name": "baseRarityScore",
      "outputs": [
        {
          "internalType": "uint256",
          "name": "rarityScore_",
          "type": "uint256"
        }
      ],
      "stateMutability": "pure",
      "type": "function"
    },
    {
      "inputs": [
        {
          "internalType": "uint256",
          "name": "_tokenId",
          "type": "uint256"
        },
        {
          "internalType": "uint256",
          "name": "_option",
          "type": "uint256"
        },
        {
          "internalType": "uint256",
          "name": "_stakeAmount",
          "type": "uint256"
        }
      ],
      "name": "claimTokenatxor",
      "outputs": [],
      "stateMutability": "nonpayable",
      "type": "function"
    },
    {
      "inputs": [],
      "name": "currentProduction",
      "outputs": [
        {
          "internalType": "uint256",
          "name": "productionId_",
          "type": "uint256"
        },
        {
          "components": [
            {
              "internalType": "uint256",
              "name": "productionMaxSize",
              "type": "uint256"
            },
            {
              "internalType": "uint256",
              "name": "productionPrice",
              "type": "uint256"
            },
            {
              "internalType": "bytes3",
              "name": "bodyColor",
              "type": "bytes3"
            },
            {
              "internalType": "uint24",
              "name": "totalCount",
              "type": "uint24"
            }
          ],
          "internalType": "struct Production",
          "name": "production_",
          "type": "tuple"
        }
      ],
      "stateMutability": "view",
      "type": "function"
    },
    {
      "inputs": [
        {
          "internalType": "uint256",
          "name": "_tokenId",
          "type": "uint256"
        }
      ],
      "name": "getNumericTraits",
      "outputs": [
        {
          "internalType": "int16[6]",
          "name": "numericTraits_",
          "type": "int16[6]"
        }
      ],
      "stateMutability": "view",
      "type": "function"
    },
    {
      "inputs": [
        {
          "internalType": "uint256[]",
          "name": "_tokenIds",
          "type": "uint256[]"
        }
      ],
      "name": "interact",
      "outputs": [],
      "stateMutability": "nonpayable",
      "type": "function"
    },
    {
      "inputs": [
        {
          "internalType": "uint256",
          "name": "_tokenId",
          "type": "uint256"
        }
      ],
      "name": "modifiedTraitsAndRarityScore",
      "outputs": [
        {
          "internalType": "int16[6]",
          "name": "numericTraits_",
          "type": "int16[6]"
        },
        {
          "internalType": "uint256",
          "name": "rarityScore_",
          "type": "uint256"
        }
      ],
      "stateMutability": "view",
      "type": "function"
    },
    {
      "inputs": [
        {
          "internalType": "uint256",
          "name": "_tokenId",
          "type": "uint256"
        }
      ],
      "name": "productionTokenatxorTraits",
      "outputs": [
        {
          "components": [
            {
              "internalType": "uint256",
              "name": "randomNumber",
              "type": "uint256"
            },
            {
              "internalType": "int16[6]",
              "name": "numericTraits",
              "type": "int16[6]"
            },
            {
              "internalType": "address",
              "name": "collateralType",
              "type": "address"
            },
            {
              "internalType": "uint256",
              "name": "minimumStake",
              "type": "uint256"
            }
          ],
          "internalType": "struct ProductionTokenatxorTraitsIO[10]",
          "name": "productionTokenatxorTraits_",
          "type": "tuple[10]"
        }
      ],
      "stateMutability": "view",
      "type": "function"
    },
    {
      "inputs": [
        {
          "internalType": "int16[6]",
          "name": "_numericTraits",
          "type": "int16[6]"
        }
      ],
      "name": "rarityMultiplier",
      "outputs": [
        {
          "internalType": "uint256",
          "name": "multiplier_",
          "type": "uint256"
        }
      ],
      "stateMutability": "pure",
      "type": "function"
    },
    {
      "inputs": [],
      "name": "revenueShares",
      "outputs": [
        {
          "components": [
            {
              "internalType": "address",
              "name": "burnAddress",
              "type": "address"
            },
            {
              "internalType": "address",
              "name": "daoAddress",
              "type": "address"
            },
            {
              "internalType": "address",
              "name": "rarityFarming",
              "type": "address"
            },
            {
              "internalType": "address",
              "name": "artists",
              "type": "address"
            }
          ],
          "internalType": "struct TokenatxorGameFacet.RevenueSharesIO",
          "name": "",
          "type": "tuple"
        }
      ],
      "stateMutability": "view",
      "type": "function"
    },
    {
      "inputs": [
        {
          "internalType": "uint256",
          "name": "_tokenId",
          "type": "uint256"
        },
        {
          "internalType": "string",
          "name": "_name",
          "type": "string"
        }
      ],
      "name": "setTokenatxorName",
      "outputs": [],
      "stateMutability": "nonpayable",
      "type": "function"
    },
    {
      "inputs": [
        {
          "internalType": "uint256",
          "name": "_tokenId",
          "type": "uint256"
        },
        {
          "internalType": "int16[4]",
          "name": "_values",
          "type": "int16[4]"
        }
      ],
      "name": "spendSkillPoints",
      "outputs": [],
      "stateMutability": "nonpayable",
      "type": "function"
    },
    {
      "inputs": [],
      "name": "tktrAddress",
      "outputs": [
        {
          "internalType": "address",
          "name": "contract_",
          "type": "address"
        }
      ],
      "stateMutability": "view",
      "type": "function"
    },
    {
      "inputs": [
        {
          "internalType": "address",
          "name": "_owner",
          "type": "address"
        },
        {
          "internalType": "uint256",
          "name": "_count",
          "type": "uint256"
        },
        {
          "internalType": "uint256",
          "name": "_skip",
          "type": "uint256"
        },
        {
          "internalType": "bool",
          "name": "all",
          "type": "bool"
        }
      ],
      "name": "tokenIdsWithWisdom",
      "outputs": [
        {
          "components": [
            {
              "internalType": "uint256",
              "name": "tokenId",
              "type": "uint256"
            },
            {
              "internalType": "uint256",
              "name": "wisdom",
              "type": "uint256"
            },
            {
              "internalType": "uint256",
              "name": "lastInteracted",
              "type": "uint256"
            }
          ],
          "internalType": "struct TokenatxorGameFacet.TokenIdsWithWisdom[]",
          "name": "tokenIdsWithWisdom_",
          "type": "tuple[]"
        }
      ],
      "stateMutability": "view",
      "type": "function"
    },
    {
      "inputs": [
        {
          "internalType": "string",
          "name": "_name",
          "type": "string"
        }
      ],
      "name": "tokenatxorNameAvailable",
      "outputs": [
        {
          "internalType": "bool",
          "name": "available_",
          "type": "bool"
        }
      ],
      "stateMutability": "view",
      "type": "function"
    },
    {
      "inputs": [
        {
          "internalType": "uint256",
          "name": "_experience",
          "type": "uint256"
        }
      ],
      "name": "tokenatxorPowerLevel",
      "outputs": [
        {
          "internalType": "uint256",
          "name": "level_",
          "type": "uint256"
        }
      ],
      "stateMutability": "pure",
      "type": "function"
    },
    {
      "inputs": [
        {
          "internalType": "uint256",
          "name": "_tokenId",
          "type": "uint256"
        }
      ],
      "name": "wisdom",
      "outputs": [
        {
          "internalType": "uint256",
          "name": "score_",
          "type": "uint256"
        }
      ],
      "stateMutability": "view",
      "type": "function"
    },
    {
      "inputs": [
        {
          "internalType": "uint256",
          "name": "_experience",
          "type": "uint256"
        }
      ],
      "name": "xpUntilNextPowerLevel",
      "outputs": [
        {
          "internalType": "uint256",
          "name": "requiredXp_",
          "type": "uint256"
        }
      ],
      "stateMutability": "pure",
      "type": "function"
    }
  ],
  "bytecode": "0x608060405234801561001057600080fd5b50614eba806100206000396000f3fe60806040523480156200001157600080fd5b5060043610620001545760003560e01c8063b00d177411620000c3578063d0c9c4de116200008d578063f6f518c6116200006f578063f6f518c614620003f7578063fa5f52951462000452578063fffebb4114620004785762000154565b8063d0c9c4de14620003c9578063ec1ea96614620003e05762000154565b8063b00d1774146200035e578063b3a8579e1462000375578063bce72fcd146200038c578063c889dfc414620003b25762000154565b80634774e33f11620001235780637bc2439711620001055780637bc24397146200030a5780639abf6c511462000330578063a4c366fe14620003475762000154565b80634774e33f14620001dc5780634e22928814620002045762000154565b806309cbaf06146200015957806318e76ed31462000183578063206a619914620001ac57806322c6751914620001c3575b600080fd5b620001706200016a36600462003e76565b6200049f565b6040519081526020015b60405180910390f35b601a5460405173ffffffffffffffffffffffffffffffffffffffff90911681526020016200017a565b62000170620001bd36600462003ffe565b620004b2565b620001da620001d436600462003f0a565b620004bf565b005b620001f3620001ed36600462003fba565b620007ab565b60405190151581526020016200017a565b620002ae60408051608081018252600080825260208201819052918101829052606081018290525050601654640100000000900461ffff166000818152600860209081526040918290208251608081018452815481526001820154928101929092526002015460e881901b7fffffff00000000000000000000000000000000000000000000000000000000001692820192909252630100000090910462ffffff1660608201529091565b604080519283528151602080850191909152820151838201528101517fffffff000000000000000000000000000000000000000000000000000000000016606080840191909152015162ffffff16608082015260a0016200017a565b620003216200031b36600462003ffe565b6200081b565b6040516200017a9190620041e6565b620001706200034136600462003e76565b62000830565b620001706200035836600462003ffe565b6200083d565b620001706200036f36600462003ffe565b62000951565b620001da6200038636600462004098565b6200095e565b620003a36200039d36600462003e11565b62000f6b565b6040516200017a919062004256565b620001da620003c336600462004017565b62001349565b62000170620003da36600462003ffe565b6200175a565b620001da620003f13660046200404a565b62001767565b6200040162001c79565b6040516200017a9190815173ffffffffffffffffffffffffffffffffffffffff9081168252602080840151821690830152604080840151821690830152606092830151169181019190915260800190565b620004696200046336600462003ffe565b62001ce1565b6040516200017a9190620041b9565b6200048f6200048936600462003ffe565b62001cf6565b6040516200017a929190620041c9565b6000620004ac8262001d17565b92915050565b6000620004ac8262001dca565b6000620004cb62001e08565b905060005b82811015620007a557600084848381811062000515577f4e487b7100000000000000000000000000000000000000000000000000000000600052603260045260246000fd5b602090810292909201356000818152600d9093526040909220600b01549192505073ffffffffffffffffffffffffffffffffffffffff16308114620006c3578073ffffffffffffffffffffffffffffffffffffffff168473ffffffffffffffffffffffffffffffffffffffff161480620005c1575073ffffffffffffffffffffffffffffffffffffffff80821660009081526012602090815260408083209388168352929052205460ff165b80620005f3575060008281526013602052604090205473ffffffffffffffffffffffffffffffffffffffff8581169116145b8062000631575073ffffffffffffffffffffffffffffffffffffffff8082166000908152603f602090815260408083209388168352929052205460ff165b620006c3576040517f08c379a000000000000000000000000000000000000000000000000000000000815260206004820152603360248201527f546f6b656e6174786f7247616d6546616365743a204e6f74206f776e6572206f60448201527f6620746f6b656e206f7220617070726f7665640000000000000000000000000060648201526084015b60405180910390fd5b6000828152600d60205260409020600b015474010000000000000000000000000000000000000000900460ff1660031462000781576040517f08c379a000000000000000000000000000000000000000000000000000000000815260206004820152602860248201527f4c6962546f6b656e6174786f723a204f6e6c792076616c696420666f7220546f60448201527f6b656e6174786f720000000000000000000000000000000000000000000000006064820152608401620006ba565b6200078c8262001e73565b50505080806200079c90620047a4565b915050620004d0565b50505050565b600080601401620007f284848080601f01602080910402602001604051908101604052809392919081815260200183838082843760009201919091525062001feb92505050565b6040516200080191906200415b565b9081526040519081900360200190205460ff169392505050565b6200082562003bd9565b620004ac82620024b1565b6000620004ac8262002713565b6000818152600d602052604081206005015481906200085c90620027c3565b905060006200086d60038362004427565b6000858152600d6020526040902060070154909150808210156200093a576040517f08c379a000000000000000000000000000000000000000000000000000000000815260206004820152604360248201527f546f6b656e6174786f7247616d6546616365743a205573656420736b696c6c2060448201527f706f696e74732069732067726561746572207468616e20736b696c6c20706f6960648201527f6e74730000000000000000000000000000000000000000000000000000000000608482015260a401620006ba565b6200094681836200470b565b93505050505b919050565b6000620004ac826200280e565b6000838152600d60205260409020600b015483907a010000000000000000000000000000000000000000000000000000900460ff161562000a22576040517f08c379a000000000000000000000000000000000000000000000000000000000815260206004820152603460248201527f4c696241707053746f726167653a204f6e6c792063616c6c61626c65206f6e2060448201527f756e6c6f636b656420746f6b656e6174786f72730000000000000000000000006064820152608401620006ba565b6000848152600d60205260409020600b0154849073ffffffffffffffffffffffffffffffffffffffff1662000a5662001e08565b73ffffffffffffffffffffffffffffffffffffffff161462000afb576040517f08c379a000000000000000000000000000000000000000000000000000000000815260206004820152603b60248201527f4c696241707053746f726167653a204f6e6c7920746f6b656e6174786f72206f60448201527f776e65722063616e2063616c6c20746869732066756e6374696f6e00000000006064820152608401620006ba565b6000858152600d60205260409020600b81015474010000000000000000000000000000000000000000900460ff1660021462000bb9576040517f08c379a0000000000000000000000000000000000000000000000000000000008152602060048201526024808201527f546f6b656e6174786f7247616d6546616365743a20506f7274616c206e6f742060448201527f6f70656e000000000000000000000000000000000000000000000000000000006064820152608401620006ba565b600a851062000c4b576040517f08c379a000000000000000000000000000000000000000000000000000000000815260206004820152603960248201527f546f6b656e6174786f7247616d6546616365743a204f6e6c7920313020746f6b60448201527f656e6174786f72206f7074696f6e7320617661696c61626c65000000000000006064820152608401620006ba565b6000868152600c6020908152604080832054600d9092528220600a0154909162000c7782848a6200288f565b80516004860155602081015190915062000c98906002860190600662003c0a565b5060408101516009850180547fffffffffffffffffffffffff00000000000000000000000000000000000000001673ffffffffffffffffffffffffffffffffffffffff9092169190911790556060810151600685015562000cfc61a8c0426200470b565b600b850180547fffffffffffff0000000000ffffffffffffffffffffffffffffffffffffffffff16750100000000000000000000000000000000000000000064ffffffffff93841602179055603260088601556009850180547fffffffffffffff0000000000ffffffffffffffffffffffffffffffffffffffff16740100000000000000000000000000000000000000004290931692909202919091179055606081015187101562000e31576040517f08c379a000000000000000000000000000000000000000000000000000000000815260206004820152603960248201527f546f6b656e6174786f7247616d6546616365743a205f7374616b65416d6f756e60448201527f74206c657373207468616e206d696e696d756d207374616b65000000000000006064820152608401620006ba565b600b840180547fffffffffffffffffffffff00ffffffffffffffffffffffffffffffffffffffff167403000000000000000000000000000000000000000017905560405189907f06cce7c93d4bdbd48370bd022de68d0d77f181d5f752c85b1157d3f1e31fa83290600090a26000816040015160405162000eb29062003ca6565b73ffffffffffffffffffffffffffffffffffffffff9091168152602001604051809103906000f08015801562000eec573d6000803e3d6000fd5b50600c860180547fffffffffffffffffffffffff00000000000000000000000000000000000000001673ffffffffffffffffffffffffffffffffffffffff83161790559050600062000f3d62001e08565b905062000f51836040015182848c62002c0e565b62000f5e308c8362002d9e565b5050505050505050505050565b73ffffffffffffffffffffffffffffffffffffffff84166000908152600e602090815260408083208054825181850281018501909352808352606094938301828280156200100557602002820191906000526020600020906000905b82829054906101000a900463ffffffff1663ffffffff168152602001906004019060208260030104928301926001038202915080841162000fc75790505b505050505090506000836200101b57856200101e565b81515b90508067ffffffffffffffff81111562001061577f4e487b7100000000000000000000000000000000000000000000000000000000600052604160045260246000fd5b604051908082528060200260200182016040528015620010b957816020015b620010a560405180606001604052806000815260200160008152602001600081525090565b815260200190600190039081620010805790505b5092508362001160578151620010d087876200440c565b111562001160576040517f08c379a000000000000000000000000000000000000000000000000000000000815260206004820152603a60248201527f67616d6546616365743a204f776e657220646f6573206e6f742068617665207560448201527f7020746f207468617420616d6f756e74206f6620746f6b656e730000000000006064820152608401620006ba565b60005b818110156200133e5760006200117a87836200440c565b90506000848281518110620011b8577f4e487b7100000000000000000000000000000000000000000000000000000000600052603260045260246000fd5b602002602001015190506000600d0160008263ffffffff168152602001908152602001600020600b0160149054906101000a900460ff1660ff166003141562001326578063ffffffff168684815181106200123c577f4e487b7100000000000000000000000000000000000000000000000000000000600052603260045260246000fd5b6020908102919091010151526200125963ffffffff82166200280e565b86848151811062001293577f4e487b7100000000000000000000000000000000000000000000000000000000600052603260045260246000fd5b602002602001015160200181815250506000600d0160008263ffffffff168152602001908152602001600020600b0160159054906101000a900464ffffffffff1664ffffffffff1686848151811062001315577f4e487b7100000000000000000000000000000000000000000000000000000000600052603260045260246000fd5b602002602001015160400181815250505b505080806200133590620047a4565b91505062001163565b505050949350505050565b6000828152600d60205260409020600b015482907a010000000000000000000000000000000000000000000000000000900460ff16156200140d576040517f08c379a000000000000000000000000000000000000000000000000000000000815260206004820152603460248201527f4c696241707053746f726167653a204f6e6c792063616c6c61626c65206f6e2060448201527f756e6c6f636b656420746f6b656e6174786f72730000000000000000000000006064820152608401620006ba565b6000838152600d60205260409020600b0154839073ffffffffffffffffffffffffffffffffffffffff166200144162001e08565b73ffffffffffffffffffffffffffffffffffffffff1614620014e6576040517f08c379a000000000000000000000000000000000000000000000000000000000815260206004820152603b60248201527f4c696241707053746f726167653a204f6e6c7920746f6b656e6174786f72206f60448201527f776e65722063616e2063616c6c20746869732066756e6374696f6e00000000006064820152608401620006ba565b6000805b600481101562001652576200155085826004811062001532577f4e487b7100000000000000000000000000000000000000000000000000000000600052603260045260246000fd5b60200201602081019062001547919062003f9d565b60010b62002dfd565b6200155c90836200440c565b915084816004811062001598577f4e487b7100000000000000000000000000000000000000000000000000000000600052603260045260246000fd5b602002016020810190620015ad919062003f9d565b6000878152600d602052604090206002018260068110620015f7577f4e487b7100000000000000000000000000000000000000000000000000000000600052603260045260246000fd5b601091828204019190066002028282829054906101000a900460010b6200161f91906200432b565b92506101000a81548161ffff021916908360010b61ffff16021790555080806200164990620047a4565b915050620014ea565b50806200165f866200083d565b1015620016ef576040517f08c379a000000000000000000000000000000000000000000000000000000000815260206004820152602c60248201527f546f6b656e6174786f7247616d6546616365743a204e6f7420656e6f7567682060448201527f736b696c6c20706f696e747300000000000000000000000000000000000000006064820152608401620006ba565b6000858152600d602052604081206007018054839290620017129084906200440c565b92505081905550847f4b92ed0db0758e7ed73674d6915bd532a55322aa1b13abeaad14acf3954b1a8c856040516200174b919062004179565b60405180910390a25050505050565b6000620004ac82620027c3565b6000838152600d60205260409020600b015483907a010000000000000000000000000000000000000000000000000000900460ff16156200182b576040517f08c379a000000000000000000000000000000000000000000000000000000000815260206004820152603460248201527f4c696241707053746f726167653a204f6e6c792063616c6c61626c65206f6e2060448201527f756e6c6f636b656420746f6b656e6174786f72730000000000000000000000006064820152608401620006ba565b6000848152600d60205260409020600b0154849073ffffffffffffffffffffffffffffffffffffffff166200185f62001e08565b73ffffffffffffffffffffffffffffffffffffffff161462001904576040517f08c379a000000000000000000000000000000000000000000000000000000000815260206004820152603b60248201527f4c696241707053746f726167653a204f6e6c7920746f6b656e6174786f72206f60448201527f776e65722063616e2063616c6c20746869732066756e6374696f6e00000000006064820152608401620006ba565b6000858152600d60205260409020600b015474010000000000000000000000000000000000000000900460ff16600314620019c2576040517f08c379a000000000000000000000000000000000000000000000000000000000815260206004820152603e60248201527f546f6b656e6174786f7247616d6546616365743a204d75737420636c61696d2060448201527f746f6b656e6174786f72206265666f72652073657474696e67206e616d6500006064820152608401620006ba565b600062001a0585858080601f01602080910402602001604051908101604052809392919081815260200183838082843760009201919091525062001feb92505050565b6000878152600d602052604081206003018054929350909162001a289062004754565b80601f016020809104026020016040519081016040528092919081815260200182805462001a569062004754565b801562001aa75780601f1062001a7b5761010080835404028352916020019162001aa7565b820191906000526020600020905b81548152906001019060200180831162001a8957829003601f168201915b5050505050905060008151111562001b0b57601462001ac68262001feb565b60405162001ad591906200415b565b90815260405190819003602001902080547fffffffffffffffffffffffffffffffffffffffffffffffffffffffffffffff001690555b60405160149062001b1e9084906200415b565b9081526040519081900360200190205460ff161562001bc0576040517f08c379a000000000000000000000000000000000000000000000000000000000815260206004820152603160248201527f546f6b656e6174786f7247616d6546616365743a20546f6b656e6174786f722060448201527f6e616d65207573656420616c72656164790000000000000000000000000000006064820152608401620006ba565b600160006014018360405162001bd791906200415b565b908152604080516020928190038301902080547fffffffffffffffffffffffffffffffffffffffffffffffffffffffffffffff0016931515939093179092556000898152600d9091522062001c3190600301878762003cb4565b50867fe829380416a7107e7530ddf094d31ff07a576db88c67a9c704a9a87824b6df3982888860405162001c6893929190620042c6565b60405180910390a250505050505050565b6040805160808082018352600080835260208084018290528385018290526060938401919091528351918201845273ffffffffffffffffffffffffffffffffffffffff808352601e548116838301529054811693820193909352601f54909216908201525b90565b62001ceb62003d4f565b620004ac8262002e1d565b62001d0062003d4f565b600062001d0d8362003054565b9094909350915050565b60008062001d258362002713565b905061012c81101562001d3d57600a9150506200094c565b61012c811015801562001d5157506101c281105b1562001d6257600a9150506200094c565b6101c2811015801562001d77575061020d8111155b1562001d885760199150506200094c565b61020e811015801562001d9d57506102448111155b1562001dae5760649150506200094c565b610245811062001dc4576103e89150506200094c565b50919050565b60008062001dd883620027c3565b90508262001de86002836200448b565b62001df590603262004651565b62001e0191906200470b565b9392505050565b60003330141562001e6e57600080368080601f01602080910402602001604051908101604052809392919081815260200183838082843760009201919091525050505036015173ffffffffffffffffffffffffffffffffffffffff16915062001cde9050565b503390565b6000818152600d60205260408120600b015481907501000000000000000000000000000000000000000000900464ffffffffff1662001eb58161a8c06200440c565b42101562001ec9576000925050506200094c565b6000848152600d830160205260408120600801549062001eea83426200470b565b9050600062001efd620151808362004427565b905060008184111562001f195762001f1682856200470b565b90505b6000602882101562001f29575060025b62001f368160016200440c565b62001f4290836200440c565b60008a8152600d8901602090815260409182902060088101849055600b0180547fffffffffffff0000000000ffffffffffffffffffffffffffffffffffffffffff1675010000000000000000000000000000000000000000004264ffffffffff160217905590518281529193508a917ff3f2fac7dfcfc2599069f339a0bc0000b8703a06978ef764ef463a98dfdba5ff910160405180910390a250600198975050505050505050565b60606000826040516020016200200291906200415b565b604080517fffffffffffffffffffffffffffffffffffffffffffffffffffffffffffffffe0818403018152919052805190915080620020c3576040517f08c379a0000000000000000000000000000000000000000000000000000000008152602060048201526024808201527f4c6962546f6b656e6174786f723a206e616d652063616e27742062652030206360448201527f68617273000000000000000000000000000000000000000000000000000000006064820152608401620006ba565b601a811062002155576040517f08c379a000000000000000000000000000000000000000000000000000000000815260206004820152603760248201527f4c6962546f6b656e6174786f723a206e616d652063616e27742062652067726560448201527f61746572207468616e20323520636861726163746572730000000000000000006064820152608401620006ba565b60008260008151811062002192577f4e487b7100000000000000000000000000000000000000000000000000000000600052603260045260246000fd5b0160209081015160f81c91508114156200222f576040517f08c379a000000000000000000000000000000000000000000000000000000000815260206004820152603260248201527f4c6962546f6b656e6174786f723a2066697273742063686172206f66206e616d60448201527f652063616e2774206265206120737061636500000000000000000000000000006064820152608401620006ba565b826200223d6001846200470b565b8151811062002275577f4e487b7100000000000000000000000000000000000000000000000000000000600052603260045260246000fd5b0160209081015160f81c915081141562002312576040517f08c379a000000000000000000000000000000000000000000000000000000000815260206004820152603160248201527f4c6962546f6b656e6174786f723a206c6173742063686172206f66206e616d6560448201527f2063616e277420626520612073706163650000000000000000000000000000006064820152608401620006ba565b60005b82811015620024a75783818151811062002358577f4e487b7100000000000000000000000000000000000000000000000000000000600052603260045260246000fd5b016020015160f81c9150601f82118015620023735750607f82105b62002401576040517f08c379a000000000000000000000000000000000000000000000000000000000815260206004820152603460248201527f4c6962546f6b656e6174786f723a20696e76616c69642063686172616374657260448201527f20696e20546f6b656e6174786f72206e616d652e0000000000000000000000006064820152608401620006ba565b605b82108015620024125750604082115b156200249257620024258260206200440c565b60f81b84828151811062002462577f4e487b7100000000000000000000000000000000000000000000000000000000600052603260045260246000fd5b60200101907effffffffffffffffffffffffffffffffffffffffffffffffffffffffffffff1916908160001a9053505b806200249e81620047a4565b91505062002315565b5091949350505050565b620024bb62003bd9565b6000828152600d60205260408120600b015474010000000000000000000000000000000000000000900460ff1660021462002578576040517f08c379a0000000000000000000000000000000000000000000000000000000008152602060048201526024808201527f546f6b656e6174786f7246616365743a2050726f64756374696f6e206e6f742060448201527f6f70656e000000000000000000000000000000000000000000000000000000006064820152608401620006ba565b6000838152600c82016020908152604080832054600d85019092528220600a015490915b600a8110156200270a576000620025b58385846200288f565b80519091508683600a8110620025f4577f4e487b7100000000000000000000000000000000000000000000000000000000600052603260045260246000fd5b60200201515260408101518683600a811062002639577f4e487b7100000000000000000000000000000000000000000000000000000000600052603260045260246000fd5b602002015173ffffffffffffffffffffffffffffffffffffffff90911660409091015260608101518683600a81106200269b577f4e487b7100000000000000000000000000000000000000000000000000000000600052603260045260246000fd5b6020020151606001818152505080602001518683600a8110620026e7577f4e487b7100000000000000000000000000000000000000000000000000000000600052603260045260246000fd5b6020020151602001819052505080806200270190620047a4565b9150506200259c565b50505050919050565b6000805b600681101562001dc45760008382600681106200275d577f4e487b7100000000000000000000000000000000000000000000000000000000600052603260045260246000fd5b602002015160010b90506032811262002791576200277d8160016200440c565b6200278990846200440c565b9250620027ad565b6200279e81606462004691565b620027aa90846200440c565b92505b5080620027ba81620047a4565b91505062002717565b600062077a42821115620027da575060636200094c565b600a620027f3620027ed84600262004651565b62003305565b620027ff919062004427565b9050620004ac8160016200440c565b6000818152600d60205260408120600b81015460088201548392917501000000000000000000000000000000000000000000900464ffffffffff1690836200285783426200470b565b905060006200286a620151808362004427565b90508083111562002884576200288181846200470b565b96505b505050505050919050565b6200289962003d6d565b6000808484604051602001620028b9929190918252602082015260400190565b604080517fffffffffffffffffffffffffffffffffffffffffffffffffffffffffffffffe081840301815291815281516020928301208086526000898152603d8601909352908220805491935090620029139084620047e0565b815481106200294b577f4e487b7100000000000000000000000000000000000000000000000000000000600052603260045260246000fd5b60009182526020808320919091015473ffffffffffffffffffffffffffffffffffffffff16808352908590526040808320815160c0810192839052929450620029db938693926006918390855b82829054906101000a900460010b60010b815260200190600201906020826001010492830192600103820291508084116200299857905050505050508962003364565b60208581019190915273ffffffffffffffffffffffffffffffffffffffff8216604080870182905260009182529185905281812082516101c08101938490529192829061010082019083906006908288855b82829054906101000a900460010b60010b8152602001906002019060208260010104928301926001038202915080841162002a2d5790505050509183525050600191909101547fffffff000000000000000000000000000000000000000000000000000000000060e882811b821660208086019190915263010000008404821b831660408601526601000000000000840490911b909116606084015260ff69010000000000000000008304811660808501526a01000000000000000000008304811660a085015261ffff6b0100000000000000000000008404811660c0808701919091526d0100000000000000000000000000909404909116151560e0909401939093529083015190880151929350169060009062002b4c9062001d17565b90506000828573ffffffffffffffffffffffffffffffffffffffff1663313ce5676040518163ffffffff1660e01b815260040160206040518083038186803b15801562002b9857600080fd5b505afa15801562002bad573d6000803e3d6000fd5b505050506040513d601f19601f8201168201806040525081019062002bd39190620040c4565b62002be090600a6200448b565b62002bec919062004427565b905062002bfa828262004651565b606089015250959998505050505050505050565b833b8062002c9f576040517f08c379a000000000000000000000000000000000000000000000000000000000815260206004820152602960248201527f4c696245524332303a20455243323020746f6b656e206164647265737320686160448201527f73206e6f20636f646500000000000000000000000000000000000000000000006064820152608401620006ba565b6040805173ffffffffffffffffffffffffffffffffffffffff86811660248301528581166044830152606480830186905283518084039091018152608490920183526020820180517bffffffffffffffffffffffffffffffffffffffffffffffffffffffff167f23b872dd00000000000000000000000000000000000000000000000000000000179052915160009283929089169162002d4091906200415b565b6000604051808303816000865af19150503d806000811462002d7f576040519150601f19603f3d011682016040523d82523d6000602084013e62002d84565b606091505b509150915062002d958282620035db565b50505050505050565b73ffffffffffffffffffffffffffffffffffffffff838116600090815260396020908152604080832086845282528083209385168352929052908120548062002de957505062002df8565b62002df581846200375f565b50505b505050565b60008082121562002e195762002e1382620047f7565b620004ac565b5090565b62002e2762003d4f565b6000828152600d60205260408120600901548190620151809062002e7090790100000000000000000000000000000000000000000000000000900464ffffffffff16426200470b565b62002e7c919062004427565b905060005b60068110156200304c576000858152600d840160205260408120600201826006811062002ed7577f4e487b7100000000000000000000000000000000000000000000000000000000600052603260045260246000fd5b601091828204019190066002029054906101000a900460010b60010b9050600084600d016000888152602001908152602001600020600101836006811062002f48577f4e487b7100000000000000000000000000000000000000000000000000000000600052603260045260246000fd5b602091828204019190069054906101000a900460000b60000b905060008113801562002f7357508381135b1562002f995762002f85848262004691565b62002f91908362004392565b915062002fe8565b8362002fc6827fffffffffffffffffffffffffffffffffffffffffffffffffffffffffffffffff6200458d565b131562002fe85762002fd9848262004392565b62002fe5908362004392565b91505b8186846006811062003023577f4e487b7100000000000000000000000000000000000000000000000000000000600052603260045260246000fd5b602002019060010b908160010b81525050505080806200304390620047a4565b91505062002e81565b505050919050565b6200305e62003d4f565b6000828152600d60205260408120600b0154819074010000000000000000000000000000000000000000900460ff16600314620030f8576040517f08c379a000000000000000000000000000000000000000000000000000000000815260206004820181905260248201527f546f6b656e6174786f7246616365743a204d75737420626520636c61696d65646044820152606401620006ba565b6000848152600d820160205260409020620031138562002e1d565b93506000805b6010811015620032de5760008382601081106200315f577f4e487b7100000000000000000000000000000000000000000000000000000000600052603260045260246000fd5b601081049190910154600f9091166002026101000a900461ffff16905080620031895750620032c9565b6000856006018281548110620031c8577f4e487b7100000000000000000000000000000000000000000000000000000000600052603260045260246000fd5b90600052602060002090600b0201905060005b6006811015620032a75781600301816006811062003222577f4e487b7100000000000000000000000000000000000000000000000000000000600052603260045260246000fd5b602091828204019190069054906101000a900460000b60000b89826006811062003275577f4e487b7100000000000000000000000000000000000000000000000000000000600052603260045260246000fd5b602002018181516200328891906200432b565b600190810b900b905250806200329e81620047a4565b915050620031db565b50600a810154620032c490640100000000900460ff16856200440c565b935050505b80620032d581620047a4565b91505062003119565b506000620032ec8662002713565b9050620032fa82826200440c565b945050505050915091565b6000806002620033178460016200440c565b62003323919062004427565b90508291505b8181101562001dc45790508060028162003344818662004427565b6200335091906200440c565b6200335c919062004427565b905062003329565b6200336e62003d4f565b8160011415620034a95760005b6006811015620034a25760006200339482600862004651565b86901c60ff1690506063811115620033f857620033b360028262004427565b90506063811115620033f85760408051602080820189905281830185905282518083038401815260609092019092528051910120620033f590606490620047e0565b90505b84826006811062003432577f4e487b7100000000000000000000000000000000000000000000000000000000600052603260045260246000fd5b60200201516200344390826200432b565b8383600681106200347d577f4e487b7100000000000000000000000000000000000000000000000000000000600052603260045260246000fd5b600192830b90920b6020909202015250806200349981620047a4565b9150506200337b565b5062001e01565b60005b6006811015620035d3576000620034c582600862004651565b86901c60ff16905060638111156200352957620034e46064826200470b565b905060638111156200352957604080516020808201899052818301859052825180830384018152606090920190925280519101206200352690606490620047e0565b90505b84826006811062003563577f4e487b7100000000000000000000000000000000000000000000000000000000600052603260045260246000fd5b60200201516200357490826200432b565b838360068110620035ae577f4e487b7100000000000000000000000000000000000000000000000000000000600052603260045260246000fd5b600192830b90920b602090920201525080620035ca81620047a4565b915050620034ac565b509392505050565b811562003694578051156200368e578080602001905181019062003600919062003f7e565b6200368e576040517f08c379a000000000000000000000000000000000000000000000000000000000815260206004820152603160248201527f4c696245524332303a207472616e73666572206f72207472616e73666572467260448201527f6f6d2072657475726e65642066616c73650000000000000000000000000000006064820152608401620006ba565b6200375b565b805115620036d257806040517f08c379a0000000000000000000000000000000000000000000000000000000008152600401620006ba9190620042b1565b6040517f08c379a000000000000000000000000000000000000000000000000000000000815260206004820152602b60248201527f4c696245524332303a207472616e73666572206f72207472616e73666572467260448201527f6f6d2072657665727465640000000000000000000000000000000000000000006064820152608401620006ba565b5050565b600082815260346020526040812060018101546200377f5750506200375b565b60008481526033830160205260409020600881015460ff16151560011480620037ab5750600781015415155b15620037ba575050506200375b565b600181015473ffffffffffffffffffffffffffffffffffffffff85811691161462003842576040517f08c379a000000000000000000000000000000000000000000000000000000000815260206004820152601d60248201527f4d61726b6574706c6163653a206f776e6572206e6f742073656c6c65720000006044820152606401620006ba565b6008810180547fffffffffffffffffffffffffffffffffffffffffffffffffffffffffffffff0016600117905560038101546000908152600d8401602052604090819020600b0180547fffffffffff00ffffffffffffffffffffffffffffffffffffffffffffffffffff1690556004820154905186917f10e53bca620314e794d61e37932062e81c48e88233765d09da42aeb00ae4dba091620038f091904390918252602082015260400190565b60405180910390a26000858152603460205260408120600181015462002df59288928892620039215750506200375b565b805480156200394457600081815260348401602052604090206002808401549101555b60028201548015620039655760008181526034850160205260409020835490555b6000868152603385016020908152604080832060048101548452603588019092529182902091517f6c69737465640000000000000000000000000000000000000000000000000000815290918891600601908152602001604051809103902054141562003a21576002840154600482015460009081526035870160205260409081902090517f6c697374656400000000000000000000000000000000000000000000000000008152600601908152604051908190036020019020555b600060018501819055808555600290940184905586845260368501602052604090932080549093909250821562003a6c57600083815260368601602052604090206002808601549101555b60028401549150811562003a8f5760008281526036860160205260409020845490555b506000868152603385016020908152604080832073ffffffffffffffffffffffffffffffffffffffff89168452603788018352818420600482015485529092529182902091517f6c69737465640000000000000000000000000000000000000000000000000000815290918891600601908152602001604051809103902054141562003b8b57600284015473ffffffffffffffffffffffffffffffffffffffff871660009081526037870160209081526040808320600486015484529091529081902090517f6c697374656400000000000000000000000000000000000000000000000000008152600601908152604051908190036020019020555b600060018501819055808555600285015560048101546040805191825242602083015288917fd309bba073dd463d9d78e92766d06da7cde7d0e6e83149168a7bc913c9ecc442910162001c68565b604051806101400160405280600a905b62003bf362003d6d565b81526020019060019003908162003be95790505090565b60018301918390821562003c985791602002820160005b8382111562003c6657835183826101000a81548161ffff021916908360010b61ffff160217905550926020019260020160208160010104928301926001030262003c21565b801562003c965782816101000a81549061ffff021916905560020160208160010104928301926001030262003c66565b505b5062002e1992915062003d9d565b6105de80620048d083390190565b82805462003cc29062004754565b90600052602060002090601f01602090048101928262003ce6576000855562003c98565b82601f1062003d1f578280017fffffffffffffffffffffffffffffffffffffffffffffffffffffffffffffff0082351617855562003c98565b8280016001018555821562003c98579182015b8281111562003c9857823582559160200191906001019062003d32565b6040518060c001604052806006906020820280368337509192915050565b60405180608001604052806000815260200162003d8962003d4f565b815260006020820181905260409091015290565b5b8082111562002e19576000815560010162003d9e565b8035600181900b81146200094c57600080fd5b60008083601f84011262003dd9578182fd5b50813567ffffffffffffffff81111562003df1578182fd5b60208301915083602082850101111562003e0a57600080fd5b9250929050565b6000806000806080858703121562003e27578384fd5b843573ffffffffffffffffffffffffffffffffffffffff8116811462003e4b578485fd5b93506020850135925060408501359150606085013562003e6b81620048bd565b939692955090935050565b600060c0828403121562003e88578081fd5b82601f83011262003e97578081fd5b60405160c0810181811067ffffffffffffffff8211171562003ebd5762003ebd6200488e565b604052808360c0810186101562003ed2578384fd5b835b600681101562003eff5762003ee98262003db4565b8352602092830192919091019060010162003ed4565b509195945050505050565b6000806020838503121562003f1d578182fd5b823567ffffffffffffffff8082111562003f35578384fd5b818501915085601f83011262003f49578384fd5b81358181111562003f58578485fd5b866020808302850101111562003f6c578485fd5b60209290920196919550909350505050565b60006020828403121562003f90578081fd5b815162001e0181620048bd565b60006020828403121562003faf578081fd5b62001e018262003db4565b6000806020838503121562003fcd578182fd5b823567ffffffffffffffff81111562003fe4578283fd5b62003ff28582860162003dc7565b90969095509350505050565b60006020828403121562004010578081fd5b5035919050565b60008060a083850312156200402a578182fd5b823591508360a0840111156200403e578081fd5b50926020919091019150565b6000806000604084860312156200405f578283fd5b83359250602084013567ffffffffffffffff8111156200407d578283fd5b6200408b8682870162003dc7565b9497909650939450505050565b600080600060608486031215620040ad578283fd5b505081359360208301359350604090920135919050565b600060208284031215620040d6578081fd5b815160ff8116811462001e01578182fd5b8060005b6006811015620007a5578151600190810b85526020948501949092019101620040eb565b600081518084526200412981602086016020860162004725565b601f017fffffffffffffffffffffffffffffffffffffffffffffffffffffffffffffffe0169290920160200192915050565b600082516200416f81846020870162004725565b9190910192915050565b60808101818360005b6004811015620041b057620041978262003db4565b600190810b845260209384019392909201910162004182565b50505092915050565b60c08101620004ac8284620040e7565b60e08101620041d98285620040e7565b8260c08301529392505050565b610b408101818360005b600a811015620041b0578151805184526020808201516200421482870182620040e7565b50604082015173ffffffffffffffffffffffffffffffffffffffff1660e0860152606090910151610100850152610120909301929190910190600101620041f0565b602080825282518282018190526000919060409081850190868401855b82811015620042a4578151805185528681015187860152850151858501526060909301929085019060010162004273565b5091979650505050505050565b60006020825262001e0160208301846200410f565b600060408252620042db60408301866200410f565b828103602084015283815283856020830137816020858301015260207fffffffffffffffffffffffffffffffffffffffffffffffffffffffffffffffe0601f860116820101915050949350505050565b60008160010b8360010b82821282617fff0382138115161562004352576200435262004830565b827fffffffffffffffffffffffffffffffffffffffffffffffffffffffffffff800003821281161562004389576200438962004830565b50019392505050565b6000808212827f7fffffffffffffffffffffffffffffffffffffffffffffffffffffffffffffff03841381151615620043cf57620043cf62004830565b827f800000000000000000000000000000000000000000000000000000000000000003841281161562004406576200440662004830565b50500190565b6000821982111562004422576200442262004830565b500190565b6000826200443957620044396200485f565b500490565b80825b600180861162004452575062004482565b81870482111562004467576200446762004830565b808616156200447557918102915b9490941c93800262004441565b94509492505050565b600062001e017fffffffffffffffffffffffffffffffffffffffffffffffffffffffffffffffff60ff851684600082620044c85750600162001e01565b81620044d75750600062001e01565b8160018114620044f05760028114620044fb5762004528565b600191505062001e01565b60ff8411156200450f576200450f62004830565b6001841b915084821115620034a257620034a262004830565b5060208310610133831016604e8410600b841016171562004560575081810a838111156200455a576200455a62004830565b62001e01565b6200456f84848460016200443e565b80860482111562004584576200458462004830565b02949350505050565b60007f7fffffffffffffffffffffffffffffffffffffffffffffffffffffffffffffff81841382841385830485118282161615620045cf57620045cf62004830565b7f8000000000000000000000000000000000000000000000000000000000000000848712868205881281841616156200460c576200460c62004830565b8587129250878205871284841616156200462a576200462a62004830565b8785058712818416161562004643576200464362004830565b505050929093029392505050565b6000817fffffffffffffffffffffffffffffffffffffffffffffffffffffffffffffffff04831182151516156200468c576200468c62004830565b500290565b6000808312837f800000000000000000000000000000000000000000000000000000000000000001831281151615620046ce57620046ce62004830565b837f7fffffffffffffffffffffffffffffffffffffffffffffffffffffffffffffff01831381161562004705576200470562004830565b50500390565b60008282101562004720576200472062004830565b500390565b60005b838110156200474257818101518382015260200162004728565b83811115620007a55750506000910152565b6002810460018216806200476957607f821691505b6020821081141562001dc4577f4e487b7100000000000000000000000000000000000000000000000000000000600052602260045260246000fd5b60007fffffffffffffffffffffffffffffffffffffffffffffffffffffffffffffffff821415620047d957620047d962004830565b5060010190565b600082620047f257620047f26200485f565b500690565b60007f80000000000000000000000000000000000000000000000000000000000000008214156200482c576200482c62004830565b0390565b7f4e487b7100000000000000000000000000000000000000000000000000000000600052601160045260246000fd5b7f4e487b7100000000000000000000000000000000000000000000000000000000600052601260045260246000fd5b7f4e487b7100000000000000000000000000000000000000000000000000000000600052604160045260246000fd5b8015158114620048cc57600080fd5b5056fe608060405234801561001057600080fd5b506040516105de3803806105de83398101604081905261002f91610247565b61004161007060201b6102681760201c565b600080546001600160a01b0319166001600160a01b039290921691909117905561006a816100cd565b50610295565b6000333014156100c757600080368080601f0160208091040260200160405190810160405280939291908181526020018383808284376000920191909152505050503601516001600160a01b031691506100ca9050565b50335b90565b6000546001600160a01b03166100ec610070602090811b61026817901c565b6001600160a01b0316146101575760405162461bcd60e51b815260206004820152602760248201527f436f6c6c61746572616c457363726f773a204e6f74206f776e6572206f6620636044820152661bdb9d1c9858dd60ca1b60648201526084015b60405180910390fd5b60005460405163095ea7b360e01b81526001600160a01b03918216600482015260001960248201529082169063095ea7b390604401602060405180830381600087803b1580156101a657600080fd5b505af11580156101ba573d6000803e3d6000fd5b505050506040513d601f19601f820116820180604052508101906101de9190610275565b6102445760405162461bcd60e51b815260206004820152603160248201527f436f6c6c61746572616c457363726f773a20746f6b656e206e6f74206170707260448201527037bb32b2103337b9103a3930b739b332b960791b606482015260840161014e565b50565b600060208284031215610258578081fd5b81516001600160a01b038116811461026e578182fd5b9392505050565b600060208284031215610286578081fd5b8151801515811461026e578182fd5b61033a806102a46000396000f3fe608060405234801561001057600080fd5b506004361061002b5760003560e01c80637158f17014610030575b600080fd5b61004361003e3660046102d2565b610045565b005b60005473ffffffffffffffffffffffffffffffffffffffff16610066610268565b73ffffffffffffffffffffffffffffffffffffffff161461010e576040517f08c379a000000000000000000000000000000000000000000000000000000000815260206004820152602760248201527f436f6c6c61746572616c457363726f773a204e6f74206f776e6572206f66206360448201527f6f6e74726163740000000000000000000000000000000000000000000000000060648201526084015b60405180910390fd5b6000546040517f095ea7b300000000000000000000000000000000000000000000000000000000815273ffffffffffffffffffffffffffffffffffffffff91821660048201527fffffffffffffffffffffffffffffffffffffffffffffffffffffffffffffffff60248201529082169063095ea7b390604401602060405180830381600087803b1580156101a157600080fd5b505af11580156101b5573d6000803e3d6000fd5b505050506040513d601f19601f820116820180604052508101906101d9919061030d565b610265576040517f08c379a000000000000000000000000000000000000000000000000000000000815260206004820152603160248201527f436f6c6c61746572616c457363726f773a20746f6b656e206e6f74206170707260448201527f6f76656420666f72207472616e736665720000000000000000000000000000006064820152608401610105565b50565b6000333014156102cc57600080368080601f01602080910402602001604051908101604052809392919081815260200183838082843760009201919091525050505036015173ffffffffffffffffffffffffffffffffffffffff1691506102cf9050565b50335b90565b6000602082840312156102e3578081fd5b813573ffffffffffffffffffffffffffffffffffffffff81168114610306578182fd5b9392505050565b60006020828403121561031e578081fd5b81518015158114610306578182fdfea164736f6c6343000802000aa164736f6c6343000802000a",
  "linkReferences": {},
  "deployedLinkReferences": {}
}