{
  "_format": "hh-sol-artifact-1",
  "contractName": "BridgeFacet",
  "sourceName": "contracts/Tokenatxor/facets/BridgeFacet.sol",
  "abi": [
    {
      "anonymous": false,
      "inputs": [
        {
          "indexed": true,
          "internalType": "address",
          "name": "owner",
          "type": "address"
        },
        {
          "indexed": false,
          "internalType": "uint256[]",
          "name": "ids",
          "type": "uint256[]"
        },
        {
          "indexed": false,
          "internalType": "uint256[]",
          "name": "values",
          "type": "uint256[]"
        }
      ],
      "name": "AddedItemsBatch",
      "type": "event"
    },
    {
      "anonymous": false,
      "inputs": [
        {
          "indexed": true,
          "internalType": "address",
          "name": "owner",
          "type": "address"
        },
        {
          "indexed": false,
          "internalType": "uint256[]",
          "name": "tokenIds",
          "type": "uint256[]"
        }
      ],
      "name": "AddedTokenatxorBatch",
      "type": "event"
    },
    {
      "anonymous": false,
      "inputs": [
        {
          "indexed": true,
          "internalType": "address",
          "name": "owner",
          "type": "address"
        },
        {
          "indexed": false,
          "internalType": "uint256[]",
          "name": "tokenIds",
          "type": "uint256[]"
        }
      ],
      "name": "WithdrawnBatch",
      "type": "event"
    },
    {
      "anonymous": false,
      "inputs": [
        {
          "indexed": true,
          "internalType": "address",
          "name": "owner",
          "type": "address"
        },
        {
          "indexed": false,
          "internalType": "uint256[]",
          "name": "ids",
          "type": "uint256[]"
        },
        {
          "indexed": false,
          "internalType": "uint256[]",
          "name": "values",
          "type": "uint256[]"
        }
      ],
      "name": "WithdrawnItems",
      "type": "event"
    },
    {
      "inputs": [],
      "name": "childChainManager",
      "outputs": [
        {
          "internalType": "address",
          "name": "",
          "type": "address"
        }
      ],
      "stateMutability": "view",
      "type": "function"
    },
    {
      "inputs": [
        {
          "internalType": "address",
          "name": "_user",
          "type": "address"
        },
        {
          "internalType": "bytes",
          "name": "_depositData",
          "type": "bytes"
        }
      ],
      "name": "deposit",
      "outputs": [],
      "stateMutability": "nonpayable",
      "type": "function"
    },
    {
      "inputs": [
        {
          "internalType": "address",
          "name": "_newChildChainManager",
          "type": "address"
        }
      ],
      "name": "setChildChainManager",
      "outputs": [],
      "stateMutability": "nonpayable",
      "type": "function"
    },
    {
      "inputs": [
        {
          "internalType": "uint256[]",
          "name": "_ids",
          "type": "uint256[]"
        },
        {
          "internalType": "uint256[]",
          "name": "_values",
          "type": "uint256[]"
        }
      ],
      "name": "withdrawItemsBatch",
      "outputs": [],
      "stateMutability": "nonpayable",
      "type": "function"
    },
    {
      "inputs": [
        {
          "internalType": "uint256[]",
          "name": "_tokenIds",
          "type": "uint256[]"
        }
      ],
      "name": "withdrawTokenatxorBatch",
      "outputs": [],
      "stateMutability": "nonpayable",
      "type": "function"
    }
  ],
  "bytecode": "0x608060405234801561001057600080fd5b5061231f806100206000396000f3fe608060405234801561001057600080fd5b50600436106100675760003560e01c8063764a81bb11610050578063764a81bb14610094578063c8291d84146100a7578063cf2c52cb146100d857610067565b80630a32b21e1461006c5780636c80c16c14610081575b600080fd5b61007f61007a366004611edb565b6100eb565b005b61007f61008f366004611f1b565b6103a9565b61007f6100a2366004611e3c565b610672565b6100af6107b5565b60405173ffffffffffffffffffffffffffffffffffffffff909116815260200160405180910390f35b61007f6100e6366004611e5d565b6107d2565b60006100f5610c4e565b9050601482111561018d576040517f08c379a000000000000000000000000000000000000000000000000000000000815260206004820152603560248201527f4272696467653a2065786365656473207769746864726177206c696d6974206660448201527f6f722073696e676c65207472616e73616374696f6e000000000000000000000060648201526084015b60405180910390fd5b60005b828110156103535760008484838181106101d3577f4e487b7100000000000000000000000000000000000000000000000000000000600052603260045260246000fd5b602090810292909201356000818152600d9093526040909220600b01549192505073ffffffffffffffffffffffffffffffffffffffff848116911614610275576040517f08c379a000000000000000000000000000000000000000000000000000000000815260206004820152601f60248201527f42726964676546616365743a204e6f74206f776e6572206f6620746f6b656e006044820152606401610184565b6000818152600d60205260409020600b01547a010000000000000000000000000000000000000000000000000000900460ff1615610335576040517f08c379a000000000000000000000000000000000000000000000000000000000815260206004820152602860248201527f42726964676546616365743a2043616e2774207769746864726177206c6f636b60448201527f656420746f6b656e0000000000000000000000000000000000000000000000006064820152608401610184565b610340833083610cb7565b508061034b8161227b565b915050610190565b508073ffffffffffffffffffffffffffffffffffffffff167ff871896b17e9cb7a64941c62c188a4f5c621b86800e3d15452ece01ce56073df848460405161039c929190612176565b60405180910390a2505050565b828114610438576040517f08c379a000000000000000000000000000000000000000000000000000000000815260206004820152602560248201527f4272696467653a20696473206e6f742073616d65206c656e677468206173207660448201527f616c7565730000000000000000000000000000000000000000000000000000006064820152608401610184565b60148311156104c9576040517f08c379a000000000000000000000000000000000000000000000000000000000815260206004820152603860248201527f4974656d733a206578636565646564206d6178206e756d626572206f6620696460448201527f7320666f722073696e676c65207472616e73616374696f6e00000000000000006064820152608401610184565b60006104d3610c4e565b905060005b8481101561059357600086868381811061051b577f4e487b7100000000000000000000000000000000000000000000000000000000600052603260045260246000fd5b905060200201359050600085858481811061055f577f4e487b7100000000000000000000000000000000000000000000000000000000600052603260045260246000fd5b9050602002013590506105738483836110c1565b61057e30838661144c565b5050808061058b9061227b565b9150506104d8565b50600073ffffffffffffffffffffffffffffffffffffffff168173ffffffffffffffffffffffffffffffffffffffff168273ffffffffffffffffffffffffffffffffffffffff167f4a39dc06d4c0dbc64b70af90fd698a233a518aa5d07e595d983b8c0526c8f7fb8888888860405161060f949392919061218a565b60405180910390a48073ffffffffffffffffffffffffffffffffffffffff167f5e9327766a4ba5751ce7b12a3b9bb503da13d20e7c5ad6eed0228e87b38bd6f086868686604051610663949392919061218a565b60405180910390a25050505050565b600061067c610c4e565b601d5490915073ffffffffffffffffffffffffffffffffffffffff808316911614806106e157507fc8fcad8db84d3cc18b4c41d551ea0ee66dd599cde068d998e57d5e09332c13205473ffffffffffffffffffffffffffffffffffffffff8281169116145b61076d576040517f08c379a000000000000000000000000000000000000000000000000000000000815260206004820152602160248201527f4c696241707053746f726167653a20446f206e6f74206861766520616363657360448201527f73000000000000000000000000000000000000000000000000000000000000006064820152608401610184565b50601b80547fffffffffffffffffffffffff00000000000000000000000000000000000000001673ffffffffffffffffffffffffffffffffffffffff92909216919091179055565b601b5473ffffffffffffffffffffffffffffffffffffffff165b90565b601b5473ffffffffffffffffffffffffffffffffffffffff163314610879576040517f08c379a000000000000000000000000000000000000000000000000000000000815260206004820152603560248201527f4272696467653a206f6e6c79206368696c64436861696e4d616e61676572206360448201527f616e2063616c6c20746869732066756e6374696f6e00000000000000000000006064820152608401610184565b60008061088883850185612038565b91509150610483821415610acf57600080828060200190518101906108ad9190611fbf565b915091508051825114610942576040517f08c379a000000000000000000000000000000000000000000000000000000000815260206004820152602d60248201527f4272696467653a20696473206c656e677468206e6f7420657175616c20746f2060448201527f76616c756573206c656e677468000000000000000000000000000000000000006064820152608401610184565b60005b82518110156109f8576000838281518110610989577f4e487b7100000000000000000000000000000000000000000000000000000000600052603260045260246000fd5b6020026020010151905060008383815181106109ce577f4e487b7100000000000000000000000000000000000000000000000000000000600052603260045260246000fd5b602002602001015190506109e38a8383611638565b505080806109f09061227b565b915050610945565b508673ffffffffffffffffffffffffffffffffffffffff16600073ffffffffffffffffffffffffffffffffffffffff163373ffffffffffffffffffffffffffffffffffffffff167f4a39dc06d4c0dbc64b70af90fd698a233a518aa5d07e595d983b8c0526c8f7fb8585604051610a709291906121cf565b60405180910390a48673ffffffffffffffffffffffffffffffffffffffff167f1f8f7e06c46965f34545e8fe6b5116f98558ddf6c119e4cb12135666444f67018383604051610ac09291906121cf565b60405180910390a25050610c47565b6102d1821415610c4757600081806020019051810190610aef9190611f84565b905060005b8151811015610bf6576000828281518110610b38577f4e487b7100000000000000000000000000000000000000000000000000000000600052603260045260246000fd5b6020908102919091018101516000818152600d9092526040909120600b015490915073ffffffffffffffffffffffffffffffffffffffff163014610bd8576040517f08c379a000000000000000000000000000000000000000000000000000000000815260206004820152601a60248201527f4272696467653a204e6f74206f776e6572206f6620746f6b656e0000000000006044820152606401610184565b610be3308983610cb7565b5080610bee8161227b565b915050610af4565b508573ffffffffffffffffffffffffffffffffffffffff167fe8edaa5c112cdb60e97abebd218ece4a467f3704bb404b7aff005c1acf53ebe582604051610c3d91906121bc565b60405180910390a2505b5050505050565b600033301415610cb257600080368080601f01602080910402602001604051908101604052809392919081815260200183838082843760009201919091525050505036015173ffffffffffffffffffffffffffffffffffffffff1691506107cf9050565b503390565b73ffffffffffffffffffffffffffffffffffffffff83166000818152600f60209081526040808320858452825280832054938352600e9091528120549091908290610d0490600190612264565b9050808214610e765773ffffffffffffffffffffffffffffffffffffffff86166000908152600e840160205260408120805483908110610d6d577f4e487b7100000000000000000000000000000000000000000000000000000000600052603260045260246000fd5b90600052602060002090600891828204019190066004029054906101000a900463ffffffff1690508084600e0160008973ffffffffffffffffffffffffffffffffffffffff1673ffffffffffffffffffffffffffffffffffffffff1681526020019081526020016000208481548110610e0f577f4e487b7100000000000000000000000000000000000000000000000000000000600052603260045260246000fd5b600091825260208083206008830401805460079093166004026101000a63ffffffff81810219909416958416029490941790935573ffffffffffffffffffffffffffffffffffffffff8a168252600f87018352604080832094909116825292909152208290555b73ffffffffffffffffffffffffffffffffffffffff86166000908152600e840160205260409020805480610ed3577f4e487b7100000000000000000000000000000000000000000000000000000000600052603160045260246000fd5b6000828152602080822060087fffffffffffffffffffffffffffffffffffffffffffffffffffffffffffffffff90940193840401805463ffffffff600460078716026101000a02191690559190925573ffffffffffffffffffffffffffffffffffffffff8089168352600f8601825260408084208885528352808420849055601387019092529120541615610fdb57600084815260138401602052604080822080547fffffffffffffffffffffffff00000000000000000000000000000000000000001690555185919073ffffffffffffffffffffffffffffffffffffffff8916907f8c5be1e5ebec7d5bd14f71427d1e84f3dd0314c0f7b2291e5b200ac8c7c3b925908390a45b6000848152600d840160209081526040808320600b0180547fffffffffffffffffffffffff00000000000000000000000000000000000000001673ffffffffffffffffffffffffffffffffffffffff8a8116918217909255808552600e88018085528386208054600f8b0187528588208c8952875285882081905591865260018201815586529385206008850401805460079095166004026101000a63ffffffff81810219909616958b16029490941790935590518793918a16917fddf252ad1be2c89b69c2b068fc378daa952ba7f163c4a11628f55a4df523b3ef91a4505050505050565b73ffffffffffffffffffffffffffffffffffffffff8316600090815260096020908152604080832085845290915281205480831115611182576040517f08c379a000000000000000000000000000000000000000000000000000000000815260206004820152602c60248201527f4c69624974656d733a20446f65736e277420686176652074686174206d616e7960448201527f20746f207472616e7366657200000000000000000000000000000000000000006064820152608401610184565b61118c8382612264565b73ffffffffffffffffffffffffffffffffffffffff8616600090815260098401602090815260408083208884529091529020819055905080610c475773ffffffffffffffffffffffffffffffffffffffff85166000908152600b83016020908152604080832087845290915281205461120790600190612264565b73ffffffffffffffffffffffffffffffffffffffff87166000908152600a850160205260408120549192509061123f90600190612264565b90508082146113805773ffffffffffffffffffffffffffffffffffffffff87166000908152600a8501602052604081208054839081106112a8577f4e487b7100000000000000000000000000000000000000000000000000000000600052603260045260246000fd5b906000526020600020015490508061ffff1685600a0160008a73ffffffffffffffffffffffffffffffffffffffff1673ffffffffffffffffffffffffffffffffffffffff1681526020019081526020016000208481548110611333577f4e487b7100000000000000000000000000000000000000000000000000000000600052603260045260246000fd5b60009182526020909120015561134a83600161224c565b73ffffffffffffffffffffffffffffffffffffffff89166000908152600b87016020908152604080832094835293905291909120555b73ffffffffffffffffffffffffffffffffffffffff87166000908152600a8501602052604090208054806113dd577f4e487b7100000000000000000000000000000000000000000000000000000000600052603160045260246000fd5b6000828152602080822083017fffffffffffffffffffffffffffffffffffffffffffffffffffffffffffffffff90810183905590920190925573ffffffffffffffffffffffffffffffffffffffff89168252600b86018152604080832089845290915281205550505050505050565b73ffffffffffffffffffffffffffffffffffffffff8381166000908152602f60209081526040808320868452825280832093851683529290529081205480611495575050611633565b6000818152602a830160205260409020600781015415806114c55750600a81015460ff6101009091041615156001145b806114d95750600a81015460ff1615156001145b156114e657505050611633565b60058101548015611603576002820154600183015460038401546040517efdd58e00000000000000000000000000000000000000000000000000000000815273ffffffffffffffffffffffffffffffffffffffff9283166004820152602481019190915291169062fdd58e9060440160206040518083038186803b15801561156d57600080fd5b505afa158015611581573d6000803e3d6000fd5b505050506040513d601f19601f820116820180604052508101906115a59190612020565b9050816005015481101561160357600582018190556006820154604080518381526020810192909252429082015283907f9a1e053d28c2efc6add1e4a5d1647a99e883b256a54f9ef4a0abf8fcba643a559060600160405180910390a25b8061162e57600182015461162e90849073ffffffffffffffffffffffffffffffffffffffff16611715565b505050505b505050565b73ffffffffffffffffffffffffffffffffffffffff8316600090815260096020908152604080832085845290915281208054839190839061167a90849061224c565b909155505073ffffffffffffffffffffffffffffffffffffffff84166000908152600b82016020908152604080832086845290915290205461170f5773ffffffffffffffffffffffffffffffffffffffff84166000818152600a830160209081526040808320805460018101825581855283852061ffff8a169101559383529254600b85018252838320878452909152919020555b50505050565b604080517f6c697374656400000000000000000000000000000000000000000000000000008152602c600682015281519081900360260190206000848152602091909152908120600181015461176c5750506118ad565b6000848152602a830160205260409020600a81015460ff610100909104161515600114806117a35750600a81015460ff1615156001145b156117b0575050506118ad565b600181015473ffffffffffffffffffffffffffffffffffffffff858116911614611836576040517f08c379a000000000000000000000000000000000000000000000000000000000815260206004820152601d60248201527f4d61726b6574706c6163653a206f776e6572206e6f742073656c6c65720000006044820152606401610184565b600a810180547fffffffffffffffffffffffffffffffffffffffffffffffffffffffffffff00ff1661010017905560048101546040805191825243602083015286917fc1ee70d4dadc0ea8041f31f81b07d0ac9374b6bf41956d9cae562e672f3f8a91910160405180910390a2610c4785856118b1565b5050565b604080517f6c697374656400000000000000000000000000000000000000000000000000008152602c60068201528151908190036026019020600084815260209190915290812060018101546119085750506118ad565b8054801561196b57600083602c01604051611946907f6c69737465640000000000000000000000000000000000000000000000000000815260060190565b9081526040805160209281900383019020600085815292529020600284810154910155505b600282015480156119cc57600084602c016040516119ac907f6c69737465640000000000000000000000000000000000000000000000000000815260060190565b908152604080516020928190038301902060008581529252902084549055505b6000868152602a85016020908152604080832060048101548452602b88019092529182902091517f6c697374656400000000000000000000000000000000000000000000000000008152909188916006019081526020016040518091039020541415611a8757600284015460048201546000908152602b870160205260409081902090517f6c697374656400000000000000000000000000000000000000000000000000008152600601908152604051908190036020019020555b60006001850181905580855560028501556040517f6c697374656400000000000000000000000000000000000000000000000000008152602e860190600601908152604080516020928190038301902060008a815292529020805490945092508215611b4857600085602e01604051611b23907f6c69737465640000000000000000000000000000000000000000000000000000815260060190565b9081526040805160209281900383019020600087815292529020600286810154910155505b600284015491508115611bab57600085602e01604051611b8b907f6c69737465640000000000000000000000000000000000000000000000000000815260060190565b908152604080516020928190038301902060008681529252902085549055505b506000868152602a85016020908152604080832073ffffffffffffffffffffffffffffffffffffffff89168452602d88018352818420600482015485529092529182902091517f6c697374656400000000000000000000000000000000000000000000000000008152909188916006019081526020016040518091039020541415611ca657600284015473ffffffffffffffffffffffffffffffffffffffff87166000908152602d870160209081526040808320600486015484529091529081902090517f6c697374656400000000000000000000000000000000000000000000000000008152600601908152604051908190036020019020555b600060018501819055808555600280860182905582015473ffffffffffffffffffffffffffffffffffffffff9081168252602f870160209081526040808420600386015485528252808420928a1684529181528183209290925560048301548151908152429281019290925288917f276ac39b0f98215592b4487434c1618e3e527c57ca2f471ac93eb4eab1694091910160405180910390a250505050505050565b803573ffffffffffffffffffffffffffffffffffffffff81168114611d6c57600080fd5b919050565b60008083601f840112611d82578182fd5b50813567ffffffffffffffff811115611d99578182fd5b6020830191508360208083028501011115611db357600080fd5b9250929050565b600082601f830112611dca578081fd5b8151602067ffffffffffffffff821115611de657611de66122e3565b808202611df48282016121fd565b838152828101908684018388018501891015611e0e578687fd5b8693505b85841015611e30578051835260019390930192918401918401611e12565b50979650505050505050565b600060208284031215611e4d578081fd5b611e5682611d48565b9392505050565b600080600060408486031215611e71578182fd5b611e7a84611d48565b9250602084013567ffffffffffffffff80821115611e96578384fd5b818601915086601f830112611ea9578384fd5b813581811115611eb7578485fd5b876020828501011115611ec8578485fd5b6020830194508093505050509250925092565b60008060208385031215611eed578182fd5b823567ffffffffffffffff811115611f03578283fd5b611f0f85828601611d71565b90969095509350505050565b60008060008060408587031215611f30578081fd5b843567ffffffffffffffff80821115611f47578283fd5b611f5388838901611d71565b90965094506020870135915080821115611f6b578283fd5b50611f7887828801611d71565b95989497509550505050565b600060208284031215611f95578081fd5b815167ffffffffffffffff811115611fab578182fd5b611fb784828501611dba565b949350505050565b60008060408385031215611fd1578182fd5b825167ffffffffffffffff80821115611fe8578384fd5b611ff486838701611dba565b93506020850151915080821115612009578283fd5b5061201685828601611dba565b9150509250929050565b600060208284031215612031578081fd5b5051919050565b6000806040838503121561204a578182fd5b8235915060208084013567ffffffffffffffff80821115612069578384fd5b818601915086601f83011261207c578384fd5b81358181111561208e5761208e6122e3565b6120be847fffffffffffffffffffffffffffffffffffffffffffffffffffffffffffffffe0601f840116016121fd565b915080825287848285010111156120d3578485fd5b8084840185840137810190920192909252919491935090915050565b60008284527f07ffffffffffffffffffffffffffffffffffffffffffffffffffffffffffffff831115612120578081fd5b6020830280836020870137939093016020019283525090919050565b6000815180845260208085019450808401835b8381101561216b5781518752958201959082019060010161214f565b509495945050505050565b600060208252611fb76020830184866120ef565b60006040825261219e6040830186886120ef565b82810360208401526121b18185876120ef565b979650505050505050565b600060208252611e56602083018461213c565b6000604082526121e2604083018561213c565b82810360208401526121f4818561213c565b95945050505050565b604051601f82017fffffffffffffffffffffffffffffffffffffffffffffffffffffffffffffffe016810167ffffffffffffffff81118282101715612244576122446122e3565b604052919050565b6000821982111561225f5761225f6122b4565b500190565b600082821015612276576122766122b4565b500390565b60007fffffffffffffffffffffffffffffffffffffffffffffffffffffffffffffffff8214156122ad576122ad6122b4565b5060010190565b7f4e487b7100000000000000000000000000000000000000000000000000000000600052601160045260246000fd5b7f4e487b7100000000000000000000000000000000000000000000000000000000600052604160045260246000fdfea164736f6c6343000802000a",
  "linkReferences": {},
  "deployedLinkReferences": {}
}